:020000040800F2
:10000000401B0020F1100008D50D0008DD1000088D
:10001000DD100008DD100008DD100008DD1000080C
:10002000000000000000000000000000E1110008D6
:10003000DD10000800000000791100088524000888
:100040003913000839130008391300083913000860
:100050003913000839130008391300083913000850
:100060003913000839130008391300083913000840
:100070003913000839130008391300083913000830
:1002500081F0004102E000BF83F0004330B54FEA77
:1002600041044FEA430594EA050F08BF90EA020FE4
:100270001FBF54EA000C55EA020C7FEA645C7FEA77
:10028000655C00F0E2804FEA5454D4EB5555B8BF9A
:100290006D420CDD2C4480EA020281EA030382EA0B
:1002A000000083EA010180EA020281EA0303362D9D
:1002B00088BF30BD11F0004F4FEA01314FF4801C70
:1002C0004CEA113102D0404261EB410113F0004F82
:1002D0004FEA03334CEA133302D0524263EB430339
:1002E00094EA050F00F0A780A4F10104D5F1200ED7
:1002F0000DDB02FA0EFC22FA05F2801841F1000132
:1003000003FA0EF2801843FA05F359410EE0A5F105
:1003100020050EF1200E012A03FA0EFC28BF4CF036
:10032000020C43FA05F3C01851EBE37101F00045EC
:1003300007D54FF0000EDCF1000C7EEB00006EEBF9
:100340000101B1F5801F1BD3B1F5001F0CD3490883
:100350005FEA30004FEA3C0C04F101044FEA4452DA
:1003600012F5800F80F09A80BCF1004F08BF5FEA61
:10037000500C50F1000041EB045141EA050130BD41
:100380005FEA4C0C404141EB0101013C28BFB1F553
:10039000801FE9D291F0000F04BF01460020B1FA9E
:1003A00081F308BF2033A3F10B03B3F120020CDA71
:1003B0000C3208DD02F1140CC2F10C0201FA0CF04F
:1003C00021FA02F10CE002F11402D8BFC2F1200CB4
:1003D00001FA02F120FA0CFCDCBF41EA0C0190406A
:1003E000E41AA2BF01EB0451294330BD6FEA0404B3
:1003F0001F3C1CDA0C340EDC04F11404C4F120029E
:1004000020FA04F001FA02F340EA030021FA04F3AF
:1004100045EA030130BDC4F10C04C4F1200220FA06
:1004200002F001FA04F340EA0300294630BD21FA44
:1004300004F0294630BD94F0000F83F4801306BF0A
:1004400081F480110134013D4EE77FEA645C18BFFE
:100450007FEA655C29D094EA050F08BF90EA020F95
:1004600005D054EA000C04BF1946104630BD91EA8D
:10047000030F1EBF0021002030BD5FEA545C05D190
:100480004000494128BF41F0004130BD14F58004CF
:100490003CBF01F5801130BD01F0004545F0FE4143
:1004A00041F470014FF0000030BD7FEA645C1ABF78
:1004B000194610467FEA655C1CBF0B46024650EAAF
:1004C000013406BF52EA033591EA030F41F40021DB
:1004D00030BD00BF90F0000F04BF0021704730B561
:1004E0004FF4806404F132044FF000054FF0000136
:1004F00050E700BF90F0000F04BF0021704730B5F7
:100500004FF4806404F1320410F0004548BF4042CB
:100510004FF000013EE700BF42004FEAE2014FEA20
:1005200031014FEA02701FBF12F07F4393F07F4FFB
:1005300081F06051704732F07F4208BF704793F0FE
:100540007F4F04BF41F40021704730B54FF4607411
:1005500001F0004521F000411CE700BF50EA010214
:1005600008BF704730B54FF000050AE050EA0102BD
:1005700008BF704730B511F0004502D5404261EB2D
:1005800041014FF4806404F132045FEA915C3FF46E
:10059000D8AE4FF003025FEADC0C18BF03325FEA0B
:1005A000DC0C18BF033202EBDC02C2F1200300FABC
:1005B00003FC20FA02F001FA03FE40EA0E0021FAE1
:1005C00002F11444BDE600BF53B94AB9002908BF7F
:1005D00000281CBF4FF0FF314FF0FF3000F00CB887
:1005E000ADF1080C6DE904CE00F008F8DDF804E088
:1005F000DDE9022304B07047704700BF2DE9F047E2
:1006000086468C460846089E154674461946002BB9
:1006100040F0C1808542B2FA82F245D94AB1C2F1B6
:10062000200300FA02FC954094402EFA03F343EABB
:100630000C0C4FEA154EA8B2230CBCFBFEF80EFBC7
:1006400018CC08FB00F943EA0C43994528D9EB186C
:1006500008F1FF3704D2994502D9A8F102072B44CB
:10066000A3EB0903A4B2B3FBFEFC0EFB1C330CFB93
:1006700000F044EA0344A04214D92C190CF1FF33D2
:1006800004D2A04202D9ACF102032C44241A43EA5A
:1006900007401EB1D440002334607360BDE8F0878A
:1006A0004746DDE76346F1E792BB431B01214FEA72
:1006B000154EAFB2200CB3FBFEFC0EFB1C330CFB43
:1006C00007F840EA0343984561D9EB180CF1FF3075
:1006D00004D2984502D9ACF102002B44A3EB0803E5
:1006E000A4B2B3FBFEFC0EFB1C330CFB07F744EA81
:1006F0000344A7424DD92C190CF1FF3304D2A74271
:1007000002D9ACF102032C44E41B43EA0040C0E7E9
:10071000C2F120039540944020FA03F12EFA03F32E
:100720004FEA154E9040AFB20343B1FBFEFC0EFB07
:100730001C10190C0CFB07F841EA0041884522D92E
:1007400069180CF1FF3004D2884502D9ACF10200DF
:100750002944A1EB08019BB2B1FBFEFC0EFB1C116E
:100760000CFB07F743EA01439F420ED9EB180CF14B
:10077000FF3104D29F4202D9ACF102012B44DB1BB2
:1007800041EA004193E76046E3E76146F7E76046E8
:10079000A4E76346B8E7834206D916B900210846A4
:1007A0007CE7C6E900E0F9E7B3FA83F78FB9834243
:1007B00001D3724508D8BEEB020460EB03030120AD
:1007C0009C461EB9002169E73846FAE7C6E9004CA5
:1007D000F8E7C7F1200CBB400EFA07F522FA0CF43B
:1007E0002EFA0CF1BA401C4320FA0CF3B8404FEA41
:1007F000144901431FFA84FEB3FBF9F809FB1830D2
:100800000B0C08FB0EFA43EA00439A4540D9E31863
:1008100008F1FF3004D29A4502D9A8F1020023441E
:10082000A3EB0A0389B2B3FBF9F809FB183308FB01
:100830000EFE41EA03418E452CD9611808F1FF33C1
:1008400004D28E4502D9A8F10203214443EA0040B4
:10085000A1EB0E01A0FB02984145CE46434602D3D0
:1008600006D14D4504D20138B9EB020E68EB040302
:10087000002EA7D0B5EB0E0261EB030101FA0CFCD0
:1008800022FA07F3F9404CEA0303C6E9003199E77D
:100890004046C5E74346D9E72DE9F04F9448A5B057
:1008A00004F00AF800F076F900F092F9914803F0AC
:1008B0003DFF914803F03AFF904803F037FF90481E
:1008C00003F02FFF8F4803F02CFF8F4803F029FF20
:1008D0008B4800F055F98B4800F052F98A4800F037
:1008E0004FF940F6C41003F03BFF0023874903AAE9
:1008F0008348039300F0BCF9854903AA0646814862
:1009000000F0B6F9834903AA04467F4800F0B0F925
:1009100005464FF47A7003F023FF7F4803F0CCFFC5
:10092000039900294EDD7D4803F0C6FF4FF47A702D
:1009300003F016FF002E00F0CA8069A7D7E9006710
:10094000774803F0B9FF77496D4803F038FF4FF45B
:10095000FA7003F005FF7449744803F0ADFF4FF4DB
:10096000FA7003F0FDFE7249654803F028FF4FF46A
:10097000FA7003F0F5FE6C496C4803F09DFF4FF4EC
:10098000FA6003F0EDFE6B4803F096FF0624DFF8F3
:100990007091013C1DD1684D4FF47A7003F0E0FE78
:1009A0002B68002B40F39180644803F085FF2B688F
:1009B000634E002B00F38580624803F07DFF25B075
:1009C000BDE8F08F604803F077FF604803F074FFE4
:1009D000ACE75F4A8021CDE9006704A802F084FDFE
:1009E00004A9484603F0EBFE32463B46594803F063
:1009F00063FF4FF4FA7003F0B3FE6425DFF858A1EB
:100A0000DFF858B1DFF820819AF80030002B41D090
:100A10005946404604F0F3FD0146002835D000F069
:100A2000C7F84F4803F048FF434B1A68632A28DC95
:100A3000511C1960424B03EBC203C3E900674FF43A
:100A400080720021384804F0B6FD00F0B9F84FF488
:100A500080720021344804F0AEFD4FF4FA7003F0C8
:100A60007FFE4FF4807200212F4804F0A4FD1EA3E6
:100A7000D3E9002330463946FFF7F0FB06460F4620
:100A800087E7384803F018FFD9E74FF480724046F3
:100A900004F091FD0A2003F063FE013DB4D1324819
:100AA00003F00AFFD1E74046083603F005FFD6E918
:100AB0000023384603F000FF2B6801349C42F2DB30
:100AC0007AE72A4FDFF8A880F1E72A4875E70DB1E9
:100AD000294872E7002C3FF472AF28486DE700BF49
:100AE0009A99999999998C40333333333333E33F4F
:100AF0004C660008F0620008E8620008E062000846
:100B0000845B00085C5B0008485B00087A660008AC
:100B10007F6600088366000889660008A8660008EA
:100B20000C67000825670008F50C002034670008F2
:100B30003C6700084E670008580A0020216800083A
:100B4000880500209E670008C9660008E86600085E
:100B500071670008A0670008F40C0020BD6700085A
:100B6000C7670008D36700080A6800083E680008E5
:100B70003C68000845680008636800086F68000862
:100B8000836823B19B6C13B1002201491847704759
:100B9000ED0B000808B5044803F0F7FDBDE8084078
:100BA000024803F0F2BD00BF00630008F8620008CD
:100BB00001220021014803F0D8BD00BF0C5B0008F2
:100BC00000220248114603F0D0BD00BF0C5B0008B4
:100BD000054802698168136823F0020313600B68FB
:100BE0004FF42022012118470C5B0008F7B504469A
:100BF00083685B6C23BBA3685B6B33BB184D194EDA
:100C0000A3689B69FBB1012220460DF107019847BB
:100C1000012818D19DF807202B680A2A01D00D2A37
:100C200018D1002BECDD00274FF480720D490E48DF
:100C3000F75404F0C8FC01220C4B2F601A70DFE758
:100C400098470028D7D103B0F0BD20469847002828
:100C5000D4D1F8E7FE2B9EBF591C2960F254CFE790
:100C60005C0A0020F40B0020F50C0020F40C00209E
:100C70002DE9F04104460D46164600214FF48072DE
:100C8000134804F098FC2046124903F098FD1A24FA
:100C9000114FDFF83C80013C05D11048294603F094
:100CA0000BFE204612E000214FF47A7002F00EFA9B
:100CB0003946404604F0A3FC0028ECD008482946F9
:100CC00003F0FAFD0120336801333360BDE8F081A1
:100CD000F50C00207B6800087E6800089868000812
:100CE00086680008014B1B68184700BFC00400203D
:100CF000014B1860704700BFC004002030B585B0BC
:100D000004460D4610220021684604F054FC0223DC
:100D10008DF80230044B2A4621466846019302F0C2
:100D2000A9FC05B030BD00BFE50C000880B5054644
:100D30000E461746984602F0E7F9034604F02EFEE9
:100D40000446DFF81890424649F8003039463046EC
:100D5000A84754F8090000F0E1F900BF08000000BE
:100D600000200A4B82B0D3F8882042F00102C3F879
:100D70008820D3F88830064A03F001030193019BD1
:100D8000536843F00203536002B07047000C024402
:100D900000400244084B1A6822F004021A601A68E4
:100DA00042F001021A60054B054A1A60054AD36AEF
:100DB00043F00103D362704700040340380500206C
:100DC0000048E80100080244014B0360002070471E
:100DD0000863000808B5034B1B689847BDE8084046
:100DE00000F026B8C404002030BFFFF7FDBF00BFED
:100DF0002DE9F04105460B4EDFF82C80324606EB1C
:100E00000807CC1B2046094904F0C8FBA01942463C
:100E10000021083C04F0CFFB2C6707F10800BDE877
:100E2000F08100BF00000000040000004C600008DA
:100E3000074A936893F90E10002907DB5269934221
:100E40001FBF044A536843F080535360704700BF8C
:100E5000C40B002000ED00E0154B9A6A12F0007FF1
:100E60009A6A14BF1E201D2012F0807F9A6A18BF54
:100E70001F2012F4801F9A6A18BF022012F4002F5C
:100E80009A6A18BF212012F4802F9A6A18BF222074
:100E900012F4003F9A6A18BF232012F4803F9A6A26
:100EA00018BF24206FEA02426FEA12429A6270472A
:100EB00000ED00E010B5194B0246986A9C6A10F4E8
:100EC000805F14BF1720162014F4006F9C6A18BFAF
:100ED0001820A40509D5986B986A000404D51AB1A6
:100EE0009A6A22F400429A6219200C4B9A6A12F410
:100EF000806F9A6A18BF1A20D2050CD49B6A13F42B
:100F0000005F18BF1C20054A936A43F47F43936235
:100F100000230B7010BD1B20F5E700BF00ED00E0C3
:100F200010B51C4B0246986A9C6A10F0100F14BF53
:100F30001120102014F0080F9C6A18BF1220A4077B
:100F400009D5586B986A000604D51AB19A6A22F03E
:100F500080029A6213200F4B9A6A12F0010F9A6A6C
:100F600018BF142012F0200F9A6A18BF1520D4065B
:100F700058BF9B6A074B9A6A920642BF5A6A22F48C
:100F800000525A629A6A42F0FF029A6200230B7082
:100F900010BD00BF00ED00E0F0B5474B04465B68B4
:100FA00000258BB0C3F3080385F31188BFF36F8F5F
:100FB00002F07F40B0F17F4F11D102F00C00082801
:100FC0000DD010074CBF0C4601250022033B8DF8C5
:100FD0000720032B05D8DFE803F02462665F2C4668
:100FE000F3E700239DF80720CAB902AE04F12007F9
:100FF000324620686168083403C2BC421646F7D105
:10100000099A002D53D0C2F3080121B96FEA522288
:101010006FEA42220992184602A903F05BFC0BB06A
:10102000F0BD254BDA6A9107DBD4DA6A002AD8DBF7
:10103000DA6A5200D5D55A69A16942F480725A61C0
:10104000BFF34F8FBFF36F8F5A6931F8021C22F440
:1010500080725A61BFF34F8FBFF36F8F4DF60272EC
:10106000914209D09A6AD2B242B101200DF1070132
:10107000FFF756FF0346B5E72368B3E79A6A12F411
:101080007F4F05D001200DF10701FFF713FFF1E7B6
:101090009B6AB3F5803FA4D3FFF7DEFEEAE70020AA
:1010A0000DF10701E4E700200DF10701EDE722F45F
:1010B000FF7222F00102ADE700ED00E0064B5A6935
:1010C00042F010025A615A6942F480625A615A69C8
:1010D00022F008025A61704700ED00E0EFF308804B
:1010E000EFF3098101B57246FFF756FF01BD00BF5E
:1010F000102080F3118808484FF40061401880F3F5
:101100000988EFF314800221084380F31488BFF3A9
:101110006F8F00F09BF80000000E0020084B9B68CA
:1011200083420BD1EFF3058343B1064B5A6842F07B
:1011300080525A605A6A22F400425A6204F0F3B9AB
:10114000C40B002000ED00E06FF00A01084A93682C
:101150009967084958674B6843F080534B600023F8
:1011600083F31188BFF36F8F9368986F704700BF48
:10117000C40B002000ED00E016498A684FF03000F3
:101180001044EFF3098C80E8F01F102080F31288E0
:10119000BFF36F8F104F4FF000664A698A603E6060
:1011A0004FF07004141920680C4C2060506F00231D
:1011B000536780F3118802F1300090E8F01F8CF340
:1011C000098802F1000004B503F092FBBDE8044079
:1011D00070470000C40B002004ED00E0600A00200E
:1011E0001EF0040F0CBFEFF30880EFF30980816954
:1011F00011F8021C0229FFD001B5724603F070FB02
:1012000001BD00BF00B2002807DB01234109034AEA
:1012100000F01F00834042F82130704700E100E0F9
:1012200000B2002801F10101ACBF00F16040064BA3
:101230004FEA0111C9B2ABBF00F5614000F00F00E9
:1012400080F800131954704714ED00E00F4A08B5F8
:101250000F4B22F07F029A60BFF34F8FBFF36F8F67
:10126000D3F8882022F47002C3F88820EFF31483A7
:1012700023F0040383F31488BFF36F8F01F096FB10
:1012800001F0D0FF00F04CF801F0D0FB00000008A6
:1012900000ED00E042F8203C009B0B4942F81C3C6A
:1012A000019B21F0010142F8183C029B42F8081C06
:1012B00042F8143C4FF0807342F8043C0023203A7B
:1012C00002654367704700BF2D0D000800B50D4B48
:1012D00015469860026F0C4B0E461A60036E83F33E
:1012E0000B882C4686F309884FF00000074B98477F
:1012F00020464FF000014FF000024FF00003044C75
:10130000204700BFC40B0020600A0020F9480008F5
:101310002D0D00081022014B1A61704700ED00E00E
:10132000002310210348C2180133832B82F80013D5
:10133000F9D1704700E100E008B5EFF30583064AF4
:10134000103B02EBC30152F8330049688847BDE8FF
:101350000840FFF76DBD00BF985B00081FB5094C42
:10136000094A23460121094800F0FAF800230393B3
:10137000074B0121E41A01A80193029400F0FAF846
:1013800004B010BD00000420000000200863000825
:101390008805002010B50C7A0B6804F01F0223F0BA
:1013A0001F031A43CB68640923F01F03054943EA6E
:1013B000440343F00103C1F89800C1F89C20C1F830
:1013C000A03010BD00ED00E010B5074BD3F8903011
:1013D000C3F30723013B984202D8FFF7DBFF10BDA0
:1013E0006FF01500FBE700BF00ED00E02DE9F04FC6
:1013F0000F46144606464FF000084D4D85B0B845DF
:1014000080F29280D6F80490B9F1000F36D0B9F18D
:101410001F0F40F2878019F01F0F40F08380D6F82D
:1014200000A01AF01F0F7DD1504603F079FA8346D1
:1014300009EB0A00013803F073FA834572D11BF1FE
:10144000160F6FD05C456DDDC5F898B0D5F89C10CF
:10145000C5F898B0D5F8A03021F01F0143F01F0A5D
:10146000D6E900321A44994202F1FF391ED1CA4529
:1014700008D131465FFA8BF003F05BFA08F10108FE
:101480000C36BCE73146C5F898B0D5F89C3022F050
:101490001F0203F01F031343C5F89C30E0B203F0B2
:1014A00048FA10F1160F3DD0441CE7E7C5F898B094
:1014B000D5F8A020013B23F01F0302F01F021343C5
:1014C000CA453146E0B2C5F8A030E8D003F031FAA1
:1014D00010F1160F26D0C5F898B0D5F89C209DF8CD
:1014E00008300AF1FF3A62F304038DF80830D5F8AA
:1014F000A0309DF808205B0863F347128DF80820A0
:10150000D6E900321344009323F01F035344A3EBA6
:101510000903013023F01F036946C0B20393FFF7AC
:1015200053FFBEE76FF01504204605B0BDE8F08F0D
:1015300000ED00E00522044BC3F89420BFF34F8F69
:10154000BFF36F8F704700BF00ED00E0BFF35F8F08
:101550000022024BC3F89420704700BF00ED00E06A
:1015600010B5034C2278FFF741FF207010BD00BF7B
:10157000F50D00202DE9F74F294D8A4606464FF01C
:101580000008AB46274FD0451BDAD6F80490B9F1D6
:10159000000F3FD031680846019103F0C1F901996D
:1015A000044609EB0100013803F0BAF984424FF018
:1015B00014021D4B08D002FB08F36FF015024BF824
:1015C000032003B0BDE8F08F14F1160F2C60F8D0A3
:1015D0001978A142F5DD02FB08B0C7F89840C7F8BA
:1015E0009840D7F89C4000F10801007B64F30400A8
:1015F0000871D7F8A0000C79400860F347140C710B
:10160000D7F89C1021F01F016960D7F8A01021F0D5
:101610001F01296108F1010814350C36B3E700BF3A
:10162000640A002000ED00E0F50D0020F0B541490E
:10163000414CD1F890302568C3F307239D4287B011
:1016400075D80020FFF782FF3C4BC1F8C0308542BF
:1016500016D13B4C01A82570FFF7B6FB00250646C6
:10166000384FAE4213D1002023783249D1F8902070
:10167000C2F30722934254DBFFF75CFF00202FE008
:10168000616801EB0011FFF785FE0130DFE701998A
:10169000280101EB0513DA683A40B2F5001F21D0AA
:1016A000B2F5800F2BD0B2F5801F38D15A689B68F5
:1016B0000958013B22F01F0003440120844623F017
:1016C0001F0340EA4C10CDE902218DF8100002A959
:1016D00020780593FFF778FE00281DDA6FF01500DB
:1016E00007B0F0BD5A689B680958013B22F01F0003
:1016F00003444FF0020C012023F01F03E1E75A6876
:101700009B680958013B22F01F0003444FF0000C76
:10171000062023F01F03D4E723780133237001351B
:101720009FE7C1F89830C1F8A00001339EE74FF061
:10173000FF30D5E700ED00E014630008AAFF440085
:10174000F50D00200000F0FF08B5024B1B6898471C
:10175000002008BD780A0020034B044A18609378E3
:1017600043F0020393707047780A0020C8040020F9
:1017700008B50649064821F00701C1F1005202F5FB
:10178000802203F05AF8002008BD00BF471B00204C
:101790007C0A0020F8B505460024104E104F0123A6
:1017A0002A7852FA84F2D1B203FA01F0F36830EAEF
:1017B000030303D0336930EA030308D1F0603061DA
:1017C00057F832301BB107EBC202516898476A786C
:1017D0000134E3B29A42E2D2F8BD00BF00200244D5
:1017E000880A0020014B23F81010704744050020A0
:1017F000034678B1B0FA80F2C2F11F02D2B20649B4
:1018000031F91200054AD2F880100B43C2F880303B
:10181000FFF7F8BCFF22F2E7440500200020024455
:10182000034AD2F8803023EA0003C2F880307047C0
:1018300000200244032921D8DFE801F0020C10192E
:101840000F4B1A6822EA00021A605A6822EA000264
:101850005A6070470A4B1A680243F5E7084B5A680A
:1018600002435A601A6822EA00021A607047044B69
:101870001A6802431A605A6810435860704700BFE4
:101880000020024430B5B0B1B0FA80F3C3F11F03B9
:10189000DBB20B4850F833408C4204D100EBC30557
:1018A0006D68954205D044B940F8331000EBC30091
:1018B0004260002030BDFF23EBE76FF00F00F9E737
:1018C000880A002060B1B0FA80F3C3F11F03DBB2D5
:1018D0000021044A42F8331002EBC3025160704702
:1018E000FF23F5E7880A0020C300074AC0F3810000
:1018F000183052F8202003F018000F2383401340C3
:1019000023FA00F0704700BF002002440B680E2B42
:101910002AD813B96FF085007047013B0D2BF9D819
:1019200001A151F823F000BF6119000883190008D4
:10193000871900088D1900081519000815190008E5
:10194000151900087D1900087D1900087D19000887
:101950007D19000861190008611900086119000863
:101960000B4B002013607047882B07D08C3B1C2B3F
:10197000D0D8084921FA03F3DB07CBD5064B1B6807
:10198000EFE70023EDE74FF4FA43EAE7034BE8E71C
:1019900080B2E60E010111113805002040787D016A
:1019A00010B5584CE369236A574B1A6942F030026C
:1019B0001A615A691107FCD5544800F02FFE2368BC
:1019C00023F480232360236843F4803323604D4B4A
:1019D0001A689203FCD5D3F8F02042F08062C3F875
:1019E000F020D3F8F0201401FBD5DA6902F01802D8
:1019F000182A17D11A68900707D41A6842F0010212
:101A00001A60404A13689907FCD53E4BDA6922F008
:101A10000302DA61DA6912F0180FFBD11A6A22F0B8
:101A20000F021A62374B1A6822F080721A609A6AA3
:101A300042F003029A629A6A22F47C5242F40072E3
:101A40009A629A6A42F00C029A629A6A22F0200222
:101A50009A625A6B22F4FF7222F0010242F02702CE
:101A60005A639A6A22F010029A625A6B22F47E42FA
:101A700042F400725A639A6A42F480329A625A6B54
:101A800022F4FE0242F480325A639A6A42F400322F
:101A90009A625A6B22F0FE4242F080725A639A6A4E
:101AA00042F480229A621A6842F080721A601A68C0
:101AB0009201FCD5DA6A22F00302DA621A6B22F094
:101AC00003021A631A6A22F00F021A621A6A22F0DB
:101AD00070021A621A6A22F4E0621A621A6A22F426
:101AE000E0421A62DA6942F00302DA61054AD36918
:101AF00003F01803182BFAD1054B044A00201A6092
:101B000010BD00BF000C02440008024480B2E60E83
:101B10003805002010B5044C2046FFF7E9F82046B0
:101B2000FFF71AFE002010BD2D1B000873B50446F8
:101B300003250F4E8DF80700012200200DF107014B
:101B400000F06CFE20B101233370204602B070BD5E
:101B50003378002BF9D0013D08D003F09CFC00281D
:101B6000EAD10021142001F0B1FAE5E73570ECE785
:101B7000F60D00202DE9F843D0F804801746D0F880
:101B80001090D8F808000D461E4602F083FFB7F506
:101B9000001F044616D12846D8F80840FFF7A4FED7
:101BA00084420CD1294602F075FF0446FFF738FE47
:101BB0002046FFF787FE00212046FFF73BFE00206E
:101BC000BDE8F883B7F5800F20D0B6F1806F19D04B
:101BD000B6F1C06F18D0B6F1007F1AD102264A467E
:101BE00020460F49FFF74EFEB0B92846D8F8081036
:101BF00002F053FF20463146FFF71CFE2046FFF758
:101C0000F7FDDCE70126EAE70326E8E76FF0850049
:101C1000D6E76FF01500D3E76FF00F00D0E700BFF5
:101C20001F4E000838B5036904465860084D284621
:101C300003F0F3FB40B16168AB6828461B680C31C8
:101C4000984700EAE07038BD6FF01200FBE700BF74
:101C5000585A00082DE9F047044600251D4F00EBB7
:101C6000C106B44201D1002014E02068C30600F090
:101C70001F0911D4656845F02005C0F3481AC0F368
:101C800044200F2823D857F82080B8F1000F0DD139
:101C90006FF01200BDE8F087B9F1100F04D0B9F170
:101CA000110FEAD16568E8E73025E6E7404603F022
:101CB000B4FB0028ECD04B462A4640460AF00F0100
:101CC00003F0C3F8002804F10804CADAE2E76FF071
:101CD0001500DFE7F063000843681B6803F10802A2
:101CE00052E8002F42F0010203F1080040E8002111
:101CF0000029F3D1304A934250D002F180529342EE
:101D00004CD02E4A934249D002F18052934245D0A2
:101D10002B4A934242D002F1805293423ED0294A4C
:101D200093423BD002F18052934237D0264A9342ED
:101D300034D0B3F1502F31D002F5A05293422DD0C0
:101D400002F18052934229D0204A934226D002F1D8
:101D50008052934222D01E4A93421FD002F18052F9
:101D600093421BD01B4A934218D002F180529342F7
:101D700014D0194A934211D002F1805293420DD0EF
:101D8000164A93420AD002F18052934206D0144A76
:101D9000934203D002F18052934203D15A6842F039
:101DA00040025A6053E8002F42F4807243E8002159
:101DB0000029F7D1704700BF0038014000440040BF
:101DC00000480040004C00400050004000780040B7
:101DD000007C00400080004000680040006C004033
:101DE0000084004043681B6803F1080252E8002F9A
:101DF00022F0010203F1080040E800210029F3D19C
:101E0000304A934250D002F1805293424CD02E4A35
:101E1000934249D002F18052934245D02B4A9342DB
:101E200042D002F1805293423ED0294A93423BD0A5
:101E300002F18052934237D0264A934234D0B3F114
:101E4000502F31D002F5A05293422DD002F1805292
:101E5000934229D0204A934226D002F180529342E5
:101E600022D01E4A93421FD002F1805293421BD0CF
:101E70001B4A934218D002F18052934214D0194A5F
:101E8000934211D002F1805293420DD0164A9342F0
:101E90000AD002F18052934206D0144A934203D0F2
:101EA00002F18052934203D15A6822F040025A60F4
:101EB00053E8002F22F4807243E800210029F7D173
:101EC000704700BF00380140004400400048004017
:101ED000004C00400050004000780040007C004072
:101EE0000080004000680040006C0040008400401A
:101EF0000129034608461AD002290BD0C9B91B682C
:101F00000D4A934217D002F180529B1A18BF012349
:101F1000180370471868084B98420AD003F18053A1
:101F2000984214BF4FF440504FF4005070470020C7
:101F300070474FF4005070470024004470B50026ED
:101F40001D46094B6C0833F812203346FEF73CFB64
:101F5000090241EA1061000220182A46334641F185
:101F60000001FEF731FB70BD346600082DE9F34136
:101F70000269436810680C461D68D9688368DB688D
:101F8000DBB101AA9847002817DB244B9D4203D000
:101F900003F180539D4233D10026019FDFF88080FA
:101FA000234638460021B2B2FFF7C8FFA0F54070C3
:101FB000404505D901360C2EF2D102B0BDE8F081C2
:101FC000EB6A23F00F033343EB62002CF5D0154B83
:101FD000384633F8162000231946FEF7F5FA0902B1
:101FE00041EA106163080002C01822464FF0000366
:101FF00041F10001FEF7E8FAC0F31300E860DCE706
:102000002B6823F400432B60019B002CD5D003EBFD
:102010005403B3FBF4F39BB2EB60CEE7002400441F
:10202000FFFC0F00346600082DE9F84307460D79E0
:1020300040683B69012D0E460468D3F8048000F027
:10204000A380AB1ED3F1000949EB03094FEA8929AC
:102050007179FFF74DFFB2790346022A00F09780AD
:10206000042A00F09880002D00F0A080033D012D8F
:1020700040F294804FF48050B3F5805F00F0988078
:10208000B3F5405F00F09680002B0CBF01230323C3
:10209000994240F08380494602F037FF82427DD169
:1020A000F379002B5DD0012B40F08680444B9C429D
:1020B00057D003F180539C4253D0424B9C4250D0A6
:1020C00003F180539C424CD03F4B9C4249D003F1DA
:1020D00080539C4245D03D4B9C4242D003F18053FB
:1020E0009C423ED03A4B9C423BD0B4F1502F38D06A
:1020F00003F5A0539C4234D003F180539C4230D06E
:10210000344B9C422DD003F180539C4229D0324B5A
:102110009C4226D003F180539C4222D02F4B9C42FC
:102120001FD003F180539C421BD02D4B9C4218D0F2
:1021300003F180539C4214D02A4B9C4211D003F1EE
:1021400080539C420DD0284B9C420AD003F180530F
:102150009C4206D0254B9C4203D003F180539C4205
:102160001CD12368314623F001033846236003F075
:102170005BF8236843F00103236096E8030088E8D6
:1021800003000020BDE8F8834FF4C06960E745B95B
:102190004FF0805070E7002D3FF46CAF6FF085007A
:1021A000F0E7033D012DF9D9002065E7284663E7F4
:1021B00000236DE702236BE7032B3FF477AFEDE7D6
:1021C000003801400044004000480040004C0040FE
:1021D0000050004000780040007C0040008000403B
:1021E00000680040006C004000840040002400446F
:1021F0002DE9F3410646476804697448206003F0FE
:102200000CF920B96FF0120002B0BDE8F08120682F
:10221000F96883681B6898470028F5DB0021386A55
:1022200001AA02F027FE0028EEDB019B00221979AB
:102230001868FFF70FFD0028E6DB756833692C6826
:10224000D3F80480236823F001032360686803F057
:10225000E4F80028D6D0D5E901018368DB6803B132
:10226000984754E8003F43F00C0344E80032002A4A
:10227000F7D14146304602F0D7FF2B7D1BB1A36852
:1022800043F00803A3606B7D1BB1636843F4004314
:102290006360AB7D1BB1636843F480336360EB7DA7
:1022A0001BB1636843F4003363602B7E002B74D052
:1022B000474B9C4257D003F180539C4253D0454B2F
:1022C0009C4250D003F180539C424CD0424B9C42E4
:1022D00049D003F180539C4245D0404B9C4242D0B0
:1022E00003F180539C423ED03D4B9C423BD0B4F125
:1022F000502F38D003F5A0539C4234D003F18053C3
:102300009C4230D0374B9C422DD003F180539C42ED
:1023100029D0354B9C4226D003F180539C4222D0D9
:10232000324B9C421FD003F180539C421BD0304B58
:102330009C4218D003F180539C4214D02D4B9C42F8
:1023400011D003F180539C420DD02B4B9C420AD0FC
:1023500003F180539C4206D0284B9C4203D003F1EA
:1023600080539C422ED173681A68936843F480436B
:10237000936023686A7E23F0787343EA42532360B4
:102380002368AA7E23F4F81343EA02432360EB7E1A
:102390001BB1A36843F40043A3602B7F1BB12368E8
:1023A00043F000532360236843F001032360E36993
:1023B0009A02FCD5E3695B02FCD530467B6A9847FC
:1023C000002021E76FF015001EE700BF585A0008F3
:1023D000003801400044004000480040004C0040EC
:1023E0000050004000780040007C00400080004029
:1023F00000680040006C004000840040002400445D
:102400004FF0E02310B50F499C691A6908689B6971
:102410000D4902F4803234B993B903464AB90A68C7
:102420001044C01A10BD002B08BF03460AB9A342CE
:10243000F5D90A6802440A604FF0E0221269EEE71B
:102440000446F3E7C00B0020BC0B002010220A4B0F
:10245000002083F8232046F2A812084B1A60084B8C
:1024600046F2A71218604FF0E0235A6198611A698A
:1024700042F007021A61704700ED00E0C00B002037
:10248000BC0B0020684620F007018D4619B5FFF708
:10249000B7FF1149114B0868D3E90042001942F116
:1024A0000002C3E9000200230B6046F2A8130C4AA5
:1024B000D2E90041001BB0FBF3F043431B1941F18B
:1024C0000001C2E9003100F089FFFEF7B1FCBDE870
:1024D00019408546704700BFBC0B0020B0080020A3
:1024E000A80800202DE9F041DFF8E08099B1421CF6
:1024F0000BD14FF0E022136923F0010313614FF079
:102500007F43C8F80030BDE8F081D8F800600128AA
:1025100007DC00270BE0431CD8F80060F7D140F23D
:102520009E2040F29F239842A8BF1846471EEFF313
:102530001185102383F31288BFF36F8FFFF760FFBD
:102540004FF0E023224C9969D4E9002380184FF022
:10255000000243F10003C4E900031E4B1A601E4B46
:102560001A68831A2ED446F2A81C0CFB073303F515
:10257000C3432733B3FBFCF7131A40F21A620CFB78
:102580000733934238BF1346144A934228BF134679
:102590004FF0E022C8F80030013B906953610023FE
:1025A00081429361A1EB000338BF9B19D4E900126B
:1025B0005B1842F10002C4E9003285F31188BFF3D1
:1025C0006F8FA0E740F21A63E2E700BFC00B002064
:1025D000B0080020BC0B0020A8080020B095FF0028
:1025E00038B5EFF31185102383F31288BFF36F8F93
:1025F000084B1C68084B1B68E41AFFF701FF85F3C2
:102600001188BFF36F8F46F2A8132044B0FBF3F09C
:1026100038BD00BFB0080020A8080020B8B1384B72
:102620001A6902F03002302A13D1364B98425ED933
:10263000354B98425DD9354B98425CD9344B984222
:102640005BD9344B98422ED9334B98423BD9012069
:1026500070471A6902F03002202A10D12F4B98429D
:1026600045D92F4B984244D92E4B984243D92E4BF3
:10267000984242D92D4B984215D92D4BE5E71B695D
:1026800003F03003102B10D12A4B98422FD92A4B3C
:1026900098422ED9294B98422DD9294B98422CD9B2
:1026A000284B9842D3D804200EE0274B98421ED9DD
:1026B000264B98421DD9204B98421CD9244B984256
:1026C0001BD9244BEDE70520234A136823F00F03A1
:1026D00003431360136803F00F0398420EBF0346D1
:1026E000136803F00F03C01A18BF012070470020C1
:1026F000EAE70120E8E70220E6E70320E4E700BF7D
:102700000008024480DE800200BD0105809B820734
:10271000007A030A8058840C80B2E60E80CC060250
:1027200000990D048065140600321B0880FE210A02
:1027300000C2EB0B80C3C90100879303804A5D058B
:10274000000E270780D1F008002D3101005A6202E7
:1027500000B4C40400E1F5050020024008B5144BA4
:10276000A8220021184602F026FF03221149026127
:102770004261114A8161C2614FF4806202620022AB
:1027800082624262C26201660C49034641661021C0
:1027900081660267C2664267BFF35F8F084911F81E
:1027A000010D98540132102AF9D1BFF35F8F08BD93
:1027B00010040020D869000810000020000000204C
:1027C000F1690008F8B5182700FB0775124B0E4693
:1027D0001D4407FB0033DB6A1446012B0AD0022B91
:1027E00014D023B9284602F0C0FD844208D9002441
:1027F0002046F8BD284602F0B8FD844228BF0446B2
:1028000022463146284602F0B9FDF1E72846BDE8E8
:10281000F84002F0D0BD00BF10040020F8B50B4B0B
:1028200004461B780D46532B164601D0FFF796FF42
:10283000EFF311874FF0200181F3118832462946CA
:102840002046FFF7BFFF87F31188F8BD1004002072
:1028500010B4BFF35F8F00230A4A0B49C85C12F81B
:10286000014D844209D10133102BF7D10023BFF36E
:102870005F8F23B110BCFFF771BF0123F7E710BCD6
:10288000704700BFF16900081004002038B5EFF36D
:102890001185102383F31288BFF36F8F064B9C685A
:1028A00002F0CEFD85F31188BFF36F8F2046BDE89F
:1028B0003840FEF733BC00BFC40B002038B5094BCD
:1028C00053F82040013053F82050A54200D838BDBD
:1028D000636823B1204602F0B6FD0834F5E72368AB
:1028E0009847FAE774650008012270B52A4B032067
:1028F00086B01A70FFF7E2FF00F0F0FD02F0BFFDB6
:102900000420FFF7DBFF254C254D2646AE4204F19F
:10291000300410D300F002FB204C224EAC4226D3F0
:1029200000F010FBFDF7B8FF1F4A137B23F00103F3
:10293000137306B070BD54F80C3C059354F8103C6A
:10294000049354F8143C039354F8183C029354F83D
:102950001C3C019354F8203C009354E90A2354E9A9
:102960000C0100F0D1F854F8303C5E65CDE7D4E9B5
:102970000A23B3F1FF3F08BFB2F1FF3F05D052EA8F
:102980000301206803D100F097FA3034C6E73146DE
:10299000183000F0A9FCF8E7F70D0020B05F000840
:1029A000B05F00081F5500083809002008B503482B
:1029B000034A0021121A02F05EFD08BD88050020BE
:1029C000FC0D00200023012270B586B0CDE9042360
:1029D0000F220193CDE9023214234FF4A0720E4D61
:1029E0000E4E03FB00550E4906EBC016044602FBD3
:1029F00000110C4B3046009500F086F8737B2C7468
:102A000023F010037373084B013403EBC423EE600F
:102A10006B6006B070BD00BFC40B0020B80800207A
:102A20000016002081540008000E0020BFB50020D1
:102A3000FFF744FF2C4B03F5006282F3088883F311
:102A40000A880024F023294D294E85F82230EC779E
:102A50002C766C76AC7685F820406B6A254F43F473
:102A6000E0236B62FEF72AFBFEF754FC4FF0FF33C6
:102A7000AB62EB62FEF7DAFDFEF770FC40F201128A
:102A80001D4B1E4D9A81B360C3E91844DC6602F009
:102A9000C3FCFEF77FF90120FFF710FF0220FFF7CC
:102AA0000DFF00F085FA164B75610593012315495A
:102AB0004FF48062CDE9034328463B46CDE901440B
:102AC000009400F021F806466A7B284622F01002A6
:102AD0006A7302F0F8FC2046FFF774FF3A4631466D
:102AE0002846FEF7F3FB00BF000E002000ED00E0DB
:102AF000C40B0020E9280008B8090020380900208C
:102B0000F2690008401700202DE9F043984685B08F
:102B100000F15803C0E91633109B002603731023FD
:102B2000073222F0070543730F9B01EB05090F469F
:102B300083734946C0E906668660C6730446FEF79D
:102B400057F90E9B073020F00700A066C4E91875FE
:102B500002930D9BA9EB000901930C9B4A4600933D
:102B6000394643462046FEF795FB054B66659B6854
:102B700003B1DB6E4846E36605B0BDE8F08300BFF5
:102B8000C40B002038B590F90D200146002A437B84
:102B900004DA03F07F03437302F083FC0D4D2A46F1
:102BA00052F8184FAB68944200D004B9EC689942CF
:102BB00008D05A7B12F01B0F04D1DA897F2A01D981
:102BC000A2692AB19C4202D0204600F0D3FA2346E3
:102BD0006B6138BDC40B002070B590F90D30427B9D
:102BE000002B38DB12F01B0F35D18369002B32D15B
:102BF0001C4C62F07F024273224652F8181F914229
:102C000018BF0B46E16923B9C0E900210860E06103
:102C10000CE090F90E5093F90E60B5421CD0AE4214
:102C20001ADD5968C0E9003108605860A56995420D
:102C300000D005B9E568A3685A7B12F01B0F04D1D8
:102C4000DA897F2A01D9AA6952B1AB4202D028465B
:102C500000F090FA656170BD9942D5D01B68D2E74B
:102C60006361F8E7C40B0020002A2DE9F8430CBF8C
:102C70004FF010094FF00809427B044619EA020F91
:102C80000F4621D149EA0203D2092AD14373B9F18F
:102C9000080F2CD04FF00008344E334653F8185F1D
:102CA0009D4200D005B9F568B368AB4202D0284612
:102CB00000F060FAB9F1100F756144D1BFF35F8F76
:102CC000637B23F060036373284B9B689C4247D16E
:102CD000EFF30583002B43D13846BDE8F843FEF7F8
:102CE00033BA03F07F03437302F0DBFBCFE7A36843
:102CF00013B1204602F0DDFB04F1180002F035FCB0
:102D0000A56D04F15806AE4211D04FF0000875B120
:102D1000284602F0CEFB05F1180002F026FC2846FA
:102D2000C5F87880FFF758FFA56DAE42EFD10F4B85
:102D30009B689C42AED1EFF30588B8F1000818BF3C
:102D40004FF00108A8E7B8F1000FB7D040F2011228
:102D5000074B9A810022B360C3E91822DA66ADE717
:102D600087F31188BFF36F8FBDE8F883C40B002091
:102D7000B809002070B590F90D200146002A437B68
:102D800004DA03F07F03437302F08BFB1D4C4B7B93
:102D9000224663F07F034B7352F8183FE069934279
:102DA00008BF002323B9C1E900200160E1610CE004
:102DB00091F90E5093F90E60B5421FD0AE421DDD61
:102DC0005868C1E9003001605960A569A36895425F
:102DD00000D005B9E568994208D05A7B12F01B0F64
:102DE00004D1DA897F2A01D9AA692AB19D4202D089
:102DF000284600F0BFF92B46636170BD9842D2D0DF
:102E00001B68CFE7C40B002070B5214D0446AA68AB
:102E1000824224D1EFF305830BBBEFF3118610231D
:102E200083F31288BFF36F8F537B03F07F0343F06C
:102E30001003537302F035FB2B4653F8184F9C4296
:102E400000D004B9EC68AB689C4202D0204600F088
:102E500091F96C613046BDE87040FEF775B904F138
:102E6000180002F082FBEFF31181102383F3128824
:102E7000BFF36F8F627B1A4004D081F31188BFF3D8
:102E80006F8F70BD2046BDE87040FFF7EDBE00BFFC
:102E9000C40B002049B9EFF3058030B9054B5A69DE
:102EA0009B689A4201D0FEF74FB981F31188BFF3B6
:102EB0006F8F7047C40B002010B5EFF31184102200
:102EC00082F31288BFF36F8F427BD10604D484F360
:102ED0001188BFF36F8F10BD22F010024273FFF70D
:102EE0007BFE2146BDE810400148FFF7D3BF00BF7D
:102EF000F80D0020034648B9EFF3058232B9064ABF
:102F000051699268914201D0FEF71EB983F311888E
:102F1000BFF36F8F704700BFC40B0020EFF3118128
:102F2000102383F31288BFF36F8F054B9A68D37B0E
:102F3000013BD37381F31188BFF36F8F704700BFDC
:102F4000C40B002070B5EFF31186102383F31288B1
:102F5000BFF36F8F154DAB68DA7B0132DA732A4607
:102F600052F8184F944200D004B9EC685A7B12F022
:102F70001B0F04D1DA897F2A01D9A2692AB19C42A8
:102F800002D0204600F0F6F823466B6186F31188E4
:102F9000BFF36F8FEFF31180102383F31288BFF319
:102FA0006F8FBDE87040FFF7A5BF00BFC40B0020C6
:102FB000024B03F11802C3E906227047C40B00203C
:102FC000F8B5EFF31186102383F31288BFF36F8FE8
:102FD0001D4C2146A068437B03F07F03437302F03E
:102FE00060FAA3685A7B62F07F025A7351F8182F77
:102FF000E0698A4208BF002222B9C3E900100360D9
:10300000E3610CE093F90E5092F90E70BD4217D0B7
:10301000AF4215DD5068C3E9002003605360A56925
:103020008D4200D005B9E568A3689D4202D02846CC
:1030300000F0A0F865613046BDE8F840FEF784B8BE
:103040008242DAD01268D7E7C40B002050EA0103AD
:103050002DE9F04105460E4604D1FFF7B1FF0020EF
:10306000BDE8F081831C71F1FF3324DB02F092FA9A
:103070004419EFF31188102383F31288BFF36F8F85
:103080000F4F104BB8681860FFF77CFDB8680E4909
:103090002A463346183000F027F9BA684046537B79
:1030A00043F010035373FEF74FF802F073FA201A3F
:1030B00020EAE070D4E76FF00104241AD9E700BFDA
:1030C000C40B0020E40B00201F550008B1F1FF3FA6
:1030D00008BFB0F1FF3F08B506D10A4B9868FFF76B
:1030E00093FE4FF0FF3008BDFFF7B0FFC117093066
:1030F0004FF00A024FF0000341F10001FDF764FABE
:10310000F1E700BFC40B0020014B9868704700BF77
:10311000C40B00200122044BC01A044BC0105843BA
:10312000034B1A54704700BF380A0020ABAAAAAA62
:10313000F80D0020C3897F2B13D80B4B1B686BB194
:103140000A4B90F90E201B689A420ADB437B13F06E
:103150001B0F06D1064BC31A18BF012303F0010051
:1031600070470023FAE700BFEC0B0020E80B0020BB
:10317000B808002070B50E4B0E4C1E7C054606EBC1
:10318000460304EBC304204602F0EFF900220A4B89
:1031900028469A55FFF7CEFF48B1084B2046BDE8B8
:1031A00070401A680649013AD31700F09DB870BD07
:1031B000C40B0020380A0020F80D0020EC0B002082
:1031C0001531000838B5EFF31185102383F3128809
:1031D000BFF36F8F104B114A9C681068A04206D154
:1031E000FFF7C8FF85F31188BFF36F8F38BD00214B
:1031F0001B7C11600A4AD35C002BF3D02046FFF7FA
:1032000099FF0028EED0637B13F01B0F02D12046FC
:10321000FFF7B0FD2046E3E7C40B0020E40B0020DD
:10322000F80D0020074808B5074A0849121A02F0AD
:1032300024F9BDE808400648064A0749121A02F078
:103240001CB900BFC0040020840500204C6A00089F
:10325000B8040020C0040020446A0008034B1B6827
:103260000BB9FFF7BDB90020704700BFF00B00207D
:1032700030B570B10B4B5B6898420AD0036843B11C
:10328000D3E90421D0E90445121941EB0501C3E952
:103290000421D0E9003213605A600023C0E90033F2
:1032A00030BD00BF3C05002010B50E4B1C689C4291
:1032B00004D1FFF7D3FF6FF0004010BDFFF7CEFF42
:1032C000002CF8D0D4E904321B1A62EBE072B3F19F
:1032D000004F72F10001EEDA002AACBF1846002060
:1032E000EBE700BF3C050020B3F1FF3F08BFB2F1A0
:1032F000FF3FF8B504461D4616465ED08160EFF3E9
:103300001187102383F31288BFF36F8F013275F199
:10331000FF3324DA6FF001032D49D1E900209B1A15
:103320004FF0FF3262EB00009E1B60EB0500012EA8
:1033300070F1000301DA01260020C4E90460254E83
:10334000D6F800C07568B44508BF4FF0000CBCF15A
:10335000000F0DD1C4E900652C6074601CE0FFF71C
:103360007DFF013645F10005361845EBE070E4E7D6
:10337000DCE90420D4E90431934271EB000E1DDA3C
:10338000D21ADCF8043060EB0100CCE90420C4E977
:1033900000C31C60CCF804403368B34209D09C429F
:1033A00007D10D4B1C6824B9FFF77EFF2146FFF7BC
:1033B00099F887F31188BFF36F8FF8BD9B1A61EB03
:1033C0000001AC45C4E90431C4D0DCF800C0BEE75C
:1033D000500A00203C050020F00B00202DE9F84F9A
:1033E000EFF3118C102383F31288BFF36F8FDFF894
:1033F000B0A0DFF8B0900024C9F80000DAF80000AF
:103400000025504508BF0020274FE046D7E900219E
:10341000D9F8003078B3D0E9046C4FEAE37EB342C8
:103420007EEB0C0B05DAF61A6CEB0E04C0E90464B3
:1034300021E0B21841EBE671C0E90445C7E900217B
:10344000FFF716FF88F31188BFF36F8F83689847E3
:10345000EFF31188102383F31288BFF36F8FD9F82D
:103460000030DAF800009B1B5045C446C9F8003014
:10347000CBD1D7E9002100249A1841EBE373C7E9C7
:103480000023C9F80040FFF70FFF2146FFF72AF895
:1034900088F31188BFF36F8FBDE8F84FFFF792BE36
:1034A0003C050020F00B0020500A002010B5EFF37F
:1034B0001184102383F31288BFF36F8FFFF7CEFEC2
:1034C0000346054AD2E90001181841EBE37184F381
:1034D0001188BFF36F8F10BD500A0020014801F022
:1034E000EBB900BFF76900080CB430B589B00546E8
:1034F0000C461C22002101A802F05DF8022305956C
:103500008DF806300D4B029323462CB1B4F1004FD9
:1035100028BF4FF00043013B1D440DAA0C9901A8A0
:103520000695009200F0A6F814B1059B00221A70CF
:1035300009B0BDE8304002B0704700BF8D590008A7
:103540002DE9F04101260746B24201DCBDE8F081D9
:103550003B461F4613F8014B002CF7D0252CF8D121
:103560001C780237252CF3D00023DFF804819C4619
:103570001D461F2D18D8A4F1200EBEF1100F09D939
:10358000A4F1300EBEF1090F1ED80A24202504FB39
:1035900003E304E028FA0EFE1EF0010F06D017F830
:1035A000014B002CE5D128E07F2D1CD8A4F1300E72
:1035B000BEF1090FE9D9242C10D1BCF1000F46D07F
:1035C000B34246D00023EAE724F0040EBEF12A0FEE
:1035D000F8D06C2C09D145F08005E0E724F0040E0A
:1035E000BEF12A0FEED06C2C22D06C2C1BD8682C8C
:1035F00023D06A2C28D04C2C26D0BCF1000FA5D0AB
:10360000B445A1D144F020070B68A7F1650CBCF1CB
:10361000020F01D9612F1ED1073323F007030833AE
:1036200001360B608FE7742CB9D07A2CB7D0E4E761
:103630002C0648BF45F40075CDE7EC0548BF45F4BE
:10364000007545F48075AAE745F42075A7E79C4608
:10365000B8E76324D6E7692C02D007D8632C03D0DF
:103660002F0601D5AC05D7D40433D9E7732CF6E780
:10367000892801002DE9F04F436895B080460393F7
:1036800083789807CDE9081216D50B4600250D92D0
:103690001F789FB1252F15D0013307934146384637
:1036A000039B01359847002880F22C8498F802305B
:1036B00043F0040388F802304FF0FF35284615B078
:1036C000BDE8F08F5F789A1C252F0792E6D0002482
:1036D0002646A246A346BBF11F0F32D8A7F120030E
:1036E000102B0AD8DFE803F02409092A0909091B6D
:1036F00009090922092709091900A7F13003092B33
:103700002DD92A2F39D154B90D9B1BF0400F53F8F6
:10371000042B0D9329D0164601E04BF0010B079BBB
:1037200013F8017B0793002FD5D15BE04BF0020B20
:103730004BF0040BF3E74BF0080BF0E74BF0100BEA
:10374000EDE7BBF17F0F3FD8A7F13003092BD8D8A5
:103750001BF0400F03D00A2202FB0636DFE70A22E5
:1037600002FB0A3A4BF0200BD9E7B2F1000AF9DA72
:10377000CAF1000A4BF0280BD1E72E2F05D11BF020
:10378000400F9BD14BF0400BC9E7242F1CD1002CDC
:1037900000F03F81099B1BF0400F0D930AD1524668
:1037A0000DA90898FFF7CCFE0D9B1A1DD3F800A0B9
:1037B0000D92B4E732460DA90898FFF7C1FE0D9BA4
:1037C0001A1D1E680D92AAE76C2F00F00F8100F2FF
:1037D0000681682F00F012816A2F00F017814C2FAC
:1037E00000F0148134B1099B22460DA908980D936D
:1037F000FFF7A6FE002E47F02009B8BF2BF0400BC4
:10380000A9F16503BCBF00261FFA8BFB022B40F217
:103810000581B9F1610F40F05B82FF431BF0400F5F
:103820004BF4C05407F0200308BF4FF0FF36069357
:103830000D9B073323F0070303F10802D3E90001CE
:10384000069B0D920EAA0093334602F009F8013050
:10385000C3B2B342049301DB049B5E1E01230E9F9F
:10386000A3464FF07009059307F10903122B0DD9F8
:1038700007F16303C62B40F20C8107F2E73340F2F5
:10388000CE72934294BF0323042305939DF83C20FA
:1038900002F00C0312F0010240F016811BF0020F3F
:1038A00040F00F811BF0040400F0F580002B40F085
:1038B0000E8120231BF4405F20D1049A002E02F1D8
:1038C000500208BF01266A44133A049921B112F844
:1038D000011D302900F030811BF0100F049A18BF31
:1038E0003246391DC0F22D81B74280F22A81BA4298
:1038F0004BF4005B40F327817E1C961B1BF40052A7
:103900000A9200F0228127EAE774013403B10134FE
:10391000002E00F02281721C1444A245CCBFAAEBF9
:10392000040400241BF0090F04D12C44A54240F0EC
:10393000198100243BB118464146039B0135984745
:103940000028FFF6B3AE1BF4006F12D041463020C2
:10395000039B98470028FFF6A9AE069B4146023517
:10396000C3F17800039B00F0F80098470028FFF6A9
:103970009DAE1BF0080F05D12C44AC4240F0FE80F8
:10398000254600240A9B002B00F0178127EAE77ADE
:103990007642A7EB0A07049B0AF1FF3A05F10109F9
:1039A0004146BB4289BF0EAB3020FB1858795645C3
:1039B000039B00F3EC809847002807F10107FFF60E
:1039C00075AEBAF1FF3F08D141462E20039B9847C0
:1039D0000028FFF66BAE05F102094D46DBE7742FB8
:1039E0003FF49DAE7A2F3FF49AAEFBE61BF0800FBA
:1039F00018BF4BF4007B4BF0800B90E61BF4807FEC
:103A000018BF4BF4007B4BF4807B88E64BF4207BA3
:103A100085E626465446B346B24680E6FF431BF091
:103A2000400F07F0200308BF0626B9F1650F069383
:103A30000D9B03F1070323F0070303F10802D3E909
:103A400000010D9213D1731C00224BF4805BDBB29A
:103A50001446112BCDE9002428BF11230EAA00F033
:103A6000F1FA0E9FC3B2049302230593FCE6B9F169
:103A7000660F05D14BF4005B344601221123E8E7C1
:103A8000F3B200224FF06509012B144638BF012321
:103A9000DFE70223F9E6002B3FF40CAFBAF1030F86
:103AA00039DC9DF83C30A14E13F0080FA04B08BF45
:103AB0001E463746B94617F8010BA0BBAE1BB144F2
:103AC00078E023BB2B23F5E61BBB2D23F2E6202257
:103AD000BAF1040F12DD1BF0080FAAF104040ED195
:103AE0002C4441462020039B01350492984700282E
:103AF000FFF6DCADA542049AF3D192B10024414611
:103B00001046039B013598470028CADACEE52B22E0
:103B1000DEE72D22DCE71BF0080FAAF10304C0D179
:103B2000DEE71446BDE7069B4146C01A039BC0B2C0
:103B300098470028BEDAB9E504990139C9B2049161
:103B4000C3E6561EDAE60026D8E61BF4006F059A97
:103B50000CBF032405241444D8E61BF0100F18BF33
:103B60000134DAE60B934146039B20209847002856
:103B700005F101050B9BBFF6D9AE97E54146302014
:103B8000039B013598470028BFF6F7AE8EE59847AE
:103B90000028FFF68BAD1BF0100F0BD0BAF1FF3FE2
:103BA00008D105F1020941462E20039B98470028C1
:103BB000FFF67CAD4D464C442BE241469DF83D005E
:103BC000039B98470028FFF671AD002E65DD414646
:103BD0002E20039B98470028FFF668AD4FF0010A9E
:103BE000049B4146D3469A45B7BF0EAB30205344A1
:103BF0005879039B98470028FFF658AD0AF1010A4F
:103C00005645EDDA02355D44069B4146A9EB0300BB
:103C1000039BC0B298470028FFF648AD002F4146ED
:103C2000039BB6BF2D202B207F4298470028FFF62C
:103C30003DAD059B042B3DD14FF47A794146039B62
:103C40000335B7FBF9F606F13000C0B298470028FB
:103C5000FFF62CAD09FB16774FF064094146039B34
:103C60000135B7FBF9F606F13000C0B298470028DD
:103C7000FFF61CAD09FB16774FF00A094146039B7E
:103C80000135B7FBF9F606F13000C0B298470028BD
:103C9000FFF60CAD09FB167713E01BF0100F01D1F6
:103CA0000135B1E741462E20039B02359847002895
:103CB000AADAFBE4059B0235032BCDD0059B012B33
:103CC000DAD107F1300005F101094146C0B26CE7D5
:103CD000A7F16303122B00F2FE80DFE813F013005C
:103CE0005600FC00FC00FC00FC005600FC00FC0040
:103CF000FC00FC00FC001601F700FC00FC002B009F
:103D0000FC00B8000D9B01240EAF1A1D1B680D921C
:103D10008DF838301BF0080F2DD03E19B946B1454B
:103D20002BD1EF1BB944AAEB040443E7366A000821
:103D3000326A00080D9B1A1D0D921F68AB4B002FB5
:103D400008BF1F461BF0400F384614BF31464FF0E6
:103D5000FF3101F048FC0446DCE741462020039B8C
:103D600098470028FFF6A2AC013EB442F5D3554473
:103D7000B246AD1BD1E75646F7E7414619F8010BAD
:103D8000039B98470028CADA90E41BF0800F0D9B34
:103D900035D01BF4007F2DD0073323F0070303F148
:103DA0000802D3E900010D922BF0100900291FFA37
:103DB00089F936DA404249F4806961EB41010DF13D
:103DC000380B0A235A4601F030FC19F0400FA0EBE3
:103DD0000B0B65D029F001025E4592B240F3B28030
:103DE000002F00F0A98019F010033446914626D028
:103DF00002345CE01A1D18680D92C117D4E71A1D31
:103E00001BF4807F19680D9201D10846F5E71BF479
:103E1000007F19BF48B241F3C01108B241F3C0316D
:103E2000C2E750EA0103CAD11BF0400FC7D0002EF1
:103E3000C5D12BF0110B34461FFA8BF9B34640F273
:103E4000064319EA03031CBF013400232FE02BF0C3
:103E5000100B0A231FFA8BFB1BF080040D9A57D01E
:103E60001BF4007115BF0732101D22F007020D90E0
:103E70000FBF106802F108010D91D2E9000150EA6C
:103E8000010252D12BF016091BF0400F1FFA89F9DD
:103E90004FD0002E4DD12BF0170B1FFA8BF9B346E4
:103EA00019F0100352D0002F4ED10BF1010419F07C
:103EB000080F5ED119F0010F06D0A2456EDDAAEB06
:103EC000040404EB0B06544622464DE04BF0100B65
:103ED00010237827C0E7B9F1780F04D1C7F1780330
:103EE00043F01003B8E741462520039B984700287C
:103EF000FFF6DCAB41463846039B98470028FFF6A7
:103F0000D5AB0235079BFFF7C3BB08230027A3E708
:103F1000111D10680D911BF48071B0D01BF400715D
:103F20001ABFC0B2214680B2A9E72BF0060B1FFAD8
:103F30008BF90DF1380B45E729F0110934461FFACA
:103F400089F97CE79146ABE75C4651E75C4676E74A
:103F5000CDE9042341462020039B98470028FFF623
:103F6000A5AB049A059B01329245F1DC2C1BA518E8
:103F70001446F3B141463020039B98470028FFF6D2
:103F800095AB6FB90135A9462E44A6EB09035B45F5
:103F900021DC5D460EAE5DBBD944C4E65E4693E7C8
:103FA000023541463846039B98470028EBDAFFF775
:103FB0007DBB40F2064319EA030FE4D019F0020F6B
:103FC00005F10105414614BF2B20202019F4806F14
:103FD00018BF2D20E7E741463020039B09F1010976
:103FE00098470028D1DAFFF761BB00BF3A6A0008A2
:103FF000013D4146039B705D98470028CBDAFFF7EF
:1040000055BB41462020039B013598470028FFF609
:104010004DAB631B002BF4DC74E700BF1FB502AB94
:10402000074A00934FF0CC3301F0E0FBDDE90201D9
:10403000C00840EA4170C90805B05DF804FB00BF44
:10404000CDCCCCCC2DE9F04F9BB0044605920A466E
:104050000A93C2F30A559DF89030D20F0B93C1F327
:1040600013030992090D7DB950EA03021CD1059A88
:10407000302301265371099B156043F0020313712D
:1040800030461BB0BDE8F08F40F2FF7295424BD135
:104090000343099B059A4FF0000614BF43F0080341
:1040A00043F004031371EBE700F001024FEA8308C9
:1040B00087009A460892012248EA9078AA4D16464F
:1040C000C5F1000B0692584600F016FAB5F1FF3F15
:1040D000ACBF8146A0F10109ABEB090B09EB05036D
:1040E0005846049300F00EFA16A9A0F17D05584633
:1040F00000F028FA12AB069AA9EB0505019310AB64
:1041000020460292009316AA2B46514601F0B4FABB
:10411000B9F1010F04460D4600F2D280089B002B36
:1041200040F0C58001276BE043F4801A00F00102E3
:104130000343A5F235454FEA8A0808924FEA800703
:1041400048EA907849D140F2FE7319420CBF01262B
:104150000026002D3246B3DB284600F0C7F9032DB8
:10416000C8BF0138049000F0CDF9049B7C3016A93B
:104170005D1B0544184600F057FA12AB204616AAFC
:10418000019310AB5146029600932B4601F074FA4E
:10419000049B04460D46152B00F2868014AB734A2F
:1041A0003846414600934FF0CC3301F01FFB149B7F
:1041B000159A9B0843EA827303EB8303BB42DDE954
:1041C000109A0CD13846414600F0A4F9049B834272
:1041D0008CBF00270127002612E00126B9E7089BC3
:1041E000002B51D1013F48F1FF31B81B61F10001B3
:1041F00000F090F9049B089F83428CBF00260126A3
:104200000B9B002B40F09180DDF828B04FF00008A8
:104210004FF00A0ACDE90688DDE91001FFF7FEFE3E
:10422000129BCDE90C01184613990E93FFF7F6FE89
:104230000C9B81460D9A98420B460F91934180F05A
:104240008E8020462946FFF7E9FE0AFB09F30E9A05
:10425000B8F1000F14BF002707F001070AFB104850
:104260000D46934214BF002606F001060C9B5FFA30
:1042700088F8044610930D9BCDE911390F9B1393D9
:10428000079B01330793C7E7B81C48F1000100F012
:1042900041F9049B83428CBF00200120B9EB000050
:1042A0006AF10002CDE9100200273E46A8E7109B04
:1042B0000127119A013B42F1FF32CDE910328AE722
:1042C000B9F13E0FF0D84FF0FF33A9F12000C9F14A
:1042D000200103FA09F203FA00F023FA01F103FACC
:1042E00009F3024327EA03070A4328EA020857EAC8
:1042F00008070CBF012700276DE700FB02FC013314
:10430000A1FB001262448C4275EB020CF5D2049AB8
:10431000DDF828B01344259A1344D20F9342B8BF56
:1043200013469B45A8BF9B4670E70A210022012344
:104330000846E8E70AFB03F00131A2FB0A23034425
:10434000944275EB0300F5D2594511DDBBF1000F26
:1043500002D154EA05030BD00123069371E70A2228
:1043600000230121ECE700BFCCFBFFFFCDCCCCCC80
:10437000002E2FD04FF00A0A129B139918460D9366
:10438000FFF74CFE0D9B0AFB00F281460C919A420E
:1043900020D1B8F1000F14BF002707F00107DDE9B5
:1043A0001001FFF73BFE0E900D9120462946FFF7C6
:1043B00035FE0D9B0AFB10480E9A04460D465FFA27
:1043C00088F81092CDE911390C9B1393079B0133A8
:1043D0000793D1E7DDF81090079B9944002F5DD03B
:1043E000B8F1050F5AD114F001034DD1069A32B934
:1043F000DDE912239D4208BF944262D0069B181942
:104400004FF00A044FF000024FF0010645F10001A1
:104410002546A04271EB020756D2F3B1B3451CDA30
:104420000B9B6BB106EB0903259ADDF828B013440A
:10443000012BB8BF01239B45A8BF9B465E450CDD01
:10444000053009F1010906F1FF364FF00A024FF07D
:10445000000341F10001FCF7B7F85E450FFA89F956
:10446000059BA8BF5E4636B2B14406F1050809F1C6
:10447000FF3798444FF00009B1452CDB059B1A46E5
:104480001F60099B1371FBE5069B2BB9DDE9122325
:104490009D4208BF944209D00123B0E7069B53B95F
:1044A000DDE912239D4208BF944204D1089B002BF2
:1044B000F2D1002EF0D0B8F1040F94BF00230123F5
:1044C0009DE74FF00408F1E705FB02F70136A4FB76
:1044D00005423A449DE70A220023FCF775F8303282
:1044E00009F1010908F8012DC6E700BF014B584347
:1044F000800C704741340100014B5843000D704758
:10450000FB2E0B00024B5843C00C0130704700BF1C
:104510004F93120070B50346094A00204FF0CC3685
:104520004FF0333506FB03F402FB0144A3FB0231D9
:1045300021449D4275EB010401D30130F2E770BDC7
:10454000CDCCCCCC1A232DE9F04FB0FBF3FA334E8F
:1045500003FB1A0389B004460D4606EB0A1653B94D
:10456000D6E90023C1E90023D6E90201C5E9020129
:1045700009B0BDE8F08F2A4A02EBC303D3E90089F2
:1045800004AB404649460093D6E9022301F02EF9D8
:1045900006AB83460F46404649460093D6E90023C2
:1045A00001F024F900238146DDE9066216EB0B06D3
:1045B00052EB070828BF012333B1049B059A01334E
:1045C00042F10002CDE9043220460391FFF79AFF41
:1045D00007461A2000FB0AF0FFF794FF3F1A324605
:1045E000434648460399009701F01BF90D4A4FEAEC
:1045F000141C640004F01E0352F82C40DC4004F04C
:1046000003042418304641F10001DDE90423C5E923
:1046100000414146009701F004F9A7E72061000836
:10462000506000088C6500082DE9F04F1A2700F152
:104630001905DFF8E0A089B004460E46B5FBF7F592
:104640006F434FEA051B0AEB05153A1A0AD1D5E963
:104650000023C1E90023D5E90201C6E9020109B03E
:10466000BDE8F08F2C4B03EBC203D3E9008904AB08
:10467000404649460093D5E9022301F0B7F85AF8BD
:104680000B206B68013ACDE9020106A963F1000332
:1046900040460091494601F0A9F88A460299002354
:1046A0008146DDE906526D18039952EB010828BFD7
:1046B000012333B1049B059A013342F10002CDE995
:1046C00004323846FFF71EFF07462046FFF71AFF61
:1046D0003F1A2A46434648465146009701F0A1F842
:1046E0000E4A4FEA141C640004F01E0352F82C40DA
:1046F000DC4004F0030401342418284641F1000191
:10470000DDE90423C6E900414146009701F089F83C
:10471000A3E700BFF061000850600008E0650008F2
:10472000704783689B6A03B1184770470346F0B42B
:1047300019790068DB8801250669DA07346854BFF7
:1047400043F4D01383F4B0138D4023F48012DB07BD
:1047500087684CBF2C43AC4334603B68F0BC1847BF
:104760000A2180FB0101FEF7B1BC012303FA01F12C
:1047700003691B68194218BF82F0010212B18368F5
:10478000DB68184783681B69FBE70346F0B41979B7
:104790000068DB8801250669DA07346854BF43F4F2
:1047A000D01383F4B0138D4023F48012DB078768A5
:1047B0004CBF2C43AC4334603B68F0BC184770B529
:1047C00004464D1E15F8011F31B9A3682046BDE807
:1047D00070400D215B681847A36820465B689847C6
:1047E000F0E700EBC100408840087047F8B5034689
:1047F000FFF7F7FFB0FA80F0C0F11F0003EB800C69
:10480000DCF81060CA00171D0C4606328DB256B98E
:10481000012101FA00F0D9680143D960CCF81040B9
:10482000DD539D52F8BDF1000431585AD85303EBC3
:10483000C0009E52C5805D52F4E7043A2DE9F04174
:10484000CC1D114424F0070421F007010E1BF708CA
:10485000B7FA87F24FF00008C2F12405AD00073522
:10486000C2F12002ED0804604146A760C4F80C8044
:10487000920004F1100000F09EFE6B0043F0010373
:1048800063807B1B04EBC5025900A4F800805180B3
:10489000A21924F83550A2F80280A35304EBC703F1
:1048A0005A88294642F001025A802046BDE8F0416C
:1048B000FFF79CBF002070470FB407B504A951F85B
:1048C000040B0191FCF71AFA03B05DF804EB04B095
:1048D00070477047012801D1EFF30583FDF7D6BF7C
:1048E00001460068FFF7F6BF00210120FFF7F2BF85
:1048F000036E83F30B88704761B662B680F311884C
:10490000BFF36F8F704772B6002383F31188BFF334
:104910006F8FBFF34F8F30BF62B6BFF36F8F70479B
:1049200040E800F313F4803FD8B208BF6FF01500E1
:10493000704730B50C684B6885B00A894D89009482
:10494000013B24F01F04234402F01F0242EA4512F7
:1049500023F01F0369468DF808200393FCF734FD0C
:1049600005B030BD08B5FCF7EFFE002008BD002003
:1049700008B50B21FCF736FF024601460B20FCF779
:104980004FFC00220C210120FCF72CFF11460C20CB
:10499000FCF746FC00220D210220FCF723FF114604
:1049A0000D20FCF73DFC00220E210320FCF71AFF2E
:1049B00011460E20FCF734FC00220F210420FCF7E6
:1049C00011FF11460F20FCF72BFC002210210520BF
:1049D000FCF708FF11461020FCF722FC00221121F1
:1049E0000620FCF7FFFE11461120FCF719FC0022FF
:1049F00012210720FCF7F6FE11461220FCF710FCEE
:104A0000002213210820FCF7EDFE11461320FCF7CD
:104A100007FC002214210920FCF7E4FE11461420B3
:104A2000FCF7FEFB002215210A20FCF7DBFE1146F5
:104A30001520FCF7F5FB002216210B20FCF7D2FE17
:104A400011461620FCF7ECFB002217210C20FCF786
:104A5000C9FE11461720FCF7E3FB002218210D20A8
:104A6000FCF7C0FE11461820FCF7DAFB00221921E2
:104A70000E20FCF7B7FE11461920FCF7D1FB0022EF
:104A80001A210F20FCF7AEFE11461A20FCF7C8FBD6
:104A9000002008BD01208840704710B50F24C200D7
:104AA00000F00C0000F1884000F50830036E02F0C1
:104AB0001802944023EA040391400B43036610BD9F
:104AC0000B6882B0A3F18802202A12D803F1884330
:104AD00003F503331A684868024300201A600B6824
:104AE00003F1884303F503331B680193019B02B074
:104AF00070476FF08500FAE70B68A3F18802202A5F
:104B00009FBF03F1884303F503331A6849689BBFCD
:104B100000208A436FF085001A6070470E2809D87C
:104B200047F61A73C34013F0010F14BF00206FF053
:104B3000850070476FF08500704708B50868FFF77B
:104B4000EDFF00280EDB4968CBB203F1884303F583
:104B500003331868C1F30242C1F304218A400243BF
:104B600000201A6008BD436800205B681B690B6069
:104B7000704743685B68586942400A4042405A6146
:104B800000207047436800205B6899617047436864
:104B900000205B6899627047436800205A68536937
:104BA0004B405361704710B503699868F8B188426B
:104BB00019D1DC680868A142986000D1D860002053
:104BC00008602AB19A680A60DA68996002B9D96007
:104BD000002010E0814206D108682060D868814238
:104BE000EDD1DC60EBE7044600680028F2D1002A32
:104BF000E8D16FF0150010BDF0B54468012067687A
:104C000088401E46C2F3801327EA00078B403B43CF
:104C100090FAA0F7B7FA87F74FF0030E6360D4F865
:104C200008C07F000EFA07F72CEA070C90FAA0F7ED
:104C3000B7FA87F7C2F3C1137F00BB4043EA0C0306
:104C4000A36090FAA0F3B3FA83F3E7685B000EFA6F
:104C500003F327EA030790FAA0F3B3FA83F302F011
:104C600030055B00C2F341229A403A43202DE260B6
:104C700016D107292BD890FAA0F3226A2BB3B3FAE6
:104C800083F30F219B0001FA03F322EA030290FA57
:104C9000A0F3B3FA83F39B0006FA03F313432362F2
:104CA00090FAA0F3B3FA83F390FAA0F00321B0FADC
:104CB00080F022685B002D0901FA03F3400022EA2C
:104CC000030385401D432560F0BD2B46D9E7030A49
:104CD000616A93FAA3F282B1B2FA82F293FAA3F371
:104CE0000F27B3FA83F3920007FA02F29B0021EA3E
:104CF00002029E4016436662D2E72A46EEE7F8B506
:104D000012F4003C0C461346066927D091071ED5C5
:104D10005A0740F181805022DF0603F4403518D550
:104D200042F4007225B1316921FA04F7FF0746D534
:104D30001F03416869D501234968A3408B610023A3
:104D400021464068FFF758FF002D4CD114E0102297
:104D5000E2E79906E6D542F48062E3E7D70302F47E
:104D6000403520D5DA0612D5002D46D12B464FF41A
:104D700000724068FFF740FF336923FA04F2D2075C
:104D800031D50122A24023EA020333612BE013F064
:104D9000200704D04DBB2B464FF48062E9E7B5B93C
:104DA0002B462A46E5E715B92B463022E1E7316963
:104DB00021FA04F212F0010F4FF030020ED1012758
:104DC000A74039433161BCF1000FB1D106E0316930
:104DD00021FA04F212F00102F1D03A4600232146F2
:104DE0004068FFF709FF0020F8BD316921FA04F29D
:104DF00012F0010F4FF48062E0E7316921FA04F20A
:104E000012F0010F4FF40072D8E75F0341BF012396
:104E10004968A3408B6292E76FF08500E4E770B5C4
:104E20000B468968054611B15E680C6801B970BD12
:104E30008A682A4002D030464B6898471CB12368E4
:104E400021461C46F2E72346FAE7F8B51F4604461A
:104E500040680E461546FFF7CFFE112F08D10123FB
:104E600003FA06F663682A055B684CBF9E619E6282
:104E70000020F8BD30B5036813600579046804EBC1
:104E8000C504A34202D36FF0010030BD5C798C42AF
:104E900001D00833F0E70020F7E74368C1F34B1077
:104EA0001B6801F01F01C05801238B40034214BF4F
:104EB0000123002300201370704710B54368C1F32D
:104EC0004B101A680123845801F01F018B402343C3
:104ED0008350002010BD012210B54368C1F34B146C
:104EE000186801F01F0123588A4023EA0203235067
:104EF000002010BD38B504460D46FFF7DEFF2946F9
:104F00002046FFF7E8FF002038BDB0F5805F07D0EE
:104F1000B0F1805F09D1002914BF01200220704741
:104F2000002914BF032004207047002914BF022069
:104F30000320704743681B68D869DA69C0F3C00072
:104F4000D107DA6948BF40F002009207DA6948BF2A
:104F500040F004005107DA6948BF40F02000D20554
:104F600042BF4FF4807240F008001A62C10744BF8C
:104F700008221A62820744BF01221A62410744BF15
:104F800002221A62820644BF04221A6270474368F2
:104F90001A6852E8003F43F0400342E8003100291C
:104FA000F7D1704743681A6852E8003F23F0400386
:104FB00042E800310029F7D1704743681A6852E887
:104FC000003F43F0200342E800310029F7D1704749
:104FD00043681A6852E8003F23F0200342E800319A
:104FE0000029F7D1704743681B68D869C0F34010A7
:104FF0007047012070470369C3E9021270470269D4
:1050000093680BB1D16818477047002208B53C205F
:105010001146FCF705F9BDE808403C20FCF7F2B862
:10502000002208B53F201146FCF7FAF8BDE8084019
:105030003F20FCF7E7B8002208B53D201146FCF7F9
:10504000EFF8BDE808403D20FCF7DCB8002208B5C9
:1050500055201146FCF7E4F8BDE808405520FCF760
:10506000D1B843681B68D869C0F3801070474368A3
:105070001B68D86910F080001CBF1868C0F380104E
:10508000704710B50269044652680B4612680A6000
:1050900042681268126802F4C062B2F5806F33D0C1
:1050A000A2F5C060424242411A71626812685268B9
:1050B00002F44052B2F5805F28D0B2F5405F27D0AD
:1050C000002A0CBF012203225A716268126810681C
:1050D000116800F0102001F4C061FFF716FF98710D
:1050E000626800201268926802F44072A2F5407172
:1050F0004A424A41DA7161680968896811F4804F4F
:1051000018BF0322DA7110BD0222CDE70022DBE7CF
:105110000222D9E738B543680C461B68186819683D
:1051200000F0102001F4C061FFF7EFFE04281AD050
:10513000D86910F0800015D0EFF31181102080F3B2
:105140001288BFF36F8F0020151A002D06DDDD6970
:105150002D0603D5255C01309D62F5E781F31188AA
:10516000BFF36F8F38BD6FF08500FBE710B5436864
:1051700010201B68DA691206FCD5EFF3118280F368
:105180001288BFF36F8FDC69240604D482F3118880
:10519000BFF36F8FEEE7996282F31188BFF36F8FD1
:1051A00010BD43681B68DA69910602D51A68920639
:1051B00007D4D86910F0400004D01868C0F38010FC
:1051C00070470120704738B543680C461B68186863
:1051D000196800F0102001F4C061FFF796FE042862
:1051E0000FD000200821151A002D0CDDDD69AD0659
:1051F00009D55D6A2554DD6901302D07F3D51962A3
:10520000F1E76FF0850038BD43681B68DA69100765
:1052100044BF08221A62DA69920643BF5B6A002023
:105220000B704FF0FF3070472DE9F8430C7903699C
:10523000012C05460E46D0F804905F6814D0A01EDD
:10524000D0F1000848EB00084FEA882848467179F9
:10525000FCF74EFEB379022B09D0042B30D0231E6D
:1052600018BF01231B0306E04FF4C068EEE7B4FA51
:1052700084F35B091B07F279D9F80010012A14BFE7
:1052800000244FF44074B7421DD10A6822F08052C6
:1052900022F4B05242EA08021A430A604B6823F42F
:1052A000405303434B606B6828461A68936823F4A5
:1052B0004073234393603968BDE8F843FCF756BE5A
:1052C0004FF48053D7E7D1F800C00CF4C06CE04530
:1052D0001FBFD1F800C02CF4C06C4CEA080CC1F818
:1052E00000C06968D1F800C0DCF8041001F4405136
:1052F00088421FBFDCF8041021F440510143CCF870
:10530000041069680868016801F010218B421FBF12
:10531000016821F010210B4303606B6819688B68EA
:1053200003F440739C421FBF8B6823F440732343F4
:105330008B606B681B689968490405D5032A09D0FE
:105340009A6822F4804204E0032A03D19A6842F466
:1053500080429A6031683B68994204D02846FCF745
:1053600005FE33683B60BDE8F8830369C268934279
:105370009CBF81685B18013B981A70472DE9F0418A
:105380000546D0E902844068A8EB04069642204412
:105390000F46144406D900F001F9BFF35F8FEC60AB
:1053A000BDE8F0813246A4EB080400F0F7F822468D
:1053B0006868B919EFE72DE9F843064689461746AC
:1053C0004FF00008C5683369B4689D4228BF1B19B7
:1053D000641BBC4228BF3C46013B5B1B9C4228BF70
:1053E0001C46706849462246284400F0D7F8B36846
:1053F0002544AB4208BF0025A044A1443F1BBFF396
:105400005F8FF560002FDED14046BDE8F88308B518
:10541000FDF71EFA002008BD704740B1C3685878F8
:1054200010F001001EBF1878B0FA80F040097047F4
:10543000EFF31183102383F31288BFF36F8FFEE71E
:1054400008B5FFF7F5FF10B5D0E9003433B90020F7
:10545000E268537843F00103537010BD204698472B
:105460000028F4D00028B8BF4042FF28A8BFFF2082
:10547000E3681870ECE700F09EB800F08FB8704752
:10548000102408B5EFF3118384F31288BFF36F8FF4
:10549000FFF739FAF6E7EFF30580003818BF01206F
:1054A0007047D0E9003213605A600023C0E900332E
:1054B000704708B5FFF7F5FF437B23F00203437302
:1054C0000023836008BD10B5EFF31184102383F32C
:1054D0001288BFF36F8FFDF77FFB84F31188BFF352
:1054E0006F8F10BD014610B5EFF31184102383F3C5
:1054F0001288BFF36F8F437B13F0280F0AD18368A4
:105500000BB1FFF7D6FF4B7B084623F010034B731C
:10551000FDF762FB84F31188BFF36F8F10BD01218B
:105520001838FFF7DFBFEFF31181102282F31288E2
:10553000BFF36F8F027BD2070CD581F31188BFF3C5
:105540006F8F002383F31188BFF36F8F04231846F6
:1055500002DF7047437B1B0704D581F31188BFF33B
:105560006F8F70470122FDF77FBB10B5EFF31184F9
:10557000102282F31288BFF36F8F03683BB1FDF7EF
:1055800077FE002084F31188BFF36F8F10BD6FF09A
:105590001500F7E708B5FDF789FF08BD0A44431E6B
:1055A000914200D1704710B511F8014B914203F8B8
:1055B000014FF9D110BD02440346934200D1704718
:1055C00003F8011BF9E710B50139044632B111F8AF
:1055D000013F013A00F8013B002BF7D10021FFF712
:1055E000EAFF204610BD0246014410B58A42134628
:1055F00003D01C780132002CF8D1181A10BD0A789B
:1056000070B56AB970BD9A4209D10C46054614F8C6
:10561000013F002BF6D015F8016F9E42F7D0013004
:105620000378002BEFD11846ECE72DE9F047C3F1E2
:1056300037090746884603F01F055FFA89F91646C1
:105640004FF0000A384641462A465346FAF7BCFF57
:105650004346D4B23A4688460746092C84BF4C4498
:10566000E4B2AA4204F1300473EB0A0306F8014BDA
:10567000E8D23046BDE8F0872DE9F04F061887B034
:105680009946154641EB010402AB3046DDF844B0C3
:1056900021460093A9F1410AD2E9002300F0A6F8BF
:1056A00004AB07468846304621460093D5E90223DD
:1056B00000F09CF80022DDE90263841951EB030637
:1056C000049B28BF0122D5E90001D218059B43F1B4
:1056D0000003381848EB0101B84271EB0801D5E925
:1056E00002C134BF0120002014EB0C0CCDF800A047
:1056F00046EB010110EB0C0041F10001A04271EBFF
:10570000060C34BF4FF0010C4FF0000CCDE9042320
:105710001CEB020243F1000300F083F8109BC3E985
:105720000001129B012BDDE9042329D1D5E90201F7
:10573000D5E900C5201ACDF800A066EB0101674548
:1057400078EB050534BF01250025401B61F1000100
:10575000844276EB010534BF01250025521B63F11D
:10576000000300F05EF8DDE90423CBE900012046E8
:105770003146CDF800A000F054F807B0BDE8F08F36
:1057800017EB070E48EB080C201946EB0601BE4547
:105790007CEB080834BF01270027C71941F1000836
:1057A000D5E9000186457CEB010C34BF01200020C7
:1057B000D5E90215381A68F1000C401A6CEB0501A6
:1057C00092185B41A74278EB060534BF01250025FE
:1057D000521943F10003874278EB010834BF0125D9
:1057E0000025521BA9F140050095B8E7F0B50F461A
:1057F0000446A0FB0201059EA7FB02524919A3FB28
:105800000445A7FB037342F10002611845F100044F
:10581000D21943F10003121943F10003C6E9002332
:10582000F0BDF0B5059CC4F14007C4F12006A4F119
:105830002005E04002FA06F6BB4022FA05F5BA4020
:105840003343C4F120062B4301FA06F6A4F12005E8
:10585000304321FA05F5E140284319431043F0BDD8
:105860002DE9F0410446CD0FC1F30A50C1F31301F5
:1058700040F2FF76157154EA010707D0B0420CD10F
:1058800045F0080500201571BDE8F081002864D0BE
:10589000B0425FD145F00405F4E700285AD1012059
:1058A000A0F2FF30002B10605ADB0C2B5ADCC3F146
:1058B0000D050120AD0005F1FF3CA5F12107C5F163
:1058C000210600FA07F720FA06F600FA0CF0374333
:1058D000061847EB0708D6F1000E68EB480C013EAE
:1058E00048F1FF38264008EA0108B04277EB080883
:1058F00010DBC5F12008B5F1200624FA05F501FA00
:1059000008F858BF41FA06F645EA080558BF35437E
:10591000ED0703D52018044641EB070104EA0E0405
:1059200001EA0C019DF81860123218460D25C6F1E7
:1059300027064FF0300E04F00F03240905F1FF3C59
:10594000571E44EA01740911B3B9A8420CDA65463E
:105950003A46F0E741F48011A2E704460146A1E788
:105960000023DFE70D23DDE782F800E01CF10103EF
:1059700065463A46DFD187E7092BC8BF9B19A84285
:1059800003F13003B8BF28461370EFE7D1E90432C2
:1059900093421EBF5A1C0A61187070470148006884
:0859A00070470000600A0020BE
:0859A80054ACFF7F0100000078
:1059B000A1190008585A0008610D000800000000F5
:1059C0000F54000800000000000000006C5A00089E
:1059D000251C00080C5B0008251C0008345B00082F
:1059E000251C0008205B00086F490008805A000849
:1059F000251C0008F85A0008251C0008E45A000875
:105A0000251C0008D05A0008251C0008BC5A0008B4
:105A1000251C0008A85A0008251C0008945A0008F4
:105A2000151B000800000000F1210008845B00083D
:105A3000F12100085C5B0008F1210008485B0008C8
:105A4000F1210008705B00084D24000800000000F0
:085A50007117000800000000BE
:105A5800FC68000800000000E45F000866050020FC
:105A6800000000008769000830640008D45F00085F
:105A78007A05002000000000DE6800080000000031
:105A88000000000064050020880A00200969000859
:105A98003C630008B05F000868050020080B002080
:105AA8001769000850630008B05F00086A05002005
:105AB8001C0B00202569000864630008B05F00081B
:105AC8006C050020300B002033690008786300085B
:105AD800B05F00086E050020440B002041690008F3
:105AE8008C630008B05F000870050020580B002088
:105AF8004F690008A0630008B05F00087205002025
:105B08006C0B00205D690008B4630008B05F0008F2
:105B180074050020800B00206B690008C86300082A
:105B2800B05F000876050020940B00207969000812
:105B3800DC630008B05F000878050020A80B00208F
:105B48009869000834640008006000087C0500209B
:105B5800D8040020A86900088464000800600008D0
:105B68007E050020F0040020B8690008D46400080D
:105B7800006000088005002008050020C8690008AA
:105B88002465000800600008820500202005002028
:105B980000000000E948000800000000E94800088B
:105BA80000000000E948000800000000E94800087B
:105BB80000000000E948000800000000E94800086B
:105BC80000000000E948000800000000E94800085B
:105BD80000000000E948000800000000E94800084B
:105BE80000000000E9480008DC6800089517000874
:105BF800DA68000895170008D868000895170008A3
:105C0800D668000895170008D4680008951700089A
:105C1800D268000895170008D06800089517000892
:105C2800CE68000895170008CC680008951700088A
:105C3800CA68000895170008C86800089517000882
:105C4800C668000895170008C4680008951700087A
:105C5800C268000895170008C06800089517000872
:105C6800BE6800089517000800000000E948000811
:105C780000000000E948000800000000E9480008AA
:105C880000000000E948000800000000E94800089A
:105C980000000000E948000800000000E94800088A
