:020000040800F2
:1000000008110020790900085D060008650900084C
:100010006509000865090008650900086509000808
:10002000000000000000000000000000690A000855
:100030006509000800000000010A0008E51A000830
:10004000C10B0008C10B0008C10B0008C10B000860
:10005000C10B0008C10B0008C10B0008C10B000850
:10006000C10B0008C10B0008C10B0008C10B000840
:10007000C10B0008C10B0008C10B0008C10B000830
:10024C0053B94AB9002908BF00281CBF4FF0FF3131
:10025C004FF0FF3000F00CB8ADF1080C6DE904CE96
:10026C0000F008F8DDF804E0DDE9022304B0704783
:10027C00704700BF2DE9F04786468C460846089E1D
:10028C00154674461946002B40F0C1808542B2FADF
:10029C0082F245D94AB1C2F1200300FA02FC954022
:1002AC0094402EFA03F343EA0C0C4FEA154EA8B215
:1002BC00230CBCFBFEF80EFB18CC08FB00F943EA40
:1002CC000C43994528D9EB1808F1FF3704D299450E
:1002DC0002D9A8F102072B44A3EB0903A4B2B3FB88
:1002EC00FEFC0EFB1C330CFB00F044EA0344A04262
:1002FC0014D92C190CF1FF3304D2A04202D9ACF161
:10030C0002032C44241A43EA07401EB1D4400023B4
:10031C0034607360BDE8F0874746DDE76346F1E77C
:10032C0092BB431B01214FEA154EAFB2200CB3FB1D
:10033C00FEFC0EFB1C330CFB07F840EA034398450C
:10034C0061D9EB180CF1FF3004D2984502D9ACF10D
:10035C0002002B44A3EB0803A4B2B3FBFEFC0EFB80
:10036C001C330CFB07F744EA0344A7424DD92C1964
:10037C000CF1FF3304D2A74202D9ACF102032C4496
:10038C00E41B43EA0040C0E7C2F1200395409440CF
:10039C0020FA03F12EFA03F34FEA154E9040AFB258
:1003AC000343B1FBFEFC0EFB1C10190C0CFB07F8F5
:1003BC0041EA0041884522D969180CF1FF3004D27A
:1003CC00884502D9ACF102002944A1EB08019BB28B
:1003DC00B1FBFEFC0EFB1C110CFB07F743EA0143BF
:1003EC009F420ED9EB180CF1FF3104D29F4202D977
:1003FC00ACF102012B44DB1B41EA004193E7604660
:10040C00E3E76146F7E76046A4E76346B8E7834253
:10041C0006D916B9002108467CE7C6E900E0F9E7E1
:10042C00B3FA83F78FB9834201D3724508D8BEEB78
:10043C00020460EB030301209C461EB9002169E70E
:10044C003846FAE7C6E9004CF8E7C7F1200CBB4088
:10045C000EFA07F522FA0CF42EFA0CF1BA401C43F2
:10046C0020FA0CF3B8404FEA144901431FFA84FEFA
:10047C00B3FBF9F809FB18300B0C08FB0EFA43EA36
:10048C0000439A4540D9E31808F1FF3004D29A454D
:10049C0002D9A8F102002344A3EB0A0389B2B3FBEF
:1004AC00F9F809FB183308FB0EFE41EA03418E45AF
:1004BC002CD9611808F1FF3304D28E4502D9A8F16A
:1004CC000203214443EA0040A1EB0E01A0FB029879
:1004DC004145CE46434602D306D14D4504D20138A0
:1004EC00B9EB020E68EB0403002EA7D0B5EB0E029D
:1004FC0061EB030101FA0CFC22FA07F3F9404CEA18
:10050C000303C6E9003199E74046C5E74346D9E7FE
:10051C00F8B5174D284603F0D2F9044630B32A69D2
:10052C00A9681368284623F0010313600B684FF485
:10053C00202200219847002818DB0E4F0E4EAB6886
:10054C00012128465B69984700280FDB84F00104E1
:10055C0014F0FF0414BF39463146084802F056FA2D
:10056C00002142F2107002F043F8E8E70020F8BDD9
:10057C00883C000860430008634300086743000898
:10058C00014B1B68184700BF00000020014B18608E
:10059C00704700BF0000002030B585B004460D4602
:1005AC0010220021684603F052FA02238DF8023023
:1005BC00044B2A4621466846019302F039FA05B0ED
:1005CC0030BD00BF8D05000880B505460E461746A8
:1005DC00984602F02BF8034603F0A4FA0446DFF821
:1005EC001890424649F8003039463046A84754F82E
:1005FC00090000F0D1F900BF08000000034A0020F8
:10060C00536823F002035360704700BF004002445C
:10061C00084B1A6822F004021A601A6842F00102B0
:10062C001A60054B054A1A60054AD36A43F0010368
:10063C00D362704700040340380000200048E801F2
:10064C0000080244014B0360002070476841000819
:10065C0008B5034B1B689847BDE8084000F026B866
:10066C000400002030BFFFF7FDBF00BF2DE9F041B3
:10067C0005460B4EDFF82C80324606EB0807CC1BE8
:10068C002046094903F0D6F9A01942460021083C3E
:10069C0003F0DDF92C6707F10800BDE8F08100BF1D
:1006AC00000000000400000068410008074A93683D
:1006BC0093F90E10002907DB526993421FBF044ABD
:1006CC00536843F080535360704700BF940300207D
:1006DC0000ED00E0154B9A6A12F0007F9A6A14BF85
:1006EC001E201D2012F0807F9A6A18BF1F2012F462
:1006FC00801F9A6A18BF022012F4002F9A6A18BF42
:10070C00212012F4802F9A6A18BF222012F4003F85
:10071C009A6A18BF232012F4803F9A6A18BF2420CB
:10072C006FEA02426FEA12429A62704700ED00E0F3
:10073C0010B5194B0246986A9C6A10F4805F14BF7E
:10074C001720162014F4006F9C6A18BF1820A405FB
:10075C0009D5986B986A000404D51AB19A6A22F4E8
:10076C0000429A6219200C4B9A6A12F4806F9A6AB2
:10077C0018BF1A20D2050CD49B6A13F4005F18BF63
:10078C001C20054A936A43F47F43936200230B7049
:10079C0010BD1B20F5E700BF00ED00E010B51C4BB1
:1007AC000246986A9C6A10F0100F14BF112010209A
:1007BC0014F0080F9C6A18BF1220A40709D5586BB7
:1007CC00986A000604D51AB19A6A22F080029A62DD
:1007DC0013200F4B9A6A12F0010F9A6A18BF14205B
:1007EC0012F0200F9A6A18BF1520D40658BF9B6AC6
:1007FC00074B9A6A920642BF5A6A22F400525A6216
:10080C009A6A42F0FF029A6200230B7010BD00BF7F
:10081C0000ED00E0F0B5474B04465B6800258BB05B
:10082C00C3F3080385F31188BFF36F8F02F07F4089
:10083C00B0F17F4F11D102F00C0008280DD0100739
:10084C004CBF0C4601250022033B8DF80720032BDF
:10085C0005D8DFE803F02462665F2C46F3E700233B
:10086C009DF80720CAB902AE04F120073246206871
:10087C006168083403C2BC421646F7D1099A002DB0
:10088C0053D0C2F3080121B96FEA52226FEA422217
:10089C000992184602A902F09FFB0BB0F0BD254B44
:1008AC00DA6A9107DBD4DA6A002AD8DBDA6A5200FA
:1008BC00D5D55A69A16942F480725A61BFF34F8F42
:1008CC00BFF36F8F5A6931F8021C22F480725A619F
:1008DC00BFF34F8FBFF36F8F4DF60272914209D069
:1008EC009A6AD2B242B101200DF10701FFF756FF0F
:1008FC000346B5E72368B3E79A6A12F47F4F05D035
:10090C0001200DF10701FFF713FFF1E79B6AB3F527
:10091C00803FA4D3FFF7DEFEEAE700200DF10701CC
:10092C00E4E700200DF10701EDE722F4FF7222F05D
:10093C000102ADE700ED00E0064B5A6942F01002EF
:10094C005A615A6942F480625A615A6922F008026B
:10095C005A61704700ED00E0EFF30880EFF3098176
:10096C0001B57246FFF756FF01BD00BF102080F3A2
:10097C00118808484FF40061401880F30988EFF3A0
:10098C0014800221084380F31488BFF36F8F00F0AA
:10099C009BF80000C8030020084B9B6883420BD1D6
:1009AC00EFF3058343B1064B5A6842F080525A600C
:1009BC005A6A22F400425A6203F001B894030020F0
:1009CC0000ED00E06FF00A01084A93689967084946
:1009DC0058674B6843F080534B60002383F31188B6
:1009EC00BFF36F8F9368986F704700BF940300201C
:1009FC0000ED00E016498A684FF030001044EFF328
:100A0C00098C80E8F01F102080F31288BFF36F8FE1
:100A1C00104F4FF000664A698A603E604FF07004D8
:100A2C00141920680C4C2060506F0023536780F31E
:100A3C00118802F1300090E8F01F8CF3098802F164
:100A4C00000004B502F0D6FABDE80440704700007F
:100A5C009403002004ED00E0300200201EF0040F8F
:100A6C000CBFEFF30880EFF30980816911F8021CC9
:100A7C000229FFD001B5724602F0B4FA01BD00BFE5
:100A8C0000B2002807DB01234109034A00F01F00D4
:100A9C00834042F82130704700E100E000B20028AA
:100AAC0001F10101ACBF00F16040064B4FEA0111AE
:100ABC00C9B2ABBF00F5614000F00F0080F8001325
:100ACC001954704714ED00E00F4A08B50F4B22F093
:100ADC007F029A60BFF34F8FBFF36F8FD3F88820DC
:100AEC0022F47002C3F88820EFF3148323F004037C
:100AFC0083F31488BFF36F8F01F0EAF901F024FE41
:100B0C0000F04CF801F024FA0000000800ED00E0C1
:100B1C0042F8203C009B0B4942F81C3C019B21F005
:100B2C00010142F8183C029B42F8081C42F8143CA4
:100B3C004FF0807342F8043C0023203A026543676F
:100B4C00704700BFD505000800B50D4B15469860E1
:100B5C00026F0C4B0E461A60036E83F30B882C4607
:100B6C0086F309884FF00000074B984720464FF05A
:100B7C0000014FF000024FF00003044C204700BF6F
:100B8C00940300203002002009300008D50500082D
:100B9C001022014B1A61704700ED00E00023102178
:100BAC000348C2180133832B82F80013F9D1704724
:100BBC0000E100E008B5EFF30583064A103B02EBB9
:100BCC00C30152F8330049688847BDE80840FFF775
:100BDC006DBD00BFEC3C00081FB5094C094A23460B
:100BEC000121094800F0FAF800230393074B012177
:100BFC00E41A01A80193029400F0FAF804B010BDB5
:100C0C000000042000000020684100088000002043
:100C1C0010B50C7A0B6804F01F0223F01F031A4363
:100C2C00CB68640923F01F03054943EA440343F0EE
:100C3C000103C1F89800C1F89C20C1F8A03010BD88
:100C4C0000ED00E010B5074BD3F89030C3F3072349
:100C5C00013B984202D8FFF7DBFF10BD6FF0150087
:100C6C00FBE700BF00ED00E02DE9F04F0F46144606
:100C7C0006464FF000084D4D85B0B84580F2928085
:100C8C00D6F80490B9F1000F36D0B9F11F0F40F22D
:100C9C00878019F01F0F40F08380D6F800A01AF05F
:100CAC001F0F7DD1504602F0BDF9834609EB0A00B7
:100CBC00013802F0B7F9834572D11BF1160F6FD0D2
:100CCC005C456DDDC5F898B0D5F89C10C5F898B0AA
:100CDC00D5F8A03021F01F0143F01F0AD6E90032ED
:100CEC001A44994202F1FF391ED1CA4508D1314646
:100CFC005FFA8BF002F09FF908F101080C36BCE7A3
:100D0C003146C5F898B0D5F89C3022F01F0203F09C
:100D1C001F031343C5F89C30E0B202F08CF910F1BC
:100D2C00160F3DD0441CE7E7C5F898B0D5F8A020C5
:100D3C00013B23F01F0302F01F021343CA45314647
:100D4C00E0B2C5F8A030E8D002F075F910F1160F3A
:100D5C0026D0C5F898B0D5F89C209DF808300AF13B
:100D6C00FF3A62F304038DF80830D5F8A0309DF8F3
:100D7C0008205B0863F347128DF80820D6E900328F
:100D8C001344009323F01F035344A3EB09030130D6
:100D9C0023F01F036946C0B20393FFF753FFBEE76E
:100DAC006FF01504204605B0BDE8F08F00ED00E0B3
:100DBC000522044BC3F89420BFF34F8FBFF36F8F02
:100DCC00704700BF00ED00E0BFF35F8F0022024BC5
:100DDC00C3F89420704700BF00ED00E010B5034C41
:100DEC002278FFF741FF207010BD00BFC403002024
:100DFC002DE9F74F294D8A4606464FF00008AB46C1
:100E0C00274FD0451BDAD6F80490B9F1000F3FD02C
:100E1C0031680846019102F005F90199044609EB85
:100E2C000100013802F0FEF884424FF014021D4B11
:100E3C0008D002FB08F36FF015024BF8032003B047
:100E4C00BDE8F08F14F1160F2C60F8D01978A14280
:100E5C00F5DD02FB08B0C7F89840C7F89840D7F802
:100E6C009C4000F10801007B64F304000871D7F882
:100E7C00A0000C79400860F347140C71D7F89C1053
:100E8C0021F01F016960D7F8A01021F01F01296122
:100E9C0008F1010814350C36B3E700BF340200200A
:100EAC0000ED00E0C4030020F0B54149414CD1F8FD
:100EBC0090302568C3F307239D4287B075D8002076
:100ECC00FFF782FF3C4BC1F8C030854216D13B4C3A
:100EDC0001A82570FFF7B6FB00250646384FAE4239
:100EEC0013D1002023783249D1F89020C2F3072285
:100EFC00934254DBFFF75CFF00202FE0616801EBAD
:100F0C000011FFF785FE0130DFE70199280101EBA5
:100F1C000513DA683A40B2F5001F21D0B2F5800F04
:100F2C002BD0B2F5801F38D15A689B680958013B09
:100F3C0022F01F0003440120844623F01F0340EAE3
:100F4C004C10CDE902218DF8100002A920780593F0
:100F5C00FFF778FE00281DDA6FF0150007B0F0BD22
:100F6C005A689B680958013B22F01F0003444FF05C
:100F7C00020C012023F01F03E1E75A689B68095813
:100F8C00013B22F01F0003444FF0000C062023F01D
:100F9C001F03D4E723780133237001359FE7C1F891
:100FAC009830C1F8A00001339EE74FF0FF30D5E731
:100FBC0000ED00E074410008AAFF4400C4030020C7
:100FCC000000F0FF08B5024B1B689847002008BDD5
:100FDC0048020020034B044A1860937843F0020344
:100FEC0093707047480200200800002008B506499D
:100FFC00064821F00701C1F1005202F5802201F0F0
:10100C009EFF002008BD00BF0F1100204C020020E5
:10101C00F8B505460024104E104F01232A7852FAD9
:10102C0084F2D1B203FA01F0F36830EA030303D07F
:10103C00336930EA030308D1F060306157F832307D
:10104C001BB107EBC202516898476A780134E3B2CE
:10105C009A42E2D2F8BD00BF0020024458020020A0
:10106C00014B23F81010704744000020034678B160
:10107C00B0FA80F2C2F11F02D2B2064931F9120065
:10108C00054AD2F880100B43C2F88030FFF7F8BC49
:10109C00FF22F2E74400002000200244034AD2F869
:1010AC00803023EA0003C2F88030704700200244ED
:1010BC00032921D8DFE801F0020C10190F4B1A6834
:1010CC0022EA00021A605A6822EA00025A6070474B
:1010DC000A4B1A680243F5E7084B5A6802435A60F8
:1010EC001A6822EA00021A607047044B1A6802431D
:1010FC001A605A6810435860704700BF00200244C1
:10110C0030B5B0B1B0FA80F3C3F11F03DBB20B48BA
:10111C0050F833408C4204D100EBC3056D68954206
:10112C0005D044B940F8331000EBC30042600020F6
:10113C0030BDFF23EBE76FF00F00F9E758020020FA
:10114C0060B1B0FA80F3C3F11F03DBB20021044A93
:10115C0042F8331002EBC30251607047FF23F5E7EE
:10116C0058020020C300074AC0F38100183052F81F
:10117C00202003F018000F238340134023FA00F0C3
:10118C00704700BF002002440B680E2B2AD813B9FD
:10119C006FF085007047013B0D2BF9D801A151F878
:1011AC0023F000BFE91100080B1200080F12000811
:1011BC00151200089D1100089D1100089D110008D2
:1011CC000512000805120008051200080512000897
:1011DC00E9110008E9110008E91100080B4B002087
:1011EC0013607047882B07D08C3B1C2BD0D8084938
:1011FC0021FA03F3DB07CBD5064B1B68EFE7002383
:10120C00EDE74FF4FA43EAE7034BE8E780B2E60E6A
:10121C00010111113800002040787D0110B5584CA7
:10122C00E369236A574B1A6942F030021A615A6912
:10123C001107FCD5544800F01BFD236823F48023D0
:10124C002360236843F4803323604D4B1A68920368
:10125C00FCD5D3F8F02042F08062C3F8F020D3F82C
:10126C00F0201401FBD5DA6902F01802182A17D104
:10127C001A68900707D41A6842F001021A60404AB3
:10128C0013689907FCD53E4BDA6922F00302DA6148
:10129C00DA6912F0180FFBD11A6A22F00F021A62E7
:1012AC00374B1A6822F080721A609A6A42F0030275
:1012BC009A629A6A22F47C5242F400729A629A6A96
:1012CC0042F00C029A629A6A22F020029A625A6BDD
:1012DC0022F4FF7222F0010242F027025A639A6A4A
:1012EC0022F010029A625A6B22F47E4242F400728F
:1012FC005A639A6A42F480329A625A6B22F4FE0262
:10130C0042F480325A639A6A42F400329A625A6BFF
:10131C0022F0FE4242F080725A639A6A42F48022B2
:10132C009A621A6842F080721A601A689201FCD5AF
:10133C00DA6A22F00302DA621A6B22F003021A63F1
:10134C001A6A22F00F021A621A6A22F070021A62EA
:10135C001A6A22F4E0621A621A6A22F4E0421A62F1
:10136C00DA6942F00302DA61054AD36903F0180323
:10137C00182BFAD1054B044A00201A6010BD00BF8F
:10138C00000C02440008024480B2E60E3800002033
:10139C0008B5074802F093FA38B10648FFF71AFE71
:1013AC000448FFF7F3F8002008BD6FF01200FBE7CC
:1013BC00D83C0008C51300080A2838B50446074D68
:1013CC0004D1AB680D2128465B689847AB6803488D
:1013DC005B68E1B29847204638BD00BFD83C000896
:1013EC002DE9F843D0F804801746D0F81090D8F8BF
:1013FC0008000D461E4601F0CFFEB7F5001F04464F
:10140C0016D12846D8F80840FFF7ACFE84420CD120
:10141C00294601F0C1FE0446FFF740FE2046FFF7C7
:10142C008FFE00212046FFF743FE0020BDE8F88325
:10143C00B7F5800F20D0B6F1806F19D0B6F1C06F20
:10144C0018D0B6F1007F1AD102264A4620460F4921
:10145C00FFF756FEB0B92846D8F8081001F09FFEE9
:10146C0020463146FFF724FE2046FFF7FFFDDCE760
:10147C000126EAE70326E8E76FF08500D6E76FF070
:10148C001500D3E76FF00F00D0E700BF2F35000831
:10149C0038B5036904465860084D284602F00FFA27
:1014AC0040B16168AB6828461B680C31984700EA6C
:1014BC00E07038BD6FF01200FBE700BFD43B0008B2
:1014CC002DE9F047044600251D4F00EBC106B44240
:1014DC0001D1002014E02068C30600F01F0911D4CC
:1014EC00656845F02005C0F3481AC0F344200F2866
:1014FC0023D857F82080B8F1000F0DD16FF01200EF
:10150C00BDE8F087B9F1100F04D0B9F1110FEAD191
:10151C006568E8E73025E6E7404602F0D0F9002898
:10152C00ECD04B462A4640460AF00F0102F00FF869
:10153C00002804F10804CADAE2E76FF01500DFE7CF
:10154C00544200080129034608461AD002290BD040
:10155C00C9B91B680D4A934217D002F180529B1AED
:10156C0018BF0123180370471868084B98420AD01B
:10157C0003F18053984214BF4FF440504FF4005085
:10158C007047002070474FF400507047002400440F
:10159C0070B500261D46094B6C0833F812203346F3
:1015AC00FEF74EFE090241EA1061000220182A469D
:1015BC00334641F10001FEF743FE70BD484300087D
:1015CC002DE9F3410269436810680C461D68D9681F
:1015DC008368DB68DBB101AA9847002817DB244B32
:1015EC009D4203D003F180539D4233D10026019FCD
:1015FC00DFF88080234638460021B2B2FFF7C8FFDF
:10160C00A0F54070404505D901360C2EF2D102B040
:10161C00BDE8F081EB6A23F00F033343EB62002C3F
:10162C00F5D0154B384633F8162000231946FEF733
:10163C0007FE090241EA106163080002C018224645
:10164C004FF0000341F10001FEF7FAFDC0F3130067
:10165C00E860DCE72B6823F400432B60019B002C33
:10166C00D5D003EB5403B3FBF4F39BB2EB60CEE7A2
:10167C0000240044FFFC0F00484300082DE9F84308
:10168C0007460D7940683B69012D0E460468D3F876
:10169C00048000F0A380AB1ED3F1000949EB0309D1
:1016AC004FEA89297179FFF74DFFB2790346022A77
:1016BC0000F09780042A00F09880002D00F0A080A4
:1016CC00033D012D40F294804FF48050B3F5805FC0
:1016DC0000F09880B3F5405F00F09680002B0CBFB3
:1016EC0001230323994240F08380494601F08FFF88
:1016FC0082427DD1F379002B5DD0012B40F08680A6
:10170C00444B9C4257D003F180539C4253D0424BE4
:10171C009C4250D003F180539C424CD03F4B9C4296
:10172C0049D003F180539C4245D03D4B9C4242D062
:10173C0003F180539C423ED03A4B9C423BD0B4F1D7
:10174C00502F38D003F5A0539C4234D003F1805372
:10175C009C4230D0344B9C422DD003F180539C42A0
:10176C0029D0324B9C4226D003F180539C4222D08C
:10177C002F4B9C421FD003F180539C421BD02D4B0E
:10178C009C4218D003F180539C4214D02A4B9C42AB
:10179C0011D003F180539C420DD0284B9C420AD0AF
:1017AC0003F180539C4206D0254B9C4203D003F19D
:1017BC0080539C421CD12368314623F001033846E8
:1017CC00236001F0DAFF236843F00103236096E8FD
:1017DC00030088E803000020BDE8F8834FF4C069DB
:1017EC0060E745B94FF0805070E7002D3FF46CAFC7
:1017FC006FF08500F0E7033D012DF9D9002065E776
:10180C00284663E700236DE702236BE7032B3FF4C5
:10181C0077AFEDE70038014000440040004800403D
:10182C00004C00400050004000780040007C00401C
:10183C000080004000680040006C004000840040C4
:10184C0000240044F7B506464468056974482860CE
:10185C0002F035F8002800F0DB802868E168836826
:10186C001B6898470028C0F2D5800021206A01AA85
:10187C0001F082FE0028C0F2CD80019B0022197974
:10188C001868FFF71DFE0028C0F2C4807568336924
:10189C002C685F68236823F001032360686802F0FA
:1018AC000EF8002800F0B480D5E901018368DB68EC
:1018BC0003B1984754E8003F43F00C0344E800326E
:1018CC00002AF7D13946304601F057FF2B7D1BB16A
:1018DC00A36843F00803A3606B7D1BB1636843F4FA
:1018EC0000436360AB7D1BB1636843F4803363607A
:1018FC00EB7D1BB1636843F4003363602B7E002BDC
:10190C0074D0484B9C4257D003F180539C4253D027
:10191C00454B9C4250D003F180539C424CD0434BDE
:10192C009C4249D003F180539C4245D0404B9C4291
:10193C0042D003F180539C423ED03E4B9C423BD064
:10194C00B4F1502F38D003F5A0539C4234D003F19E
:10195C0080539C4230D0384B9C422DD003F18053A5
:10196C009C4229D0354B9C4226D003F180539C429B
:10197C0022D0334B9C421FD003F180539C421BD08E
:10198C00304B9C4218D003F180539C4214D02E4B08
:10199C009C4211D003F180539C420DD02B4B9C42A6
:1019AC000AD003F180539C4206D0294B9C4203D0B1
:1019BC0003F180539C422FD173681A68936843F4E7
:1019CC008043936023686A7E23F0787343EA425322
:1019DC0023602368AA7E23F4F81343EA02432360AE
:1019EC00EB7E1BB1A36843F40043A3602B7F1BB1B8
:1019FC00236843F000532360236843F00103236002
:101A0C00E3699A02FCD5E3695B02FCD5002001E096
:101A1C006FF0120003B0F0BD6FF01500FAE700BFD5
:101A2C00D43B00080038014000440040004800400E
:101A3C00004C00400050004000780040007C00400A
:101A4C000080004000680040006C004000840040B2
:101A5C00002400444FF0E02310B50F499C691A692B
:101A6C0008689B690D4902F4803234B993B9034676
:101A7C004AB90A681044C01A10BD002B08BF0346AF
:101A8C000AB9A342F5D90A6802440A604FF0E02271
:101A9C001269EEE70446F3E7900300208C03002064
:101AAC0010220A4B002083F8232046F2A812084B80
:101ABC001A60084B46F2A71218604FF0E0235A61E7
:101ACC0098611A6942F007021A61704700ED00E054
:101ADC00900300208C030020684620F007018D46FF
:101AEC0019B5FFF7B7FF1149114B0868D3E900424C
:101AFC00001942F10002C3E9000200230B6046F218
:101B0C00A8130C4AD2E90041001BB0FBF3F043438D
:101B1C001B1941F10001C2E9003100F0F1FEFEF7A2
:101B2C00C5FDBDE819408546704700BF8C030020F9
:101B3C0088000020800000202DE9F041DFF8E080D3
:101B4C0099B1421C0BD14FF0E022136923F0010331
:101B5C0013614FF07F43C8F80030BDE8F081D8F82E
:101B6C000060012807DC00270BE0431CD8F800605C
:101B7C00F7D140F29E2040F29F239842A8BF18460E
:101B8C00471EEFF31185102383F31288BFF36F8F79
:101B9C00FFF760FF4FF0E023224C9969D4E9002352
:101BAC0080184FF0000243F10003C4E900031E4B00
:101BBC001A601E4B1A68831A2ED446F2A81C0CFB12
:101BCC00073303F5C3432733B3FBFCF7131A40F277
:101BDC001A620CFB0733934238BF1346144A9342E4
:101BEC0028BF13464FF0E022C8F80030013B906943
:101BFC005361002381429361A1EB000338BF9B1911
:101C0C00D4E900125B1842F10002C4E9003285F3FA
:101C1C001188BFF36F8FA0E740F21A63E2E700BFB1
:101C2C0090030020880000208C03002080000020FE
:101C3C00B095FF0038B5EFF31185102383F31288AC
:101C4C00BFF36F8F084B1C68084B1B68E41AFFF737
:101C5C0001FF85F31188BFF36F8F46F2A813204460
:101C6C00B0FBF3F038BD00BF8800002080000020DE
:101C7C00B8B1384B1A6902F03002302A13D1364B06
:101C8C0098425ED9354B98425DD9354B98425CD918
:101C9C00344B98425BD9344B98422ED9334B9842F3
:101CAC003BD9012070471A6902F03002202A10D16A
:101CBC002F4B984245D92F4B984244D92E4B9842E2
:101CCC0043D92E4B984242D92D4B984215D92D4BC6
:101CDC00E5E71B6903F03003102B10D12A4B984217
:101CEC002FD92A4B98422ED9294B98422DD9294BC2
:101CFC0098422CD9284B9842D3D804200EE0274B7D
:101D0C0098421ED9264B98421DD9204B98421CD97B
:101D1C00244B98421BD9244BEDE70520234A13682A
:101D2C0023F00F0303431360136803F00F0398426F
:101D3C000EBF0346136803F00F03C01A18BF01202F
:101D4C0070470020EAE70120E8E70220E6E70320DD
:101D5C00E4E700BF0008024480DE800200BD0105FC
:101D6C00809B8207007A030A8058840C80B2E60EAE
:101D7C0080CC060200990D048065140600321B0805
:101D8C0080FE210A00C2EB0B80C3C90100879303BC
:101D9C00804A5D05000E270780D1F008002D310127
:101DAC00005A620200B4C40400E1F50500200240B0
:101DBC0038B5EFF31185102383F31288BFF36F8FBF
:101DCC00064B9C6801F08EFD85F31188BFF36F8F75
:101DDC002046BDE83840FEF7DFBD00BF940300206D
:101DEC0038B5094B53F82040013053F82050A54228
:101DFC0000D838BD636823B1204601F076FD083465
:101E0C00F5E723689847FAE730430008012270B5DC
:101E1C002A4B032086B01A70FFF7E2FF00F0F0FDAA
:101E2C0001F07FFD0420FFF7DBFF254C254D2646F6
:101E3C00AE4204F1300410D300F002FB204C224ED1
:101E4C00AC4226D300F010FBFEF762FB1F4A137B5B
:101E5C0023F00103137306B070BD54F80C3C0593CA
:101E6C0054F8103C049354F8143C039354F8183C65
:101E7C00029354F81C3C019354F8203C009354E911
:101E8C000A2354E90C0100F0D1F854F8303C5E659B
:101E9C00CDE7D4E90A23B3F1FF3F08BFB2F1FF3F0E
:101EAC0005D052EA0301206803D100F097FA3034D0
:101EBC00C6E73146183000F0A9FCF8E7C50300204E
:101ECC000441000804410008C33900081001002037
:101EDC0008B50348034A0021121A01F01EFD08BD83
:101EEC0080000020C80300200023012270B586B0BA
:101EFC00CDE904230F220193CDE9023214234FF4D0
:101F0C00A0720E4D0E4E03FB00550E4906EBC0168B
:101F1C00044602FB00110C4B3046009500F086F88D
:101F2C00737B2C7423F010037373084B013403EB95
:101F3C00C423EE606B6006B070BD00BF940300203C
:101F4C0090000020C80B002031390008C803002085
:101F5C00BFB50020FFF744FF2C4B03F5006282F362
:101F6C00088883F30A880024F023294D294E85F82C
:101F7C002230EC772C766C76AC7685F820406B6A48
:101F8C00254F43F4E0236B62FEF7D6FCFEF700FE10
:101F9C004FF0FF33AB62EB62FEF786FFFEF71CFEE1
:101FAC0040F201121D4B1E4D9A81B360C3E91844D7
:101FBC00DC6601F083FCFEF72BFB0120FFF710FF22
:101FCC000220FFF70DFF00F085FA164B75610593A3
:101FDC00012315494FF48062CDE9034328463B4663
:101FEC00CDE90144009400F021F806466A7B2846AE
:101FFC0022F010026A7301F0B2FC2046FFF774FF66
:10200C003A4631462846FEF79FFD00BFC803002024
:10201C0000ED00E094030020191E00089001002040
:10202C00100100207F440008080D00202DE9F0432A
:10203C00984685B000F15803C0E91633109B002672
:10204C0003731023073222F0070543730F9B01EB38
:10205C0005090F4683734946C0E906668660C67358
:10206C000446FEF703FB0E9B073020F00700A0662A
:10207C00C4E9187502930D9BA9EB000901930C9B05
:10208C004A460093394643462046FEF741FD054B30
:10209C0066659B6803B1DB6E4846E36605B0BDE838
:1020AC00F08300BF9403002038B590F90D20014651
:1020BC00002A437B04DA03F07F03437301F03DFCF9
:1020CC000D4D2A4652F8184FAB68944200D004B913
:1020DC00EC68994208D05A7B12F01B0F04D1DA89B4
:1020EC007F2A01D9A2692AB19C4202D0204600F075
:1020FC00D3FA23466B6138BD9403002070B590F978
:10210C000D30427B002B38DB12F01B0F35D183696D
:10211C00002B32D11C4C62F07F024273224652F8E3
:10212C00181F914218BF0B46E16923B9C0E9002181
:10213C000860E0610CE090F90E5093F90E60B54226
:10214C001CD0AE421ADD5968C0E9003108605860F5
:10215C00A569954200D005B9E568A3685A7B12F0D1
:10216C001B0F04D1DA897F2A01D9AA6952B1AB427B
:10217C0002D0284600F090FA656170BD9942D5D026
:10218C001B68D2E76361F8E794030020002A2DE96D
:10219C00F8430CBF4FF010094FF00809427B04467E
:1021AC0019EA020F0F4621D149EA0203D2092AD1BA
:1021BC004373B9F1080F2CD04FF00008344E33465E
:1021CC0053F8185F9D4200D005B9F568B368AB426F
:1021DC0002D0284600F060FAB9F1100F756144D1B5
:1021EC00BFF35F8F637B23F060036373284B9B68A3
:1021FC009C4247D1EFF30583002B43D13846BDE811
:10220C00F843FEF7DFBB03F07F03437301F095FB4C
:10221C00CFE7A36813B1204601F097FB04F1180037
:10222C0001F0EFFBA56D04F15806AE4211D04FF052
:10223C00000875B1284601F088FB05F1180001F083
:10224C00E0FB2846C5F87880FFF758FFA56DAE4235
:10225C00EFD10F4B9B689C42AED1EFF30588B8F1E0
:10226C00000818BF4FF00108A8E7B8F1000FB7D06D
:10227C0040F20112074B9A810022B360C3E9182285
:10228C00DA66ADE787F31188BFF36F8FBDE8F8838B
:10229C00940300209001002070B590F90D200146A8
:1022AC00002A437B04DA03F07F03437301F045FB00
:1022BC001D4C4B7B224663F07F034B7352F8183F47
:1022CC00E069934208BF002323B9C1E900200160F3
:1022DC00E1610CE091F90E5093F90E60B5421FD0FC
:1022EC00AE421DDD5868C1E9003001605960A56936
:1022FC00A368954200D005B9E568994208D05A7B8D
:10230C0012F01B0F04D1DA897F2A01D9AA692AB1EC
:10231C009D4202D0284600F0BFF92B46636170BD88
:10232C009842D2D01B68CFE79403002070B5214DA2
:10233C000446AA68824224D1EFF305830BBBEFF36A
:10234C001186102383F31288BFF36F8F537B03F036
:10235C007F0343F01003537301F0EFFA2B4653F84D
:10236C00184F9C4200D004B9EC68AB689C4202D078
:10237C00204600F091F96C613046BDE87040FEF7E4
:10238C0021BB04F1180001F03CFBEFF31181102389
:10239C0083F31288BFF36F8F627B1A4004D081F3F2
:1023AC001188BFF36F8F70BD2046BDE87040FFF7FA
:1023BC00EDBE00BF9403002049B9EFF3058030B99E
:1023CC00054B5A699B689A4201D0FEF7FBBA81F320
:1023DC001188BFF36F8F70479403002010B5EFF393
:1023EC001184102282F31288BFF36F8F427BD106C7
:1023FC0004D484F31188BFF36F8F10BD22F0100248
:10240C004273FFF77BFE2146BDE810400148FFF701
:10241C00D3BF00BFC6030020034648B9EFF30582C3
:10242C0032B9064A51699268914201D0FEF7CABA94
:10243C0083F31188BFF36F8F704700BF94030020A4
:10244C00EFF31181102383F31288BFF36F8F054BC9
:10245C009A68D37B013BD37381F31188BFF36F8FE1
:10246C00704700BF9403002070B5EFF31186102362
:10247C0083F31288BFF36F8F154DAB68DA7B013293
:10248C00DA732A4652F8184F944200D004B9EC681B
:10249C005A7B12F01B0F04D1DA897F2A01D9A26969
:1024AC002AB19C4202D0204600F0F6F823466B611C
:1024BC0086F31188BFF36F8FEFF31180102383F332
:1024CC001288BFF36F8FBDE87040FFF7A5BF00BF48
:1024DC0094030020024B03F11802C3E90622704753
:1024EC0094030020F8B5EFF31186102383F31288C0
:1024FC00BFF36F8F1D4C2146A068437B03F07F0315
:10250C00437301F01AFAA3685A7B62F07F025A7384
:10251C0051F8182FE0698A4208BF002222B9C3E99A
:10252C0000100360E3610CE093F90E5092F90E7009
:10253C00BD4217D0AF4215DD5068C3E900200360DF
:10254C005360A5698D4200D005B9E568A3689D422A
:10255C0002D0284600F0A0F865613046BDE8F8408E
:10256C00FEF730BA8242DAD01268D7E79403002023
:10257C0050EA01032DE9F04105460E4604D1FFF760
:10258C00B1FF0020BDE8F081831C71F1FF3324DB27
:10259C0001F04CFA4419EFF31188102383F31288DD
:1025AC00BFF36F8F0F4F104BB8681860FFF77CFDAF
:1025BC00B8680E492A463346183000F027F9BA6835
:1025CC004046537B43F010035373FEF7FBF901F0C5
:1025DC002DFA201A20EAE070D4E76FF00104241AD7
:1025EC00D9E700BF94030020B4030020C3390008CE
:1025FC00B1F1FF3F08BFB0F1FF3F08B506D10A4B60
:10260C009868FFF793FE4FF0FF3008BDFFF7B0FF5F
:10261C00C11709304FF00A024FF0000341F10001DD
:10262C00FDF70EFEF1E700BF94030020014B986804
:10263C00704700BF940300200122044BC01A044BC6
:10264C00C0105843034B1A54704700BF10020020AF
:10265C00ABAAAAAAC6030020C3897F2B13D80B4BA5
:10266C001B686BB10A4B90F90E201B689A420ADB6F
:10267C00437B13F01B0F06D1064BC31A18BF012363
:10268C0003F0010070470023FAE700BFBC030020F1
:10269C00B80300209000002070B50E4B0E4C1E7C31
:1026AC00054606EB460304EBC304204601F0A9F9EA
:1026BC0000220A4B28469A55FFF7CEFF48B1084B2B
:1026CC002046BDE870401A680649013AD31700F05D
:1026DC009DB870BD9403002010020020C60300209A
:1026EC00BC0300204526000838B5EFF311851023F4
:1026FC0083F31288BFF36F8F104B114A9C681068DC
:10270C00A04206D1FFF7C8FF85F31188BFF36F8F86
:10271C0038BD00211B7C11600A4AD35C002BF3D01E
:10272C002046FFF799FF0028EED0637B13F01B0FB8
:10273C0002D12046FFF7B0FD2046E3E794030020CA
:10274C00B4030020C6030020074808B5074A08490F
:10275C00121A01F0E4F8BDE808400648064A074999
:10276C00121A01F0DCB800BF00000020800000202D
:10277C00D04400080000002000000020D0440008D5
:10278C00034B1B680BB9FFF755BA0020704700BF0D
:10279C00C003002030B570B10B4B5B6898420AD077
:1027AC00036843B1D3E90421D0E90445121941EB84
:1027BC000501C3E90421D0E9003213605A600023FB
:1027CC00C0E9003330BD00BF3C00002010B50E4BFB
:1027DC001C689C4204D1FFF7D3FF6FF0004010BD82
:1027EC00FFF7CEFF002CF8D0D4E904321B1A62EBB1
:1027FC00E072B3F1004F72F10001EEDA002AACBFC7
:10280C0018460020EBE700BF3C000020B3F1FF3F6F
:10281C0008BFB2F1FF3FF8B504461D4616465ED020
:10282C008160EFF31187102383F31288BFF36F8F4E
:10283C00013275F1FF3324DA6FF001032D49D1E930
:10284C0000209B1A4FF0FF3262EB00009E1B60EBE6
:10285C000500012E70F1000301DA01260020C4E905
:10286C000460254ED6F800C07568B44508BF4FF01B
:10287C00000CBCF1000F0DD1C4E900652C60746034
:10288C001CE0FFF77DFF013645F10005361845EBDE
:10289C00E070E4E7DCE90420D4E90431934271EB05
:1028AC00000E1DDAD21ADCF8043060EB0100CCE922
:1028BC000420C4E900C31C60CCF804403368B34264
:1028CC0009D09C4207D10D4B1C6824B9FFF77EFF41
:1028DC002146FFF731F987F31188BFF36F8FF8BDED
:1028EC009B1A61EB0001AC45C4E90431C4D0DCF89F
:1028FC0000C0BEE7280200203C000020C0030020DE
:10290C002DE9F84FEFF3118C102383F31288BFF3EA
:10291C006F8FDFF8B0A0DFF8B0900024C9F800008A
:10292C00DAF800000025504508BF0020274FE0468C
:10293C00D7E90021D9F8003078B3D0E9046C4FEA1C
:10294C00E37EB3427EEB0C0B05DAF61A6CEB0E044D
:10295C00C0E9046421E0B21841EBE671C0E904451A
:10296C00C7E90021FFF716FF88F31188BFF36F8FBB
:10297C0083689847EFF31188102383F31288BFF311
:10298C006F8FD9F80030DAF800009B1B5045C44615
:10299C00C9F80030CBD1D7E9002100249A1841EBBB
:1029AC00E373C7E90023C9F80040FFF70FFF214686
:1029BC00FFF7C2F888F31188BFF36F8FBDE8F84FAB
:1029CC00FFF792BE3C000020C0030020280200202C
:1029DC0010B5EFF31184102383F31288BFF36F8FBC
:1029EC00FFF7CEFE0346054AD2E90001181841EB69
:1029FC00E37184F31188BFF36F8F10BD28020020A0
:102A0C00014800F0DBBA00BF844400080FB407B5DE
:102A1C0004AA064B52F8041B1868019200F008F83F
:102A2C0003B05DF804EB04B0704700BF9C41000894
:102A3C002DE9F04F43688DB015468046029383789C
:102A4C009A0740F10D8100240E78002E00F00A81C7
:102A5C00252E0BD04B1C0393013441463046029B70
:102A6C0098470028C0F2F6800399EDE74E788B1C4E
:102A7C00252E0393F0D00027B946BB46BBF11F0FA0
:102A8C0038D8A6F12003102B0AD8DFE803F02A0966
:102A9C0009300909092109090928092D09091F000B
:102AAC00A6F13003092B33D92A2E37D11BF0400F56
:102ABC0055F8043B40F08280002BA7BF4BF0200B55
:102ACC009946C3F100094BF0280B01E04BF0010BC8
:102ADC00039B13F8016B0393002ECFD130E04BF026
:102AEC00020B4BF0040BF3E74BF0080BF0E74BF049
:102AFC00100BEDE7BBF17F0F19D8A6F13003092BB2
:102B0C00D2D81BF0400F03D00A2101FB0737DFE7B7
:102B1C000A214BF0200B01FB0939D9E72E2E06D1E7
:102B2C001BF0400F40F09E804BF0400BD0E76C2E1A
:102B3C0031D02BD8682E36D06A2E3CD04C2E3AD0C1
:102B4C00002F46F02003B8BF2BF04002A3F1650123
:102B5C00BCBF00271FFA82FB022901D9612B2FD1A0
:102B6C0007350727DFF8ACA225F0070508351BF061
:102B7C00080F66D00AEB070B56465E4563D1A4EBF3
:102B8C000A0AA9EB070906EB0A026FE1742E9FD023
:102B9C007A2E9DD0D4E71BF0800F18BF4BF4007B2E
:102BAC004BF0800B94E71BF4807F18BF4BF4007B39
:102BBC004BF4807B8CE74BF4207B89E71F4687E73F
:102BCC00A6F16301122900F2F080DFE811F0130086
:102BDC004F00EE00EE00EE00EE004F00EE00EE00B7
:102BEC00EE00EE00EE00FE00E900EE00EE001B0031
:102BFC00EE00AF0055F8043B01270DF1180A8DF8D3
:102C0C001830B4E755F804AB834BBAF1000F08BF8A
:102C1C009A461BF0400F504614BF39464FF0FF3117
:102C2C0000F01DFF0746A2E741462020029B984773
:102C3C0000280FDB013EB742F6D34C44B146A41B2F
:102C4C0098E74E46F7E7414616F8010B029B98476A
:102C5C00002892DA98F8023043F0040388F8023026
:102C6C004FF0FF3420460DB0BDE8F08F1BF0800F05
:102C7C0034D01BF4007F2CD0073525F00705AA466D
:102C8C0069685AF8080B2BF010050029ADB237DA39
:102C9C00404245F4806561EB41010DF1180B0A23AC
:102CAC005A4600F0E8FEA0EB0B0301936B0662D5CD
:102CBC00019B25F001019F4289B240F3A180002EB7
:102CCC0000F0998015F0100240F09C80BB460D4638
:102CDC0023E0AA465AF8040BC117D4E7AA461BF402
:102CEC00807F5AF8041B01D10846F5E71BF4007FDE
:102CFC0019BF48B241F3C01108B241F3C031C2E769
:102D0C0050EA0103C9D11BF0400FC6D0002FC4D12B
:102D1C002BF01102BB46019795B240F2064115EA21
:102D2C0001021CBF0BF1010B00222CE02BF0100256
:102D3C000A231FFA82FB1BF0800C49D01BF4007194
:102D4C0015BF0735AA4625F007055AF8040B1EBF18
:102D5C00AA4669685AF8080B50EA010545D12BF0D0
:102D6C0016051BF0400FADB242D0002F40D12BF016
:102D7C001702019795B215F0100248D0019B002E56
:102D8C0042D103F1010B29075AD4EB0706D5D945DB
:102D9C006FDDA9EB0B030199CB465F185B4649E04D
:102DAC004BF0100B10237826C5E7782B04D1C6F115
:102DBC00780343F01003BEE741462520029B984759
:102DCC000028FFF647AF023447E608230026B2E797
:102DDC00AA461BF480715AF8040BBDD01BF4007189
:102DEC001ABFC0B2614680B2B6E72BF0060295B2AC
:102DFC000DF1180B54E725F01105BB46ADB28CE76D
:102E0C000D46B8E73B460D4603F1020BBBE7DDF878
:102E1C0004B082E7C6440008BF440008CDE9043280
:102E2C0041462020029B98470028FFF613AF049BD5
:102E3C00059A01339945F1DCA4EB0B019B46CC18A8
:102E4C000AB341463020029B98470028FFF602AF98
:102E5C008EB901342744391B019B994224DC1D4651
:102E6C0055BB019AA9EB0B095546224414469144D3
:102E7C0033E0019F92E7023441463046029B98476B
:102E8C000028E7DAE6E640F206410D42E2D015F002
:102E9C00020F04F10104414614BF2B20202015F42D
:102EAC00806F18BF2D20E9E741463020029B01348A
:102EBC0098470028CFDACDE606AB013D4146585D78
:102ECC00029B98470028CBDAC4E641462020029B9F
:102EDC00013498470028FFF6BDAEA9EB0403002B84
:102EEC00F3DCC1E5704700EBC10040884008704737
:102EFC00F8B50346FFF7F7FFB0FA80F0C0F11F00FA
:102F0C0003EB800CDCF81060CA00171D0C4606326F
:102F1C008DB256B9012101FA00F0D9680143D9608C
:102F2C00CCF81040DD539D52F8BDF1000431585AD5
:102F3C00D85303EBC0009E52C5805D52F4E7043AAF
:102F4C002DE9F041CC1D114424F0070421F00701B8
:102F5C000E1BF708B7FA87F24FF00008C2F12405F0
:102F6C00AD000735C2F12002ED0804604146A760B0
:102F7C00C4F80C80920004F1100000F068FD6B00A6
:102F8C0043F0010363807B1B04EBC5025900A4F8DA
:102F9C0000805180A21924F83550A2F80280A35366
:102FAC0004EBC7035A88294642F001025A80204696
:102FBC00BDE8F041FFF79CBF002070470FB407B588
:102FCC0004A951F8040B0191FDF7E6FA03B05DF882
:102FDC0004EB04B070477047012801D1EFF305836F
:102FEC00FEF7E6BE01460068FFF7F6BF00210120A0
:102FFC00FFF7F2BF036E83F30B88704761B662B6BE
:10300C0080F31188BFF36F8F704772B6002383F380
:10301C001188BFF36F8FBFF34F8F30BF62B6BFF312
:10302C006F8F704740E800F313F4803FD8B208BFAD
:10303C006FF01500704730B50C684B6885B00A8985
:10304C004D890094013B24F01F04234402F01F021D
:10305C0042EA451223F01F0369468DF808200393BA
:10306C00FDF7F0FD05B030BD08B5FDF7ABFF002056
:10307C0008BD002008B50B21FDF7F2FF0246014602
:10308C000B20FDF70BFD00220C210120FDF7E8FFC2
:10309C0011460C20FDF702FD00220D210220FDF748
:1030AC00DFFF11460D20FDF7F9FC00220E21032055
:1030BC00FDF7D6FF11460E20FDF7F0FC00220F2184
:1030CC000420FDF7CDFF11460F20FDF7E7FC002291
:1030DC0010210520FDF7C4FF11461020FDF7DEFC82
:1030EC00002211210620FDF7BBFF11461120FDF730
:1030FC00D5FC002212210720FDF7B2FF1146122049
:10310C00FDF7CCFC002213210820FDF7A9FF114686
:10311C001320FDF7C3FC002214210920FDF7A0FFAA
:10312C0011461420FDF7BAFC002215210A20FDF7E8
:10313C0097FF11461520FDF7B1FC002216210B203C
:10314C00FDF78EFF11461620FDF7A8FC0022172173
:10315C000C20FDF785FF11461720FDF79FFC002280
:10316C0018210D20FDF77CFF11461820FDF796FC69
:10317C00002219210E20FDF773FF11461920FDF7CF
:10318C008DFC00221A210F20FDF76AFF11461A2030
:10319C00FDF784FC002008BD01208840704710B565
:1031AC000F24C20000F00C0000F1884000F508303C
:1031BC00036E02F01802944023EA040391400B437F
:1031CC00036610BD0B6882B0A3F18802202A12D8C6
:1031DC0003F1884303F503331A684868024300205F
:1031EC001A600B6803F1884303F503331B680193E2
:1031FC00019B02B070476FF08500FAE70B68A3F1F2
:10320C008802202A9FBF03F1884303F503331A6811
:10321C0049689BBF00208A436FF085001A60704795
:10322C000E2809D847F61A73C34013F0010F14BFC8
:10323C0000206FF0850070476FF08500704708B56F
:10324C000868FFF7EDFF00280EDB4968CBB203F1ED
:10325C00884303F503331868C1F30242C1F3042118
:10326C008A40024300201A6008BD436800205B6856
:10327C001B690B60704743685B68586942400A40A1
:10328C0042405A6100207047436800205B68996196
:10329C007047436800205B68996270474368002060
:1032AC005A6853694B405361704710B5036998686D
:1032BC00F8B1884219D1DC680868A142986000D145
:1032CC00D860002008602AB19A680A60DA689960B0
:1032DC0002B9D960002010E0814206D10868206054
:1032EC00D8688142EDD1DC60EBE704460068002829
:1032FC00F2D1002AE8D16FF0150010BDF0B544688A
:10330C000120676888401E46C2F3801327EA000735
:10331C008B403B4390FAA0F7B7FA87F74FF0030EB8
:10332C006360D4F808C07F000EFA07F72CEA070C8C
:10333C0090FAA0F7B7FA87F7C2F3C1137F00BB402E
:10334C0043EA0C03A36090FAA0F3B3FA83F3E768A3
:10335C005B000EFA03F327EA030790FAA0F3B3FA23
:10336C0083F302F030055B00C2F341229A403A43EA
:10337C00202DE26016D107292BD890FAA0F3226AEF
:10338C002BB3B3FA83F30F219B0001FA03F322EA68
:10339C00030290FAA0F3B3FA83F39B0006FA03F34B
:1033AC001343236290FAA0F3B3FA83F390FAA0F0DC
:1033BC000321B0FA80F022685B002D0901FA03F3B7
:1033CC00400022EA030385401D432560F0BD2B46D7
:1033DC00D9E7030A616A93FAA3F282B1B2FA82F2D4
:1033EC0093FAA3F30F27B3FA83F3920007FA02F2CE
:1033FC009B0021EA02029E4016436662D2E72A46EF
:10340C00EEE7F8B512F4003C0C461346066927D0DB
:10341C0091071ED55A0740F181805022DF0603F434
:10342C00403518D542F4007225B1316921FA04F700
:10343C00FF0746D51F03416869D501234968A3409E
:10344C008B61002321464068FFF758FF002D4CD1BB
:10345C0014E01022E2E79906E6D542F48062E3E735
:10346C00D70302F4403520D5DA0612D5002D46D10B
:10347C002B464FF400724068FFF740FF336923FA84
:10348C0004F2D20731D50122A24023EA02033361B0
:10349C002BE013F0200704D04DBB2B464FF4806279
:1034AC00E9E7B5B92B462A46E5E715B92B46302294
:1034BC00E1E7316921FA04F212F0010F4FF030020A
:1034CC000ED10127A74039433161BCF1000FB1D1B6
:1034DC0006E0316921FA04F212F00102F1D03A4609
:1034EC00002321464068FFF709FF0020F8BD316931
:1034FC0021FA04F212F0010F4FF48062E0E7316917
:10350C0021FA04F212F0010F4FF40072D8E75F03B6
:10351C0041BF01234968A3408B6292E76FF085009D
:10352C00E4E770B50B468968054611B15E680C6816
:10353C0001B970BD8A682A4002D030464B68984762
:10354C001CB1236821461C46F2E72346FAE7F8B57E
:10355C001F46044640680E461546FFF7CFFE112F56
:10356C0008D1012303FA06F663682A055B684CBF91
:10357C009E619E620020F8BD30B50368136005792A
:10358C00046804EBC504A34202D36FF0010030BD04
:10359C005C798C4201D00833F0E70020F7E74368F0
:1035AC00C1F34B101B6801F01F01C05801238B4065
:1035BC00034214BF0123002300201370704710B581
:1035CC004368C1F34B101A680123845801F01F01A2
:1035DC008B4023438350002010BD012210B543685B
:1035EC00C1F34B14186801F01F0123588A4023EAD9
:1035FC0002032350002010BD38B504460D46FFF7DA
:10360C00DEFF29462046FFF7E8FF002038BDB0F565
:10361C00805F07D0B0F1805F09D1002914BF012071
:10362C0002207047002914BF032004207047002992
:10363C0014BF02200320704743681B68D869DA69FD
:10364C00C0F3C000D107DA6948BF40F0020092070E
:10365C00DA6948BF40F004005107DA6948BF40F00E
:10366C002000D20542BF4FF4807240F008001A626D
:10367C00C10744BF08221A62820744BF01221A62A2
:10368C00410744BF02221A62820644BF04221A6216
:10369C00704710B5436810201B68DA691206FCD518
:1036AC00EFF3118280F31288BFF36F8FDC6924066D
:1036BC0004D482F31188BFF36F8FEEE7996282F323
:1036CC001188BFF36F8F10BD43681B68DA69100750
:1036DC0044BF08221A62DA69920643BF5B6A002073
:1036EC000B704FF0FF30704710B5026904465268FA
:1036FC000B4612680A6042681268126802F4C062D3
:10370C00B2F5806F33D0A2F5C060424242411A71CB
:10371C0062681268526802F44052B2F5805F28D099
:10372C00B2F5405F27D0002A0CBF012203225A7148
:10373C00626812681068116800F0102001F4C06112
:10374C00FFF765FF9871626800201268926802F4B6
:10375C004072A2F540714A424A41DA7161680968C7
:10376C00896811F4804F18BF0322DA7110BD022250
:10377C00CDE70022DBE70222D9E72DE9F8430C79EB
:10378C000369012C05460E46D0F804905F6814D0EE
:10379C00A01ED0F1000848EB00084FEA88284846E4
:1037AC007179FDF7CFFEB379022B09D0042B30D001
:1037BC00231E18BF01231B0306E04FF4C068EEE77D
:1037CC00B4FA84F35B091B07F279D9F80010012ACB
:1037DC0014BF00244FF44074B7421DD10A6822F084
:1037EC00805222F4B05242EA08021A430A604B6833
:1037FC0023F4405303434B606B6828461A68936864
:10380C0023F44073234393603968BDE8F843FDF714
:10381C00D7BE4FF48053D7E7D1F800C00CF4C06C7E
:10382C00E0451FBFD1F800C02CF4C06C4CEA080C6A
:10383C00C1F800C06968D1F800C0DCF8041001F4CC
:10384C00405188421FBFDCF8041021F44051014361
:10385C00CCF8041069680868016801F010218B42EB
:10386C001FBF016821F010210B4303606B681968BE
:10387C008B6803F440739C421FBF8B6823F4407326
:10388C0023438B606B681B689968490405D5032A30
:10389C0009D09A6822F4804204E0032A03D19A6882
:1038AC0042F480429A6031683B68994204D02846C1
:1038BC00FDF786FE33683B60BDE8F883704740B186
:1038CC00C368587810F001001EBF1878B0FA80F069
:1038DC0040097047EFF31183102383F31288BFF371
:1038EC006F8FFEE708B5FFF7F5FF10B5D0E9003490
:1038FC0033B90020E268537843F00103537010BDD4
:10390C00204698470028F4D00028B8BF4042FF2832
:10391C00A8BFFF20E3681870ECE700F098B800F03F
:10392C0089B87047102408B5EFF3118384F312881B
:10393C00BFF36F8FFFF769FBF6E7D0E90032136036
:10394C005A600023C0E90033704708B5FFF7F5FF54
:10395C00437B23F0020343730023836008BD10B53F
:10396C00EFF31184102383F31288BFF36F8FFEF7EC
:10397C00C5FB84F31188BFF36F8F10BD014610B5E2
:10398C00EFF31184102383F31288BFF36F8F437B03
:10399C0013F0280F0AD183680BB1FFF7D6FF4B7BCE
:1039AC00084623F010034B73FEF7A8FB84F3118831
:1039BC00BFF36F8F10BD01211838FFF7DFBFEFF396
:1039CC001181102282F31288BFF36F8F027BD20712
:1039DC000CD581F31188BFF36F8F002383F311880B
:1039EC00BFF36F8F0423184602DF7047437B1B071E
:1039FC0004D581F31188BFF36F8F70470122FEF756
:103A0C00C5BB10B5EFF31184102282F31288BFF3FB
:103A1C006F8F03683BB1FEF7BDFE002084F3118865
:103A2C00BFF36F8F10BD6FF01500F7E708B5FEF709
:103A3C00CFFF08BD0A44431E914200D1704710B518
:103A4C0011F8014B914203F8014FF9D110BD02441A
:103A5C000346934200D1704703F8011BF9E7024675
:103A6C00014410B58A42134603D01C780132002C55
:103A7C00F8D1181A10BDF0B5C3F13707044603F09E
:103A8C001F031046FFB2082BE6B232D0102B3DD0EC
:103A9C006508A40845EAC17544EA81748A082D19A1
:103AAC0042EB5102290941EA02716D1842EB1212E4
:103ABC00290A41EA02616D1842EB1222290C41EAF3
:103ACC0002416D1842EB1242AD1842F10002EC08B3
:103ADC0044EA4274D10804EB8402A6EB4205EDB231
:103AEC00092D0CD90134A5F10A0541F10001EDB203
:103AFC0012E0E40806F0070544EA4174C9083035C1
:103B0C0054EA010200F8015BBDD1F0BD240906F0B6
:103B1C000F0544EA01740909092D84BFED19EDB2B2
:103B2C00EDE70000014800687047000030020020FB
:083B3C0044C7FF7F01000000F7
:103B440029120008D43B0008090600080000000000
:103B540000000000E83B00089D140008883C0008B1
:103B64009D1400084C3C00089D140008383C0008D3
:103B74007F300008FC3B00089D140008743C0008DA
:103B84009D140008B03C00089D1400089C3C0008EB
:103B94009D140008603C00089D140008243C0008A3
:103BA4009D140008103C000851180008D83C000877
:103BB40051180008C43C00089D13000800000000D0
:103BC400AD1A000800000000F90F00080000000012
:103BD400C3430008000000003841000866000020CC
:103BE400000000004E4400089442000828410008E8
:103BF4007A00002000000000A54300080000000037
:103C0400000000006400002058020020D043000897
:103C1400A04100080441000868000020D8020020E8
:103C2400DE430008B4410008044100086A00002093
:103C3400EC020020EC430008C841000804410008DD
:103C44006C00002000030020FA430008DC41000857
:103C5400044100086E0000201403002008440008FA
:103C6400F0410008044100087000002028030020EF
:103C740016440008044200080441000872000020B1
:103C84003C030020244400081842000804410008B2
:103C94007400002050030020324400082C42000825
:103CA400044100087600002064030020404400081A
:103CB40040420008044100087800002078030020F6
:103CC4005F44000898420008544100087C0000202A
:103CD400180000206F440008E44200085441000822
:083CE4007E00002028000020F2
:103CEC0000000000F92F000800000000F92F000868
:103CFC0000000000F92F000800000000F92F000858
:103D0C0000000000F92F000800000000F92F000847
:103D1C0000000000F92F000800000000F92F000837
:103D2C0000000000F92F000800000000F92F000827
:103D3C0000000000F92F0008A34300081D10000824
:103D4C00A14300081D1000089F4300081D10000827
:103D5C009D4300081D1000089B4300081D1000081F
:103D6C00994300081D100008974300081D10000817
:103D7C00954300081D100008934300081D1000080F
:103D8C00914300081D1000088F4300081D10000807
:103D9C008D4300081D1000088B4300081D100008FF
:103DAC00894300081D100008874300081D100008F7
:103DBC00854300081D10000800000000F92F0008C2
:103DCC0000000000F92F000800000000F92F000887
:103DDC0000000000F92F000800000000F92F000877
:103DEC0000000000F92F000800000000F92F000867
:103DFC0000000000F92F000800000000F92F000857
:103E0C0000000000F92F000800000000F92F000846
:103E1C0000000000F92F000800000000F92F000836
:103E2C0000000000F92F000800000000F92F000826
:103E3C0000000000F92F000800000000F92F000816
:103E4C0000000000F92F000800000000F92F000806
:103E5C0000000000F92F000800000000F92F0008F6
:103E6C0000000000F92F000800000000F92F0008E6
:103E7C0000000000F92F000800000000F92F0008D6
:103E8C0000000000F92F000800000000F92F0008C6
:103E9C0000000000F92F000800000000F92F0008B6
:103EAC0000000000F92F000800000000F92F0008A6
:103EBC0000000000F92F000800000000F92F000896
:103ECC0000000000F92F000800000000F92F000886
:103EDC0000000000F92F000800000000F92F000876
:103EEC0000000000F92F000800000000F92F000866
:103EFC0000000000F92F000800000000F92F000856
:103F0C0000000000F92F000800000000F92F000845
:103F1C0000000000F92F000800000000F92F000835
:103F2C0000000000F92F000800000000F92F000825
:103F3C0000000000F92F000800000000F92F000815
:103F4C0000000000F92F000800000000F92F000805
:103F5C0000000000F92F000800000000F92F0008F5
:103F6C0000000000F92F000800000000F92F0008E5
:103F7C0000000000F92F000800000000F92F0008D5
:103F8C0000000000F92F000800000000F92F0008C5
:103F9C0000000000F92F000800000000F92F0008B5
:103FAC0000000000F92F000800000000F92F0008A5
:103FBC0000000000F92F000800000000F92F000895
:103FCC0000000000F92F000800000000F92F000885
:103FDC0000000000F92F000800000000F92F000875
:103FEC0000000000F92F000800000000F92F000865
:103FFC0000000000F92F000800000000F92F000855
:10400C0000000000F92F000800000000F92F000844
:10401C0000000000F92F000800000000F92F000834
:10402C0000000000F92F000800000000F92F000824
:10403C0000000000F92F000800000000F92F000814
:10404C0000000000F92F000800000000F92F000804
:10405C0000000000F92F000800000000F92F0008F4
:10406C0000000000F92F000800000000F92F0008E4
:10407C0000000000F92F000800000000F92F0008D4
:10408C0000000000F92F000800000000F92F0008C4
:10409C0000000000F92F000800000000F92F0008B4
:1040AC0000000000F92F000800000000F92F0008A4
:1040BC0000000000F92F000800000000F92F000894
:1040CC0000000000F92F000800000000F92F000884
:1040DC0000000000F92F000800000000F92F000874
:1040EC0000000000F92F000800000000F92F000864
:0840FC0000000000F92F00088C
:104104000F34000877320008833200089532000823
:104114009F320008A9320008ED130008B7320008E6
:044124000000000097
:10412800AB350008CB350008E73500080536000830
:10413800D13100080932000800000000951100087C
:0C41480000000000000000004B320008E6
:10415400D53600089F360008453600088916000841
:04416400F536000824
:10416800000000200000000006000100020000001E
:104178007C410008000000087643000806000000A3
:10418800E0FF1F08000000207E4300082100000017
:10419800E0FF032008000020FFFF0000002002428B
:1041A800080000008C00000000010000FFFF000074
:1041B800001C0242070000008C0000008000000084
:1041C800FFFF000000180242060000008C000000FB
:1041D80040000000FFFF000000140242050000003C
:1041E8008C00000020000000FFFF000000100242C9
:1041F800040000008C00000010000000FFFF000019
:10420800000C0242030000008C00000008000000BF
:10421800FFFF000000080242020000008C000000BE
:1042280004000000FFFF000000040242010000003B
:104238008C00000002000000FFFF000000000242A6
:10424800000000008C00000001000000B03C0008E5
:104258009C3C0008883C0008743C0008603C00084E
:104268004C3C0008383C0008243C0008103C00087E
:104278000000000000000000000000000000000036
:10428800000000000000000000000000000C0244D4
:1042980000240044E83B000806100000BC42000867
:1042A8000100000000000000000000000000000005
:1042B800C4420008A800000040000000CC420008EA
:1042C80001000000D442000802000000C8020000FB
:1042D80000020000E8020000000000000048004062
:1042E800E83B0008920E00000843000801000000A7
:1042F800000000000000000000000000104300085B
:104308009C000000000004001843000801000000A1
:104318002043000802000000070700000002000018
:104328002707000000000000443B0008443B000849
:10433800C43B0008CC3B0008D43B0008D43B000831
:10434800010002000400060008000A000C0010002A
:1043580020004000800000014F4E004F4646004CB0
:1043680045442073746174653A2025730A00464CED
:104378004153485F30005352414D5F30000F010EEA
:10438800010D010C010B010A0109010801070106D1
:1043980001050104010301020101010001696E74B4
:1043A8006572727570742D636F6E74726F6C6C6564
:1043B800724034343032323030300072636340340B
:1043C80034303230633030006770696F40343230D7
:1043D8003232303030006770696F403432303231F9
:1043E800633030006770696F4034323032313830B2
:1043F80030006770696F4034323032313430300009
:104408006770696F40343230323130303000677055
:10441800696F403432303230633030006770696F12
:10442800403432303230383030006770696F403491
:1044380032303230343030006770696F4034323097
:1044480032303030300072657365742D636F6E746E
:10445800726F6C6C65720073657269616C4034349C
:104468003030323430300073657269616C403430FA
:10447800303034383030006D61696E002A2A2A20C5
:10448800426F6F74696E67205A6570687972204F41
:1044980053206275696C642076342E302E302D31AD
:1044A8003338392D67336330636464313464386377
:1044B80030202A2A2A0A00286E756C6C29002A6680
:0844C8006C6F61742A00000012
:1044D000C52F0008710600080000000075300008B4
:1044E000000000000000000000000000200000208C
:1044F00000C20100000103000000000030000020A5
:1045000000C20100000103000090D0033C00002025
:104510003C000020FF00FF00FF00FF00FF00FF0045
:10452000FF00FF00FF00FF00FF00FF00FF00FF0093
:04453000FF00FF0089
:104534000000000000000000000000000000000077
:0C4544000000000000000000000000006B
:0445500015E015E07D
:04000005080009796D
:00000001FF
