:020000040800F2
:1000000018190020D90B0008BD080008C50B00080E
:10001000C50B0008C50B0008C50B0008C50B000880
:10002000000000000000000000000000C90C0008F3
:10003000C50B000800000000610C00086D1F0008DF
:10004000210E0008210E0008210E0008210E0008D4
:10005000210E0008210E0008210E0008210E0008C4
:10006000210E0008210E0008210E0008210E0008B4
:10007000210E0008210E0008210E0008210E0008A4
:10024C0053B94AB9002908BF00281CBF4FF0FF3131
:10025C004FF0FF3000F00CB8ADF1080C6DE904CE96
:10026C0000F012F8DDF804E0DDE9022304B0704779
:10027C00704700BF10F8012B11F8013B012A28BF71
:10028C009A42F7D0D01A70472DE9F04786468C4633
:10029C000846089E154674461946002B40F0C1804E
:1002AC008542B2FA82F245D94AB1C2F1200300FA72
:1002BC0002FC954094402EFA03F343EA0C0C4FEAEF
:1002CC00154EA8B2230CBCFBFEF80EFB18CC08FB99
:1002DC0000F943EA0C43994528D9EB1808F1FF378C
:1002EC0004D2994502D9A8F102072B44A3EB0903C8
:1002FC00A4B2B3FBFEFC0EFB1C330CFB00F044EA77
:10030C000344A04214D92C190CF1FF3304D2A0429F
:10031C0002D9ACF102032C44241A43EA07401EB163
:10032C00D440002334607360BDE8F0874746DDE7B6
:10033C006346F1E792BB431B01214FEA154EAFB266
:10034C00200CB3FBFEFC0EFB1C330CFB07F840EA45
:10035C000343984561D9EB180CF1FF3004D2984552
:10036C0002D9ACF102002B44A3EB0803A4B2B3FBFB
:10037C00FEFC0EFB1C330CFB07F744EA0344A742BC
:10038C004DD92C190CF1FF3304D2A74202D9ACF190
:10039C0002032C44E41B43EA0040C0E7C2F12003F3
:1003AC009540944020FA03F12EFA03F34FEA154ED0
:1003BC009040AFB20343B1FBFEFC0EFB1C10190CBA
:1003CC000CFB07F841EA0041884522D969180CF169
:1003DC00FF3004D2884502D9ACF102002944A1EBCC
:1003EC0008019BB2B1FBFEFC0EFB1C110CFB07F7CA
:1003FC0043EA01439F420ED9EB180CF1FF3104D2B2
:10040C009F4202D9ACF102012B44DB1B41EA0041B3
:10041C0093E76046E3E76146F7E76046A4E7634687
:10042C00B8E7834206D916B9002108467CE7C6E92D
:10043C0000E0F9E7B3FA83F78FB9834201D3724531
:10044C0008D8BEEB020460EB030301209C461EB9E6
:10045C00002169E73846FAE7C6E9004CF8E7C7F12E
:10046C00200CBB400EFA07F522FA0CF42EFA0CF114
:10047C00BA401C4320FA0CF3B8404FEA144901432C
:10048C001FFA84FEB3FBF9F809FB18300B0C08FBC0
:10049C000EFA43EA00439A4540D9E31808F1FF30BD
:1004AC0004D29A4502D9A8F102002344A3EB0A0313
:1004BC0089B2B3FBF9F809FB183308FB0EFE41EACD
:1004CC0003418E452CD9611808F1FF3304D28E45B7
:1004DC0002D9A8F10203214443EA0040A1EB0E012A
:1004EC00A0FB02984145CE46434602D306D14D456A
:1004FC0004D20138B9EB020E68EB0403002EA7D02E
:10050C00B5EB0E0261EB030101FA0CFC22FA07F3C6
:10051C00F9404CEA0303C6E9003199E74046C5E7C8
:10052C004346D9E7836823B19B6C13B10022014980
:10053C0018477047290700082DE9F04104460D467D
:10054C00164600214FF48072124803F0B6FE204686
:10055C00114902F0B6FF1A24104FDFF83880013C25
:10056C0005D10F48294603F029F8204610E06420F5
:10057C0002F0A2FF3946404603F0C3FE0028EED03D
:10058C000848294603F01AF8012033680133336018
:10059C00BDE8F081D10A00204C4D00084F4D0008F9
:1005AC00694D0008574D000873B5444803F006F830
:1005BC00434802F067FF434802F064FF424802F0F0
:1005CC0061FF424802F059FF414802F056FF414892
:1005DC0002F053FF3D48FFF7A5FF3D48FFF7A2FF90
:1005EC003C48FFF79FFF00233B4901AA3748019382
:1005FC00FFF7A2FF394901AA04463548FFF79CFFD3
:10060C00374901AA3348FFF797FF40F6C41002F0B0
:10061C0053FF344802F0D2FF0199002947DD3248DC
:10062C0002F0CCFFF4B1314802F0C8FF3049274842
:10063C0002F047FF4FF4FA6002F03EFF2D492E48BE
:10064C0002F0BCFF4FF4FA6002F036FF2B491F4852
:10065C0002F037FF4FF4FA6002F02EFF25492648CE
:10066C0002F0ACFF4FF47A7002F026FF244802F03F
:10067C00A5FF2449154802F024FF234E234D1D4CA1
:10068C00337883B129462046FFF7F4FD58B1214653
:10069C001F4802F093FF4FF480722146284603F066
:1006AC0014FE00F07DF80A2002F006FFE8E7194876
:1006BC0002F084FF184802F081FFB3E7804D000878
:1006CC00A84A0008A04A0008984A0008D04500082B
:1006DC00A845000894450008AE4D0008B34D00082D
:1006EC00B74D0008BD4D0008DC4D0008404E000819
:1006FC00594E0008D10A0020664E00086E4E0008C4
:10070C007E4E0008984E0008D00A0020D008002029
:10071C00C64E0008FD4D00081C4E0008F7B50446F7
:10072C0083685B6C23BBA3685B6B33BB184D194EA2
:10073C00A3689B69FBB1012220460DF10701984784
:10074C00012818D19DF807202B680A2A01D00D2A00
:10075C0018D1002BECDD00274FF480720D490E48A8
:10076C00F75403F0B2FD01220C4B2F601A70DFE737
:10077C0098470028D7D103B0F0BD204698470028F1
:10078C00D4D1F8E7FE2B9EBF591C2960F254CFE759
:10079C0038070020D0090020D10A0020D00A002000
:1007AC004FF4807208B50021034803F086FD002247
:1007BC00024B1A7008BD00BFD10A0020D00A0020DD
:1007CC00014B1B68184700BFC0040020014B186088
:1007DC00704700BFC004002030B585B004460D46FC
:1007EC0010220021684603F068FD02238DF80230C8
:1007FC00044B2A4621466846019302F0E3FB05B000
:10080C0030BD00BFCD07000880B505460E46174623
:10081C00984602F0E7F9034603F0E0FD0446DFF8E2
:10082C001890424649F8003039463046A84754F8EB
:10083C00090000F0E1F900BF0800000000200A4B9D
:10084C0082B0D3F8882042F00102C3F88820D3F894
:10085C008830064A03F001030193019B536843F06F
:10086C000203536002B07047000C02440040024483
:10087C00084B1A6822F004021A601A6842F001024E
:10088C001A60054B054A1A60054AD36A43F0010306
:10089C00D362704700040340380500200048E8018B
:1008AC0000080244014B036000207047B04A000866
:1008BC0008B5034B1B689847BDE8084000F026B804
:1008CC00C404002030BFFFF7FDBF00BF2DE9F0418D
:1008DC0005460B4EDFF82C80324606EB0807CC1B86
:1008EC002046094903F0DCFCA01942460021083CD3
:1008FC0003F0E3FC2C6707F10800BDE8F08100BFB2
:10090C000000000004000000984A0008074A9368A1
:10091C0093F90E10002907DB526993421FBF044A5A
:10092C00536843F080535360704700BFA008002009
:10093C0000ED00E0154B9A6A12F0007F9A6A14BF22
:10094C001E201D2012F0807F9A6A18BF1F2012F4FF
:10095C00801F9A6A18BF022012F4002F9A6A18BFDF
:10096C00212012F4802F9A6A18BF222012F4003F23
:10097C009A6A18BF232012F4803F9A6A18BF242069
:10098C006FEA02426FEA12429A62704700ED00E091
:10099C0010B5194B0246986A9C6A10F4805F14BF1C
:1009AC001720162014F4006F9C6A18BF1820A40599
:1009BC0009D5986B986A000404D51AB19A6A22F486
:1009CC0000429A6219200C4B9A6A12F4806F9A6A50
:1009DC0018BF1A20D2050CD49B6A13F4005F18BF01
:1009EC001C20054A936A43F47F43936200230B70E7
:1009FC0010BD1B20F5E700BF00ED00E010B51C4B4F
:100A0C000246986A9C6A10F0100F14BF1120102037
:100A1C0014F0080F9C6A18BF1220A40709D5586B54
:100A2C00986A000604D51AB19A6A22F080029A627A
:100A3C0013200F4B9A6A12F0010F9A6A18BF1420F8
:100A4C0012F0200F9A6A18BF1520D40658BF9B6A63
:100A5C00074B9A6A920642BF5A6A22F400525A62B3
:100A6C009A6A42F0FF029A6200230B7010BD00BF1D
:100A7C0000ED00E0F0B5474B04465B6800258BB0F9
:100A8C00C3F3080385F31188BFF36F8F02F07F4027
:100A9C00B0F17F4F11D102F00C0008280DD01007D7
:100AAC004CBF0C4601250022033B8DF80720032B7D
:100ABC0005D8DFE803F02462665F2C46F3E70023D9
:100ACC009DF80720CAB902AE04F12007324620680F
:100ADC006168083403C2BC421646F7D1099A002D4E
:100AEC0053D0C2F3080121B96FEA52226FEA4222B5
:100AFC000992184602A902F06FFD0BB0F0BD254B10
:100B0C00DA6A9107DBD4DA6A002AD8DBDA6A520097
:100B1C00D5D55A69A16942F480725A61BFF34F8FDF
:100B2C00BFF36F8F5A6931F8021C22F480725A613C
:100B3C00BFF34F8FBFF36F8F4DF60272914209D006
:100B4C009A6AD2B242B101200DF10701FFF756FFAC
:100B5C000346B5E72368B3E79A6A12F47F4F05D0D2
:100B6C0001200DF10701FFF713FFF1E79B6AB3F5C5
:100B7C00803FA4D3FFF7DEFEEAE700200DF107016A
:100B8C00E4E700200DF10701EDE722F4FF7222F0FB
:100B9C000102ADE700ED00E0064B5A6942F010028D
:100BAC005A615A6942F480625A615A6922F0080209
:100BBC005A61704700ED00E0EFF30880EFF3098114
:100BCC0001B57246FFF756FF01BD00BF102080F340
:100BDC00118808484FF40061401880F30988EFF33E
:100BEC0014800221084380F31488BFF36F8F00F048
:100BFC009BF80000D80B0020084B9B6883420BD15C
:100C0C00EFF3058343B1064B5A6842F080525A60A9
:100C1C005A6A22F400425A6203F007BBA008002073
:100C2C0000ED00E06FF00A01084A936899670849E3
:100C3C0058674B6843F080534B60002383F3118853
:100C4C00BFF36F8F9368986F704700BFA0080020A8
:100C5C0000ED00E016498A684FF030001044EFF3C5
:100C6C00098C80E8F01F102080F31288BFF36F8F7F
:100C7C00104F4FF000664A698A603E604FF0700476
:100C8C00141920680C4C2060506F0023536780F3BC
:100C9C00118802F1300090E8F01F8CF3098802F102
:100CAC00000004B502F0A6FCBDE80440704700004B
:100CBC00A008002004ED00E03C0700201EF0040F0B
:100CCC000CBFEFF30880EFF30980816911F8021C67
:100CDC000229FFD001B5724602F084FC01BD00BFB1
:100CEC0000B2002807DB01234109034A00F01F0072
:100CFC00834042F82130704700E100E000B2002848
:100D0C0001F10101ACBF00F16040064B4FEA01114B
:100D1C00C9B2ABBF00F5614000F00F0080F80013C2
:100D2C001954704714ED00E00F4A08B50F4B22F030
:100D3C007F029A60BFF34F8FBFF36F8FD3F8882079
:100D4C0022F47002C3F88820EFF3148323F0040319
:100D5C0083F31488BFF36F8F01F096FB01F0D0FF83
:100D6C0000F04CF801F0D0FB0000000800ED00E0B2
:100D7C0042F8203C009B0B4942F81C3C019B21F0A3
:100D8C00010142F8183C029B42F8081C42F8143C42
:100D9C004FF0807342F8043C0023203A026543670D
:100DAC00704700BF1508000800B50D4B154698603C
:100DBC00026F0C4B0E461A60036E83F30B882C46A5
:100DCC0086F309884FF00000074B984720464FF0F8
:100DDC0000014FF000024FF00003044C204700BF0D
:100DEC00A00800203C070020093600081508000860
:100DFC001022014B1A61704700ED00E00023102116
:100E0C000348C2180133832B82F80013F9D17047C1
:100E1C0000E100E008B5EFF30583064A103B02EB56
:100E2C00C30152F8330049688847BDE80840FFF712
:100E3C006DBD00BFE44500081FB5094C094A2346A7
:100E4C000121094800F0FAF800230393074B012114
:100E5C00E41A01A80193029400F0FAF804B010BD52
:100E6C000000042000000020B04A00088805002083
:100E7C0010B50C7A0B6804F01F0223F01F031A4301
:100E8C00CB68640923F01F03054943EA440343F08C
:100E9C000103C1F89800C1F89C20C1F8A03010BD26
:100EAC0000ED00E010B5074BD3F89030C3F30723E7
:100EBC00013B984202D8FFF7DBFF10BD6FF0150025
:100ECC00FBE700BF00ED00E02DE9F04F0F461446A4
:100EDC0006464FF000084D4D85B0B84580F2928023
:100EEC00D6F80490B9F1000F36D0B9F11F0F40F2CB
:100EFC00878019F01F0F40F08380D6F800A01AF0FD
:100F0C001F0F7DD1504602F08DFB834609EB0A0082
:100F1C00013802F087FB834572D11BF1160F6FD09D
:100F2C005C456DDDC5F898B0D5F89C10C5F898B047
:100F3C00D5F8A03021F01F0143F01F0AD6E900328A
:100F4C001A44994202F1FF391ED1CA4508D13146E3
:100F5C005FFA8BF002F06FFB08F101080C36BCE76E
:100F6C003146C5F898B0D5F89C3022F01F0203F03A
:100F7C001F031343C5F89C30E0B202F05CFB10F188
:100F8C00160F3DD0441CE7E7C5F898B0D5F8A02063
:100F9C00013B23F01F0302F01F021343CA453146E5
:100FAC00E0B2C5F8A030E8D002F045FB10F1160F06
:100FBC0026D0C5F898B0D5F89C209DF808300AF1D9
:100FCC00FF3A62F304038DF80830D5F8A0309DF891
:100FDC0008205B0863F347128DF80820D6E900322D
:100FEC001344009323F01F035344A3EB0903013074
:100FFC0023F01F036946C0B20393FFF753FFBEE70C
:10100C006FF01504204605B0BDE8F08F00ED00E050
:10101C000522044BC3F89420BFF34F8FBFF36F8F9F
:10102C00704700BF00ED00E0BFF35F8F0022024B62
:10103C00C3F89420704700BF00ED00E010B5034CDE
:10104C002278FFF741FF207010BD00BFD10B0020AC
:10105C002DE9F74F294D8A4606464FF00008AB465E
:10106C00274FD0451BDAD6F80490B9F1000F3FD0CA
:10107C0031680846019102F0D5FA0199044609EB52
:10108C000100013802F0CEFA84424FF014021D4BDD
:10109C0008D002FB08F36FF015024BF8032003B0E5
:1010AC00BDE8F08F14F1160F2C60F8D01978A1421E
:1010BC00F5DD02FB08B0C7F89840C7F89840D7F8A0
:1010CC009C4000F10801007B64F304000871D7F820
:1010DC00A0000C79400860F347140C71D7F89C10F1
:1010EC0021F01F016960D7F8A01021F01F012961C0
:1010FC0008F1010814350C36B3E700BF4007002097
:10110C0000ED00E0D10B0020F0B54149414CD1F885
:10111C0090302568C3F307239D4287B075D8002013
:10112C00FFF782FF3C4BC1F8C030854216D13B4CD7
:10113C0001A82570FFF7B6FB00250646384FAE42D6
:10114C0013D1002023783249D1F89020C2F3072222
:10115C00934254DBFFF75CFF00202FE0616801EB4A
:10116C000011FFF785FE0130DFE70199280101EB43
:10117C000513DA683A40B2F5001F21D0B2F5800FA2
:10118C002BD0B2F5801F38D15A689B680958013BA7
:10119C0022F01F0003440120844623F01F0340EA81
:1011AC004C10CDE902218DF8100002A9207805938E
:1011BC00FFF778FE00281DDA6FF0150007B0F0BDC0
:1011CC005A689B680958013B22F01F0003444FF0FA
:1011DC00020C012023F01F03E1E75A689B680958B1
:1011EC00013B22F01F0003444FF0000C062023F0BB
:1011FC001F03D4E723780133237001359FE7C1F82F
:10120C009830C1F8A00001339EE74FF0FF30D5E7CE
:10121C0000ED00E0BC4A0008AAFF4400D10B0020FE
:10122C000000F0FF08B5024B1B689847002008BD72
:10123C0054070020034B044A1860937843F00203D0
:10124C009370704754070020C804002008B5064965
:10125C00064821F00701C1F1005202F5802202F08C
:10126C006EF9002008BD00BF1F1900205807002090
:10127C00F8B505460024104E104F01232A7852FA77
:10128C0084F2D1B203FA01F0F36830EA030303D01D
:10129C00336930EA030308D1F060306157F832301B
:1012AC001BB107EBC202516898476A780134E3B26C
:1012BC009A42E2D2F8BD00BF00200244640700202D
:1012CC00014B23F81010704744050020034678B1F9
:1012DC00B0FA80F2C2F11F02D2B2064931F9120003
:1012EC00054AD2F880100B43C2F88030FFF7F8BCE7
:1012FC00FF22F2E74405002000200244034AD2F802
:10130C00803023EA0003C2F880307047002002448A
:10131C00032921D8DFE801F0020C10190F4B1A68D1
:10132C0022EA00021A605A6822EA00025A607047E8
:10133C000A4B1A680243F5E7084B5A6802435A6095
:10134C001A6822EA00021A607047044B1A680243BA
:10135C001A605A6810435860704700BF002002445E
:10136C0030B5B0B1B0FA80F3C3F11F03DBB20B4858
:10137C0050F833408C4204D100EBC3056D689542A4
:10138C0005D044B940F8331000EBC3004260002094
:10139C0030BDFF23EBE76FF00F00F9E76407002087
:1013AC0060B1B0FA80F3C3F11F03DBB20021044A31
:1013BC0042F8331002EBC30251607047FF23F5E78C
:1013CC0064070020C300074AC0F38100183052F8AC
:1013DC00202003F018000F238340134023FA00F061
:1013EC00704700BF002002440B680E2B2AD813B99B
:1013FC006FF085007047013B0D2BF9D801A151F816
:10140C0023F000BF491400086B1400086F14000887
:10141C0075140008FD130008FD130008FD130008E7
:10142C0065140008651400086514000865140008AC
:10143C004914000849140008491400080B4B0020FB
:10144C0013607047882B07D08C3B1C2BD0D80849D5
:10145C0021FA03F3DB07CBD5064B1B68EFE7002320
:10146C00EDE74FF4FA43EAE7034BE8E780B2E60E08
:10147C00010111113805002040787D0110B5584C40
:10148C00E369236A574B1A6942F030021A615A69B0
:10149C001107FCD5544800F02FFE236823F4802359
:1014AC002360236843F4803323604D4B1A68920306
:1014BC00FCD5D3F8F02042F08062C3F8F020D3F8CA
:1014CC00F0201401FBD5DA6902F01802182A17D1A2
:1014DC001A68900707D41A6842F001021A60404A51
:1014EC0013689907FCD53E4BDA6922F00302DA61E6
:1014FC00DA6912F0180FFBD11A6A22F00F021A6285
:10150C00374B1A6822F080721A609A6A42F0030212
:10151C009A629A6A22F47C5242F400729A629A6A33
:10152C0042F00C029A629A6A22F020029A625A6B7A
:10153C0022F4FF7222F0010242F027025A639A6AE7
:10154C0022F010029A625A6B22F47E4242F400722C
:10155C005A639A6A42F480329A625A6B22F4FE02FF
:10156C0042F480325A639A6A42F400329A625A6B9D
:10157C0022F0FE4242F080725A639A6A42F4802250
:10158C009A621A6842F080721A601A689201FCD54D
:10159C00DA6A22F00302DA621A6B22F003021A638F
:1015AC001A6A22F00F021A621A6A22F070021A6288
:1015BC001A6A22F4E0621A621A6A22F4E0421A628F
:1015CC00DA6942F00302DA61054AD36903F01803C1
:1015DC00182BFAD1054B044A00201A6010BD00BF2D
:1015EC00000C02440008024480B2E60E38050020CC
:1015FC0010B5044C2046FFF7E9F82046FFF71AFE19
:10160C00002010BD1516000873B5044603250F4EB7
:10161C008DF80700012200200DF1070100F06CFE8F
:10162C0020B101233370204602B070BD3378002BFB
:10163C00F9D0013D08D002F0B0FD0028EAD100211C
:10164C00142001F0B1FAE5E73570ECE7D20B00207D
:10165C002DE9F843D0F804801746D0F81090D8F84C
:10166C0008000D461E4602F097F8B7F5001F044619
:10167C0016D12846D8F80840FFF7A4FE84420CD1B6
:10168C00294602F089F80446FFF738FE2046FFF79A
:10169C0087FE00212046FFF73BFE0020BDE8F883C3
:1016AC00B7F5800F20D0B6F1806F19D0B6F1C06FAE
:1016BC0018D0B6F1007F1AD102264A4620460F49AF
:1016CC00FFF74EFEB0B92846D8F8081002F067F8BC
:1016DC0020463146FFF71CFE2046FFF7F7FDDCE7FE
:1016EC000126EAE70326E8E76FF08500D6E76FF0FE
:1016FC001500D3E76FF00F00D0E700BF2F3B0008B9
:10170C0038B5036904465860084D284602F007FDB9
:10171C0040B16168AB6828461B680C31984700EAF9
:10172C00E07038BD6FF01200FBE700BFA444000866
:10173C002DE9F047044600251D4F00EBC106B442CD
:10174C0001D1002014E02068C30600F01F0911D459
:10175C00656845F02005C0F3481AC0F344200F28F3
:10176C0023D857F82080B8F1000F0DD16FF012007C
:10177C00BDE8F087B9F1100F04D0B9F1110FEAD11F
:10178C006568E8E73025E6E7404602F0C8FC00282B
:10179C00ECD04B462A4640460AF00F0102F0D7F92E
:1017AC00002804F10804CADAE2E76FF01500DFE75D
:1017BC00984B000843681B6803F1080252E8002F9D
:1017CC0042F0010203F1080040E800210029F3D1A6
:1017DC00304A934250D002F1805293424CD02E4A60
:1017EC00934249D002F18052934245D02B4A934206
:1017FC0042D002F1805293423ED0294A93423BD0D0
:10180C0002F18052934237D0264A934234D0B3F13E
:10181C00502F31D002F5A05293422DD002F18052BC
:10182C00934229D0204A934226D002F1805293420F
:10183C0022D01E4A93421FD002F1805293421BD0F9
:10184C001B4A934218D002F18052934214D0194A89
:10185C00934211D002F1805293420DD0164A93421A
:10186C000AD002F18052934206D0144A934203D01C
:10187C0002F18052934203D15A6842F040025A60FE
:10188C0053E8002F42F4807243E800210029F7D17D
:10189C00704700BF00380140004400400048004041
:1018AC00004C00400050004000780040007C00409C
:1018BC000080004000680040006C00400084004044
:1018CC0043681B6803F1080252E8002F22F0010262
:1018DC0003F1080040E800210029F3D1304A93427B
:1018EC0050D002F1805293424CD02E4A934249D0B0
:1018FC0002F18052934245D02B4A934242D002F1DE
:10190C00805293423ED0294A93423BD002F18052FE
:10191C00934237D0264A934234D0B3F1502F31D072
:10192C0002F5A05293422DD002F18052934229D05D
:10193C00204A934226D002F18052934222D01E4A72
:10194C0093421FD002F1805293421BD01B4A934208
:10195C0018D002F18052934214D0194A934211D0FC
:10196C0002F1805293420DD0164A93420AD002F1F2
:10197C008052934206D0144A934203D002F1805213
:10198C00934203D15A6822F040025A6053E8002F68
:10199C0022F4807243E800210029F7D1704700BF80
:1019AC00003801400044004000480040004C00401A
:1019BC000050004000780040007C00400080004057
:1019CC0000680040006C0040008400400129034680
:1019DC0008461AD002290BD0C9B91B680D4A93428C
:1019EC0017D002F180529B1A18BF012318037047BD
:1019FC001868084B98420AD003F18053984214BFE0
:101A0C004FF440504FF400507047002070474FF493
:101A1C00005070470024004470B500261D46094B49
:101A2C006C0833F812203346FEF70AFC090241EA2F
:101A3C001061000220182A46334641F10001FEF7DE
:101A4C00FFFB70BD344D00082DE9F341026943687A
:101A5C0010680C461D68D9688368DB68DBB101AA85
:101A6C009847002817DB244B9D4203D003F1805389
:101A7C009D4233D10026019FDFF8808023463846F3
:101A8C000021B2B2FFF7C8FFA0F54070404505D960
:101A9C0001360C2EF2D102B0BDE8F081EB6A23F0D6
:101AAC000F033343EB62002CF5D0154B384633F85B
:101ABC00162000231946FEF7C3FB090241EA106108
:101ACC0063080002C01822464FF0000341F10001E8
:101ADC00FEF7B6FBC0F31300E860DCE72B6823F4D9
:101AEC0000432B60019B002CD5D003EB5403B3FBBC
:101AFC00F4F39BB2EB60CEE700240044FFFC0F0034
:101B0C00344D00082DE9F84307460D7940683B69D0
:101B1C00012D0E460468D3F8048000F0A380AB1EA0
:101B2C00D3F1000949EB03094FEA89297179FFF7D1
:101B3C004DFFB2790346022A00F09780042A00F088
:101B4C009880002D00F0A080033D012D40F2948080
:101B5C004FF48050B3F5805F00F09880B3F5405F90
:101B6C0000F09680002B0CBF01230323994240F018
:101B7C008380494602F04BF882427DD1F379002BE9
:101B8C005DD0012B40F08680444B9C4257D003F132
:101B9C0080539C4253D0424B9C4250D003F1805313
:101BAC009C424CD03F4B9C4249D003F180539C4209
:101BBC0045D03D4B9C4242D003F180539C423ED0D9
:101BCC003A4B9C423BD0B4F1502F38D003F5A05384
:101BDC009C4234D003F180539C4230D0344B9C4215
:101BEC002DD003F180539C4229D0324B9C4226D0FD
:101BFC0003F180539C4222D02F4B9C421FD003F107
:101C0C0080539C421BD02D4B9C4218D003F1805327
:101C1C009C4214D02A4B9C4211D003F180539C421D
:101C2C000DD0284B9C420AD003F180539C4206D025
:101C3C00254B9C4203D003F180539C421CD123685A
:101C4C00314623F001033846236002F06FF9236814
:101C5C0043F00103236096E8030088E803000020AA
:101C6C00BDE8F8834FF4C06960E745B94FF0805088
:101C7C0070E7002D3FF46CAF6FF08500F0E7033D8B
:101C8C00012DF9D9002065E7284663E700236DE7AD
:101C9C0002236BE7032B3FF477AFEDE700380140ED
:101CAC000044004000480040004C00400050004000
:101CBC0000780040007C004000800040006800403C
:101CCC00006C004000840040002400442DE9F341E6
:101CDC000646476804697448206002F020FA20B96F
:101CEC006FF0120002B0BDE8F0812068F9688368DB
:101CFC001B6898470028F5DB0021386A01AA01F01F
:101D0C003BFF0028EEDB019B002219791868FFF7D6
:101D1C000FFD0028E6DB756833692C68D3F8048066
:101D2C00236823F001032360686802F0F8F90028A7
:101D3C00D6D0D5E901018368DB6803B1984754E834
:101D4C00003F43F00C0344E80032002AF7D141462F
:101D5C00304602F0EBF82B7D1BB1A36843F008036F
:101D6C00A3606B7D1BB1636843F400436360AB7D80
:101D7C001BB1636843F480336360EB7D1BB1636814
:101D8C0043F4003363602B7E002B74D0474B9C4292
:101D9C0057D003F180539C4253D0454B9C4250D0BA
:101DAC0003F180539C424CD0424B9C4249D003F1EE
:101DBC0080539C4245D0404B9C4242D003F180530F
:101DCC009C423ED03D4B9C423BD0B4F1502F38D07E
:101DDC0003F5A0539C4234D003F180539C4230D085
:101DEC00374B9C422DD003F180539C4229D0354B6C
:101DFC009C4226D003F180539C4222D0324B9C4211
:101E0C001FD003F180539C421BD0304B9C4218D006
:101E1C0003F180539C4214D02D4B9C4211D003F102
:101E2C0080539C420DD02B4B9C420AD003F1805323
:101E3C009C4206D0284B9C4203D003F180539C4219
:101E4C002ED173681A68936843F4804393602368B7
:101E5C006A7E23F0787343EA425323602368AA7E98
:101E6C0023F4F81343EA02432360EB7E1BB1A3680F
:101E7C0043F40043A3602B7F1BB1236843F0005352
:101E8C002360236843F001032360E3699A02FCD5C5
:101E9C00E3695B02FCD530467B6A9847002021E75A
:101EAC006FF015001EE700BFA44400080038014085
:101EBC000044004000480040004C004000500040EE
:101ECC0000780040007C004000800040006800402A
:101EDC00006C004000840040002400444FF0E023DC
:101EEC0010B50F499C691A6908689B690D4902F481
:101EFC00803234B993B903464AB90A681044C01AFF
:101F0C0010BD002B08BF03460AB9A342F5D90A68D5
:101F1C0002440A604FF0E0221269EEE70446F3E750
:101F2C009C0800209808002010220A4B002083F8FF
:101F3C00232046F2A812084B1A60084B46F2A7124F
:101F4C0018604FF0E0235A6198611A6942F0070259
:101F5C001A61704700ED00E09C08002098080020F2
:101F6C00684620F007018D4619B5FFF7B7FF1149F8
:101F7C00114B0868D3E90042001942F10002C3E991
:101F8C00000200230B6046F2A8130C4AD2E9004170
:101F9C00001BB0FBF3F043431B1941F10001C2E9F4
:101FAC00003100F089FFFEF7B1FCBDE81940854611
:101FBC00704700BF9808002090050020880500207D
:101FCC002DE9F041DFF8E08099B1421C0BD14FF0C4
:101FDC00E022136923F0010313614FF07F43C8F82B
:101FEC000030BDE8F081D8F80060012807DC00273C
:101FFC000BE0431CD8F80060F7D140F29E2040F271
:10200C009F239842A8BF1846471EEFF31185102353
:10201C0083F31288BFF36F8FFFF760FF4FF0E0235D
:10202C00224C9969D4E9002380184FF0000243F147
:10203C000003C4E900031E4B1A601E4B1A68831A76
:10204C002ED446F2A81C0CFB073303F5C3432733ED
:10205C00B3FBFCF7131A40F21A620CFB07339342E2
:10206C0038BF1346144A934228BF13464FF0E02260
:10207C00C8F80030013B90695361002381429361A1
:10208C00A1EB000338BF9B19D4E900125B1842F195
:10209C000002C4E9003285F31188BFF36F8FA0E70B
:1020AC0040F21A63E2E700BF9C0800209005002074
:1020BC009808002088050020B095FF0038B5EFF394
:1020CC001185102383F31288BFF36F8F084B1C68A4
:1020DC00084B1B68E41AFFF701FF85F31188BFF367
:1020EC006F8F46F2A8132044B0FBF3F038BD00BF4D
:1020FC009005002088050020B8B1384B1A6902F011
:10210C003002302A13D1364B98425ED9354B984267
:10211C005DD9354B98425CD9344B98425BD9344BE2
:10212C0098422ED9334B98423BD9012070471A69FB
:10213C0002F03002202A10D12F4B984245D92F4B58
:10214C00984244D92E4B984243D92E4B984242D9AF
:10215C002D4B984215D92D4BE5E71B6903F0300345
:10216C00102B10D12A4B98422FD92A4B98422ED99A
:10217C00294B98422DD9294B98422CD9284B98425F
:10218C00D3D804200EE0274B98421ED9264B9842F8
:10219C001DD9204B98421CD9244B98421BD9244B57
:1021AC00EDE70520234A136823F00F030343136064
:1021BC00136803F00F0398420EBF0346136803F035
:1021CC000F03C01A18BF012070470020EAE7012056
:1021DC00E8E70220E6E70320E4E700BF000802443A
:1021EC0080DE800200BD0105809B8207007A030A15
:1021FC008058840C80B2E60E80CC060200990D0447
:10220C008065140600321B0880FE210A00C2EB0B0D
:10221C0080C3C90100879303804A5D05000E270720
:10222C0080D1F008002D3101005A620200B4C404C0
:10223C0000E1F5050020024008B5144BA82200214E
:10224C00184602F03AF80322114902614261114A20
:10225C008161C2614FF4806202620022826242623A
:10226C00C26201660C490346416610218166026711
:10227C00C2664267BFF35F8F084911F8010D98548D
:10228C000132102AF9D1BFF35F8F08BD1004002072
:10229C000350000810000020000000201C50000813
:1022AC00F8B5182700FB0775124B0E461D4407FBAB
:1022BC000033DB6A1446012B0AD0022B14D023B94D
:1022CC00284601F0D4FE844208D900242046F8BDEB
:1022DC00284601F0CCFE844228BF044622463146F3
:1022EC00284601F0CDFEF1E72846BDE8F84001F0A4
:1022FC00E4BE00BF10040020F8B50B4B04461B785D
:10230C000D46532B164601D0FFF796FFEFF31187BE
:10231C004FF0200181F31188324629462046FFF701
:10232C00BFFF87F31188F8BD1004002010B4BFF371
:10233C005F8F00230A4A0B49C85C12F8014D844296
:10234C0009D10133102BF7D10023BFF35F8F23B1D9
:10235C0010BCFFF771BF0123F7E710BC704700BF3B
:10236C001C5000081004002038B5EFF31185102321
:10237C0083F31288BFF36F8F064B9C6801F0E2FE6B
:10238C0085F31188BFF36F8F2046BDE83840FEF708
:10239C0033BC00BFA008002038B5094B53F82040CF
:1023AC00013053F82050A54200D838BD636823B1E2
:1023BC00204601F0CAFE0834F5E723689847FAE78F
:1023CC001C4D0008012270B52A4B032086B01A70F0
:1023DC00FFF7E2FF00F0F0FD01F0D3FE0420FFF761
:1023EC00DBFF254C254D2646AE4204F1300410D3BC
:1023FC0000F002FB204C224EAC4226D300F010FB26
:10240C00FEF7D2F81F4A137B23F00103137306B0B7
:10241C0070BD54F80C3C059354F8103C049354F8DC
:10242C00143C039354F8183C029354F81C3C01934D
:10243C0054F8203C009354E90A2354E90C0100F0B1
:10244C00D1F854F8303C5E65CDE7D4E90A23B3F1FA
:10245C00FF3F08BFB2F1FF3F05D052EA03012068ED
:10246C0003D100F097FA3034C6E73146183000F04B
:10247C00A9FCF8E7D30B0020FC490008FC49000834
:10248C002F4200081806002008B50348034A002113
:10249C00121A01F072FE08BD88050020D80B00202E
:1024AC000023012270B586B0CDE904230F220193DD
:1024BC00CDE9023214234FF4A0720E4D0E4E03FBE5
:1024CC0000550E4906EBC016044602FB00110C4BDE
:1024DC003046009500F086F8737B2C7423F01003C3
:1024EC007373084B013403EBC423EE606B6006B0CE
:1024FC0070BD00BFA008002098050020D813002054
:10250C0091410008D80B0020BFB50020FFF744FF15
:10251C002C4B03F5006282F3088883F30A880024AD
:10252C00F023294D294E85F82230EC772C766C76E9
:10253C00AC7685F820406B6A254F43F4E0236B6240
:10254C00FEF72AFBFEF754FC4FF0FF33AB62EB6255
:10255C00FEF7DAFDFEF770FC40F201121D4B1E4D2A
:10256C009A81B360C3E91844DC6601F0D7FDFEF72D
:10257C007FF90120FFF710FF0220FFF70DFF00F09D
:10258C0085FA164B75610593012315494FF480624A
:10259C00CDE9034328463B46CDE90144009400F0C5
:1025AC0021F806466A7B284622F010026A7301F075
:1025BC000CFE2046FFF774FF3A4631462846FEF7DC
:1025CC00F3FB00BFD80B002000ED00E0A0080020BA
:1025DC00D123000898060020180600201D50000882
:1025EC00181500202DE9F043984685B000F15803EA
:1025FC00C0E91633109B002603731023073222F018
:10260C00070543730F9B01EB05090F46837349467E
:10261C00C0E906668660C6730446FEF757F90E9B42
:10262C00073020F00700A066C4E9187502930D9BD3
:10263C00A9EB000901930C9B4A460093394643468B
:10264C002046FEF795FB054B66659B6803B1DB6E78
:10265C004846E36605B0BDE8F08300BFA008002043
:10266C0038B590F90D200146002A437B04DA03F0BB
:10267C007F03437301F097FD0D4D2A4652F8184F16
:10268C00AB68944200D004B9EC68994208D05A7BEC
:10269C0012F01B0F04D1DA897F2A01D9A2692AB161
:1026AC009C4202D0204600F0D3FA23466B6138BD21
:1026BC00A008002070B590F90D30427B002B38DB60
:1026CC0012F01B0F35D18369002B32D11C4C62F0F8
:1026DC007F024273224652F8181F914218BF0B46D4
:1026EC00E16923B9C0E900210860E0610CE090F9D0
:1026FC000E5093F90E60B5421CD0AE421ADD5968EB
:10270C00C0E9003108605860A569954200D005B950
:10271C00E568A3685A7B12F01B0F04D1DA897F2A73
:10272C0001D9AA6952B1AB4202D0284600F090FA06
:10273C00656170BD9942D5D01B68D2E76361F8E73B
:10274C00A0080020002A2DE9F8430CBF4FF0100917
:10275C004FF00809427B044619EA020F0F4621D1BB
:10276C0049EA0203D2092AD14373B9F1080F2CD0DC
:10277C004FF00008344E334653F8185F9D4200D09A
:10278C0005B9F568B368AB4202D0284600F060FA90
:10279C00B9F1100F756144D1BFF35F8F637B23F0E8
:1027AC0060036373284B9B689C4247D1EFF305830E
:1027BC00002B43D13846BDE8F843FEF733BA03F09B
:1027CC007F03437301F0EFFCCFE7A36813B12046FE
:1027DC0001F0F1FC04F1180001F049FDA56D04F1C4
:1027EC005806AE4211D04FF0000875B1284601F0E2
:1027FC00E2FC05F1180001F03AFD2846C5F8788096
:10280C00FFF758FFA56DAE42EFD10F4B9B689C4272
:10281C00AED1EFF30588B8F1000818BF4FF00108EE
:10282C00A8E7B8F1000FB7D040F20112074B9A811C
:10283C000022B360C3E91822DA66ADE787F311888A
:10284C00BFF36F8FBDE8F883A00800209806002026
:10285C0070B590F90D200146002A437B04DA03F091
:10286C007F03437301F09FFC1D4C4B7B224663F0AE
:10287C007F034B7352F8183FE069934208BF002363
:10288C0023B9C1E900200160E1610CE091F90E501F
:10289C0093F90E60B5421FD0AE421DDD5868C1E9F8
:1028AC00003001605960A569A368954200D005B954
:1028BC00E568994208D05A7B12F01B0F04D1DA89D3
:1028CC007F2A01D9AA692AB19D4202D0284600F07C
:1028DC00BFF92B46636170BD9842D2D01B68CFE71D
:1028EC00A008002070B5214D0446AA68824224D16C
:1028FC00EFF305830BBBEFF31186102383F31288E0
:10290C00BFF36F8F537B03F07F0343F010035373BC
:10291C0001F049FC2B4653F8184F9C4200D004B9E7
:10292C00EC68AB689C4202D0204600F091F96C61D7
:10293C003046BDE87040FEF775B904F1180001F09F
:10294C0096FCEFF31181102383F31288BFF36F8F82
:10295C00627B1A4004D081F31188BFF36F8F70BD76
:10296C002046BDE87040FFF7EDBE00BFA008002078
:10297C0049B9EFF3058030B9054B5A699B689A4207
:10298C0001D0FEF74FB981F31188BFF36F8F7047F9
:10299C00A008002010B5EFF31184102282F31288E6
:1029AC00BFF36F8F427BD10604D484F31188BFF33D
:1029BC006F8F10BD22F010024273FFF77BFE214691
:1029CC00BDE810400148FFF7D3BF00BFD40B002077
:1029DC00034648B9EFF3058232B9064A5169926849
:1029EC00914201D0FEF71EB983F31188BFF36F8FAC
:1029FC00704700BFA0080020EFF31181102383F370
:102A0C001288BFF36F8F054B9A68D37B013BD3734E
:102A1C0081F31188BFF36F8F704700BFA0080020AF
:102A2C0070B5EFF31186102383F31288BFF36F8F09
:102A3C00154DAB68DA7B0132DA732A4652F8184F1F
:102A4C00944200D004B9EC685A7B12F01B0F04D1ED
:102A5C00DA897F2A01D9A2692AB19C4202D0204688
:102A6C0000F0F6F823466B6186F31188BFF36F8F85
:102A7C00EFF31180102383F31288BFF36F8FBDE83F
:102A8C007040FFF7A5BF00BFA0080020024B03F168
:102A9C001802C3E906227047A0080020F8B5EFF32E
:102AAC001186102383F31288BFF36F8F1D4C2146C0
:102ABC00A068437B03F07F03437301F074FBA368AE
:102ACC005A7B62F07F025A7351F8182FE0698A42E0
:102ADC0008BF002222B9C3E900100360E3610CE0D7
:102AEC0093F90E5092F90E70BD4217D0AF4215DD1E
:102AFC005068C3E9002003605360A5698D4200D083
:102B0C0005B9E568A3689D4202D0284600F0A0F8FC
:102B1C0065613046BDE8F840FEF784B88242DAD0F1
:102B2C001268D7E7A008002050EA01032DE9F04114
:102B3C0005460E4604D1FFF7B1FF0020BDE8F08139
:102B4C00831C71F1FF3324DB01F0A6FB4419EFF376
:102B5C001188102383F31288BFF36F8F0F4F104B24
:102B6C00B8681860FFF77CFDB8680E492A463346F2
:102B7C00183000F027F9BA684046537B43F0100335
:102B8C005373FEF74FF801F087FB201A20EAE07030
:102B9C00D4E76FF00104241AD9E700BFA008002085
:102BAC00C00800202F420008B1F1FF3F08BFB0F170
:102BBC00FF3F08B506D10A4B9868FFF793FE4FF01C
:102BCC00FF3008BDFFF7B0FFC11709304FF00A0204
:102BDC004FF0000341F10001FDF732FBF1E700BFBC
:102BEC00A0080020014B9868704700BFA008002087
:102BFC000122044BC01A044BC0105843034B1A5407
:102C0C00704700BF18070020ABAAAAAAD40B00205B
:102C1C00C3897F2B13D80B4B1B686BB10A4B90F9F4
:102C2C000E201B689A420ADB437B13F01B0F06D164
:102C3C00064BC31A18BF012303F001007047002391
:102C4C00FAE700BFC8080020C4080020980500203F
:102C5C0070B50E4B0E4C1E7C054606EB460304EB82
:102C6C00C304204601F003FB00220A4B28469A5568
:102C7C00FFF7CEFF48B1084B2046BDE870401A68FC
:102C8C000649013AD31700F09DB870BDA00800208A
:102C9C0018070020D40B0020C8080020FD2B0008CA
:102CAC0038B5EFF31185102383F31288BFF36F8FC0
:102CBC00104B114A9C681068A04206D1FFF7C8FF60
:102CCC0085F31188BFF36F8F38BD00211B7C116019
:102CDC000A4AD35C002BF3D02046FFF799FF00285B
:102CEC00EED0637B13F01B0F02D12046FFF7B0FD33
:102CFC002046E3E7A0080020C0080020D40B0020E9
:102D0C00074808B5074A0849121A01F038FABDE815
:102D1C0008400648064A0749121A01F030BA00BFAB
:102D2C00C00400208405002074500008B804002062
:102D3C00C00400206C500008034B1B680BB9FFF754
:102D4C00BDB90020704700BFCC08002030B570B171
:102D5C000B4B5B6898420AD0036843B1D3E904215A
:102D6C00D0E90445121941EB0501C3E90421D0E96E
:102D7C00003213605A600023C0E9003330BD00BF3D
:102D8C003C05002010B50E4B1C689C4204D1FFF78B
:102D9C00D3FF6FF0004010BDFFF7CEFF002CF8D032
:102DAC00D4E904321B1A62EBE072B3F1004F72F1FA
:102DBC000001EEDA002AACBF18460020EBE700BF9A
:102DCC003C050020B3F1FF3F08BFB2F1FF3FF8B55F
:102DDC0004461D4616465ED08160EFF31187102322
:102DEC0083F31288BFF36F8F013275F1FF3324DA4E
:102DFC006FF001032D49D1E900209B1A4FF0FF32EF
:102E0C0062EB00009E1B60EB0500012E70F10003CD
:102E1C0001DA01260020C4E90460254ED6F800C072
:102E2C007568B44508BF4FF0000CBCF1000F0DD114
:102E3C00C4E900652C6074601CE0FFF77DFF01366F
:102E4C0045F10005361845EBE070E4E7DCE90420B9
:102E5C00D4E90431934271EB000E1DDAD21ADCF87E
:102E6C00043060EB0100CCE90420C4E900C31C6011
:102E7C00CCF804403368B34209D09C4207D10D4BC7
:102E8C001C6824B9FFF77EFF2146FFF799F887F3FA
:102E9C001188BFF36F8FF8BD9B1A61EB0001AC4535
:102EAC00C4E90431C4D0DCF800C0BEE73007002010
:102EBC003C050020CC0800202DE9F84FEFF3118CD5
:102ECC00102383F31288BFF36F8FDFF8B0A0DFF805
:102EDC00B0900024C9F80000DAF800000025504535
:102EEC0008BF0020274FE046D7E90021D9F8003071
:102EFC0078B3D0E9046C4FEAE37EB3427EEB0C0B63
:102F0C0005DAF61A6CEB0E04C0E9046421E0B21881
:102F1C0041EBE671C0E90445C7E90021FFF716FF54
:102F2C0088F31188BFF36F8F83689847EFF311888C
:102F3C00102383F31288BFF36F8FD9F80030DAF8BF
:102F4C0000009B1B5045C446C9F80030CBD1D7E9D3
:102F5C00002100249A1841EBE373C7E90023C9F858
:102F6C000040FFF70FFF2146FFF72AF888F311887E
:102F7C00BFF36F8FBDE8F84FFFF792BE3C05002002
:102F8C00CC0800203007002010B5EFF3118410237B
:102F9C0083F31288BFF36F8FFFF7CEFE0346054A0B
:102FAC00D2E90001181841EBE37184F31188BFF3E7
:102FBC006F8F10BD30070020014800F0FFBA00BF32
:102FCC00225000082DE9F04F43688DB0154680461D
:102FDC00029383789A0740F10D8100240E78002E1D
:102FEC0000F00A81252E0BD04B1C03930134414673
:102FFC003046029B98470028C0F2F6800399EDE713
:10300C004E788B1C252E0393F0D00027B946BB4677
:10301C00BBF11F0F38D8A6F12003102B0AD8DFE81C
:10302C0003F02A0909300909092109090928092D80
:10303C0009091F00A6F13003092B33D92A2E37D1E9
:10304C001BF0400F55F8043B40F08280002BA7BFCB
:10305C004BF0200B9946C3F100094BF0280B01E013
:10306C004BF0010B039B13F8016B0393002ECFD194
:10307C0030E04BF0020B4BF0040BF3E74BF0080B7A
:10308C00F0E74BF0100BEDE7BBF17F0F19D8A6F171
:10309C003003092BD2D81BF0400F03D00A2101FBBF
:1030AC000737DFE70A214BF0200B01FB0939D9E781
:1030BC002E2E06D11BF0400F40F09E804BF0400BA3
:1030CC00D0E76C2E31D02BD8682E36D06A2E3CD05F
:1030DC004C2E3AD0002F46F02003B8BF2BF0400204
:1030EC00A3F16501BCBF00271FFA82FB022901D99D
:1030FC00612B2FD107350727DFF8ACA225F0070588
:10310C0008351BF0080F66D00AEB070B56465E45D8
:10311C0063D1A4EB0A0AA9EB070906EB0A026FE1DB
:10312C00742E9FD07A2E9DD0D4E71BF0800F18BF41
:10313C004BF4007B4BF0800B94E71BF4807F18BFA3
:10314C004BF4007B4BF4807B8CE74BF4207B89E7C2
:10315C001F4687E7A6F16301122900F2F080DFE831
:10316C0011F013004F00EE00EE00EE00EE004F00E9
:10317C00EE00EE00EE00EE00EE00FE00E900EE00C8
:10318C00EE001B00EE00AF0055F8043B01270DF1DB
:10319C00180A8DF81830B4E755F804AB834BBAF124
:1031AC00000F08BF9A461BF0400F504614BF39461B
:1031BC004FF0FF3101F099F80746A2E74146202075
:1031CC00029B984700280FDB013EB742F6D34C44D4
:1031DC00B146A41B98E74E46F7E7414616F8010B9B
:1031EC00029B9847002892DA98F8023043F00403C7
:1031FC0088F802304FF0FF3420460DB0BDE8F08F58
:10320C001BF0800F34D01BF4007F2CD0073525F039
:10321C000705AA4669685AF8080B2BF01005002917
:10322C00ADB237DA404245F4806561EB41010DF1F6
:10323C00180B0A235A4601F07AF8A0EB0B03019302
:10324C006B0662D5019B25F001019F4289B240F3C8
:10325C00A180002E00F0998015F0100240F09C80A7
:10326C00BB460D4623E0AA465AF8040BC117D4E717
:10327C00AA461BF4807F5AF8041B01D10846F5E7D7
:10328C001BF4007F19BF48B241F3C01108B241F3DF
:10329C00C031C2E750EA0103C9D11BF0400FC6D0C0
:1032AC00002FC4D12BF01102BB46019795B240F20E
:1032BC00064115EA01021CBF0BF1010B00222CE0A8
:1032CC002BF010020A231FFA82FB1BF0800C49D052
:1032DC001BF4007115BF0735AA4625F007055AF8EF
:1032EC00040B1EBFAA4669685AF8080B50EA010580
:1032FC0045D12BF016051BF0400FADB242D0002F7C
:10330C0040D12BF01702019795B215F0100248D05E
:10331C00019B002E42D103F1010B29075AD4EB0774
:10332C0006D5D9456FDDA9EB0B030199CB465F1888
:10333C005B4649E04BF0100B10237826C5E7782B41
:10334C0004D1C6F1780343F01003BEE741462520B3
:10335C00029B98470028FFF647AF023447E6082344
:10336C000026B2E7AA461BF480715AF8040BBDD0B4
:10337C001BF400711ABFC0B2614680B2B6E72BF0E5
:10338C00060295B20DF1180B54E725F01105BB465A
:10339C00ADB28CE70D46B8E73B460D4603F1020B88
:1033AC00BBE7DDF804B082E7645000085D5000080C
:1033BC00CDE9043241462020029B98470028FFF6B5
:1033CC0013AF049B059A01339945F1DCA4EB0B0177
:1033DC009B46CC180AB341463020029B98470028E4
:1033EC00FFF602AF8EB901342744391B019B994279
:1033FC0024DC1D4655BB019AA9EB0B09554622440A
:10340C001446914433E0019F92E702344146304622
:10341C00029B98470028E7DAE6E640F206410D42A7
:10342C00E2D015F0020F04F10104414614BF2B2029
:10343C00202015F4806F18BF2D20E9E7414630207D
:10344C00029B013498470028CFDACDE606AB013D4C
:10345C004146585D029B98470028CBDAC4E64146AA
:10346C002020029B013498470028FFF6BDAEA9EB43
:10347C000403002BF3DCC1E5704783689B6A03B13E
:10348C00184770470346F0B419790068DB880125AA
:10349C000669DA07346854BF43F4D01383F4B013CD
:1034AC008D4023F48012DB0787684CBF2C43AC4360
:1034BC0034603B68F0BC18470A2180FB0101FFF720
:1034CC0073BB70B504464D1E15F8011F31B9A368C6
:1034DC002046BDE870400D215B681847A368204664
:1034EC005B689847F0E700EBC100408840087047E4
:1034FC00F8B50346FFF7F7FFB0FA80F0C0F11F00F4
:10350C0003EB800CDCF81060CA00171D0C46063269
:10351C008DB256B9012101FA00F0D9680143D96086
:10352C00CCF81040DD539D52F8BDF1000431585ACF
:10353C00D85303EBC0009E52C5805D52F4E7043AA9
:10354C002DE9F041CC1D114424F0070421F00701B2
:10355C000E1BF708B7FA87F24FF00008C2F12405EA
:10356C00AD000735C2F12002ED0804604146A760AA
:10357C00C4F80C80920004F1100000F09EFE6B0069
:10358C0043F0010363807B1B04EBC5025900A4F8D4
:10359C0000805180A21924F83550A2F80280A35360
:1035AC0004EBC7035A88294642F001025A80204690
:1035BC00BDE8F041FFF79CBF002070470FB407B582
:1035CC0004A951F8040B0191FDF706F903B05DF85D
:1035DC0004EB04B070477047012801D1EFF3058369
:1035EC00FEF7C2BE01460068FFF7F6BF00210120BE
:1035FC00FFF7F2BF036E83F30B88704761B662B6B8
:10360C0080F31188BFF36F8F704772B6002383F37A
:10361C001188BFF36F8FBFF34F8F30BF62B6BFF30C
:10362C006F8F704740E800F313F4803FD8B208BFA7
:10363C006FF01500704730B50C684B6885B00A897F
:10364C004D890094013B24F01F04234402F01F0217
:10365C0042EA451223F01F0369468DF808200393B4
:10366C00FDF720FC05B030BD08B5FDF7DBFD0020F3
:10367C0008BD002008B50B21FDF722FE02460146CD
:10368C000B20FDF73BFB00220C210120FDF718FE5F
:10369C0011460C20FDF732FB00220D210220FDF714
:1036AC000FFE11460D20FDF729FB00220E210320F1
:1036BC00FDF706FE11460E20FDF720FB00220F2120
:1036CC000420FDF7FDFD11460F20FDF717FB00222E
:1036DC0010210520FDF7F4FD11461020FDF70EFB1F
:1036EC00002211210620FDF7EBFD11461120FDF7FC
:1036FC0005FB002212210720FDF7E2FD11461220E6
:10370C00FDF7FCFA002213210820FDF7D9FD114624
:10371C001320FDF7F3FA002214210920FDF7D0FD48
:10372C0011461420FDF7EAFA002215210A20FDF7B4
:10373C00C7FD11461520FDF7E1FA002216210B20DA
:10374C00FDF7BEFD11461620FDF7D8FA0022172111
:10375C000C20FDF7B5FD11461720FDF7CFFA00221E
:10376C0018210D20FDF7ACFD11461820FDF7C6FA07
:10377C00002219210E20FDF7A3FD11461920FDF79B
:10378C00BDFA00221A210F20FDF79AFD11461A20CE
:10379C00FDF7B4FA002008BD01208840704710B531
:1037AC000F24C20000F00C0000F1884000F5083036
:1037BC00036E02F01802944023EA040391400B4379
:1037CC00036610BD0B6882B0A3F18802202A12D8C0
:1037DC0003F1884303F503331A6848680243002059
:1037EC001A600B6803F1884303F503331B680193DC
:1037FC00019B02B070476FF08500FAE70B68A3F1EC
:10380C008802202A9FBF03F1884303F503331A680B
:10381C0049689BBF00208A436FF085001A6070478F
:10382C000E2809D847F61A73C34013F0010F14BFC2
:10383C0000206FF0850070476FF08500704708B569
:10384C000868FFF7EDFF00280EDB4968CBB203F1E7
:10385C00884303F503331868C1F30242C1F3042112
:10386C008A40024300201A6008BD436800205B6850
:10387C001B690B60704743685B68586942400A409B
:10388C0042405A6100207047436800205B68996190
:10389C007047436800205B6899627047436800205A
:1038AC005A6853694B405361704710B50369986867
:1038BC00F8B1884219D1DC680868A142986000D13F
:1038CC00D860002008602AB19A680A60DA689960AA
:1038DC0002B9D960002010E0814206D1086820604E
:1038EC00D8688142EDD1DC60EBE704460068002823
:1038FC00F2D1002AE8D16FF0150010BDF0B5446884
:10390C000120676888401E46C2F3801327EA00072F
:10391C008B403B4390FAA0F7B7FA87F74FF0030EB2
:10392C006360D4F808C07F000EFA07F72CEA070C86
:10393C0090FAA0F7B7FA87F7C2F3C1137F00BB4028
:10394C0043EA0C03A36090FAA0F3B3FA83F3E7689D
:10395C005B000EFA03F327EA030790FAA0F3B3FA1D
:10396C0083F302F030055B00C2F341229A403A43E4
:10397C00202DE26016D107292BD890FAA0F3226AE9
:10398C002BB3B3FA83F30F219B0001FA03F322EA62
:10399C00030290FAA0F3B3FA83F39B0006FA03F345
:1039AC001343236290FAA0F3B3FA83F390FAA0F0D6
:1039BC000321B0FA80F022685B002D0901FA03F3B1
:1039CC00400022EA030385401D432560F0BD2B46D1
:1039DC00D9E7030A616A93FAA3F282B1B2FA82F2CE
:1039EC0093FAA3F30F27B3FA83F3920007FA02F2C8
:1039FC009B0021EA02029E4016436662D2E72A46E9
:103A0C00EEE7F8B512F4003C0C461346066927D0D5
:103A1C0091071ED55A0740F181805022DF0603F42E
:103A2C00403518D542F4007225B1316921FA04F7FA
:103A3C00FF0746D51F03416869D501234968A34098
:103A4C008B61002321464068FFF758FF002D4CD1B5
:103A5C0014E01022E2E79906E6D542F48062E3E72F
:103A6C00D70302F4403520D5DA0612D5002D46D105
:103A7C002B464FF400724068FFF740FF336923FA7E
:103A8C0004F2D20731D50122A24023EA02033361AA
:103A9C002BE013F0200704D04DBB2B464FF4806273
:103AAC00E9E7B5B92B462A46E5E715B92B4630228E
:103ABC00E1E7316921FA04F212F0010F4FF0300204
:103ACC000ED10127A74039433161BCF1000FB1D1B0
:103ADC0006E0316921FA04F212F00102F1D03A4603
:103AEC00002321464068FFF709FF0020F8BD31692B
:103AFC0021FA04F212F0010F4FF48062E0E7316911
:103B0C0021FA04F212F0010F4FF40072D8E75F03B0
:103B1C0041BF01234968A3408B6292E76FF0850097
:103B2C00E4E770B50B468968054611B15E680C6810
:103B3C0001B970BD8A682A4002D030464B6898475C
:103B4C001CB1236821461C46F2E72346FAE7F8B578
:103B5C001F46044640680E461546FFF7CFFE112F50
:103B6C0008D1012303FA06F663682A055B684CBF8B
:103B7C009E619E620020F8BD30B503681360057924
:103B8C00046804EBC504A34202D36FF0010030BDFE
:103B9C005C798C4201D00833F0E70020F7E74368EA
:103BAC00C1F34B101B6801F01F01C05801238B405F
:103BBC00034214BF0123002300201370704710B57B
:103BCC004368C1F34B101A680123845801F01F019C
:103BDC008B4023438350002010BD012210B5436855
:103BEC00C1F34B14186801F01F0123588A4023EAD3
:103BFC0002032350002010BD38B504460D46FFF7D4
:103C0C00DEFF29462046FFF7E8FF002038BDB0F55F
:103C1C00805F07D0B0F1805F09D1002914BF01206B
:103C2C0002207047002914BF03200420704700298C
:103C3C0014BF02200320704743681B68D869DA69F7
:103C4C00C0F3C000D107DA6948BF40F00200920708
:103C5C00DA6948BF40F004005107DA6948BF40F008
:103C6C002000D20542BF4FF4807240F008001A6267
:103C7C00C10744BF08221A62820744BF01221A629C
:103C8C00410744BF02221A62820644BF04221A6210
:103C9C00704743681A6852E8003F43F0400342E81B
:103CAC0000310029F7D1704743681A6852E8003F89
:103CBC0023F0400342E800310029F7D170474368F4
:103CCC001A6852E8003F43F0200342E80031002913
:103CDC00F7D1704743681A6852E8003F23F020037D
:103CEC0042E800310029F7D1704743681B68D86956
:103CFC00C0F340107047012070470369C3E90212FA
:103D0C007047026993680BB1D1681847704700225D
:103D1C0008B53C201146FCF7F1FFBDE808403C20FB
:103D2C00FCF7DEBF002208B53F201146FCF7E6FF8A
:103D3C00BDE808403F20FCF7D3BF002208B53D206A
:103D4C001146FCF7DBFFBDE808403D20FCF7C8BF7F
:103D5C00002208B555201146FCF7D0FFBDE80840FD
:103D6C005520FCF7BDBF43681B68D869C0F38010B1
:103D7C00704743681B68D86910F080001CBF186836
:103D8C00C0F38010704710B50269044652680B46A8
:103D9C0012680A6042681268126802F4C062B2F5D6
:103DAC00806F33D0A2F5C060424242411A71626802
:103DBC001268526802F44052B2F5805F28D0B2F516
:103DCC00405F27D0002A0CBF012203225A7162687F
:103DDC0012681068116800F0102001F4C061FFF740
:103DEC0016FF9871626800201268926802F44072A3
:103DFC00A2F540714A424A41DA71616809688968E2
:103E0C0011F4804F18BF0322DA7110BD0222CDE7E6
:103E1C000022DBE70222D9E738B543680C461B6861
:103E2C001868196800F0102001F4C061FFF7EFFE6C
:103E3C0004281AD0D86910F0800015D0EFF3118146
:103E4C00102080F31288BFF36F8F0020151A002DFD
:103E5C0006DDDD692D0603D5255C01309D62F5E795
:103E6C0081F31188BFF36F8F38BD6FF08500FBE7CE
:103E7C0010B5436810201B68DA691206FCD5EFF305
:103E8C00118280F31288BFF36F8FDC69240604D48F
:103E9C0082F31188BFF36F8FEEE7996282F311887A
:103EAC00BFF36F8F10BD43681B68DA69910602D5AA
:103EBC001A68920607D4D86910F0400004D018682C
:103ECC00C0F3801070470120704738B543680C462A
:103EDC001B681868196800F0102001F4C061FFF726
:103EEC0096FE04280FD000200821151A002D0CDD99
:103EFC00DD69AD0609D55D6A2554DD6901302D07F4
:103F0C00F3D51962F1E76FF0850038BD43681B6883
:103F1C00DA69100744BF08221A62DA69920643BFB5
:103F2C005B6A00200B704FF0FF3070472DE9F843AF
:103F3C000C790369012C05460E46D0F804905F6895
:103F4C0014D0A01ED0F1000848EB00084FEA8828D6
:103F5C0048467179FDF73AFDB379022B09D0042B51
:103F6C0030D0231E18BF01231B0306E04FF4C0689A
:103F7C00EEE7B4FA84F35B091B07F279D9F8001069
:103F8C00012A14BF00244FF44074B7421DD10A68B3
:103F9C0022F0805222F4B05242EA08021A430A601C
:103FAC004B6823F4405303434B606B6828461A68F4
:103FBC00936823F44073234393603968BDE8F84356
:103FCC00FDF742BD4FF48053D7E7D1F800C00CF495
:103FDC00C06CE0451FBFD1F800C02CF4C06C4CEA9B
:103FEC00080CC1F800C06968D1F800C0DCF80410F6
:103FFC0001F4405188421FBFDCF8041021F44051F9
:10400C000143CCF8041069680868016801F01021BC
:10401C008B421FBF016821F010210B4303606B68BA
:10402C0019688B6803F440739C421FBF8B6823F4A0
:10403C00407323438B606B681B689968490405D5F2
:10404C00032A09D09A6822F4804204E0032A03D19F
:10405C009A6842F480429A6031683B68994204D075
:10406C002846FDF7F1FC33683B60BDE8F883036933
:10407C00C26893429CBF81685B18013B981A7047D9
:10408C002DE9F0410546D0E902844068A8EB04060E
:10409C00964220440F46144406D900F001F9BFF3B0
:1040AC005F8FEC60BDE8F0813246A4EB080400F0B1
:1040BC00F7F822466868B919EFE72DE9F843064688
:1040CC00894617464FF00008C5683369B4689D42AD
:1040DC0028BF1B19641BBC4228BF3C46013B5B1B21
:1040EC009C4228BF1C46706849462246284400F072
:1040FC00D7F8B3682544AB4208BF0025A044A144BF
:10410C003F1BBFF35F8FF560002FDED14046BDE84B
:10411C00F88308B5FEF70AF9002008BD704740B1D6
:10412C00C368587810F001001EBF1878B0FA80F000
:10413C0040097047EFF31183102383F31288BFF308
:10414C006F8FFEE708B5FFF7F5FF10B5D0E9003427
:10415C0033B90020E268537843F00103537010BD6B
:10416C00204698470028F4D00028B8BF4042FF28CA
:10417C00A8BFFF20E3681870ECE700F09EB800F0D1
:10418C008FB87047102408B5EFF3118384F31288AD
:10419C00BFF36F8FFFF739FAF6E7EFF305800038BE
:1041AC0018BF01207047D0E9003213605A60002319
:1041BC00C0E90033704708B5FFF7F5FF437B23F0E8
:1041CC00020343730023836008BD10B5EFF3118421
:1041DC00102383F31288BFF36F8FFEF76BFA84F30F
:1041EC001188BFF36F8F10BD014610B5EFF311842A
:1041FC00102383F31288BFF36F8F437B13F0280FC8
:10420C000AD183680BB1FFF7D6FF4B7B084623F02E
:10421C0010034B73FEF74EFA84F31188BFF36F8FC4
:10422C0010BD01211838FFF7DFBFEFF31181102209
:10423C0082F31288BFF36F8F027BD2070CD581F308
:10424C001188BFF36F8F002383F31188BFF36F8F37
:10425C000423184602DF7047437B1B0704D581F308
:10426C001188BFF36F8F70470122FEF76BBA10B540
:10427C00EFF31184102282F31288BFF36F8F03685F
:10428C003BB1FEF763FD002084F31188BFF36F8F01
:10429C0010BD6FF01500F7E708B5FEF775FE08BD09
:1042AC000A44431E914200D1704710B511F8014BDE
:1042BC00914203F8014FF9D110BD024403469342D9
:1042CC0000D1704703F8011BF9E710B5013904461A
:1042DC0032B111F8013F013A00F8013B002BF7D144
:1042EC000021FFF7EAFF204610BD0246014410B53D
:1042FC008A42134603D01C780132002CF8D1181ACC
:10430C0010BD0A7870B56AB970BD9A4209D10C46D5
:10431C00054614F8013F002BF6D015F8016F9E42AC
:10432C00F7D001300378002BEFD11846ECE7F0B54D
:10433C00C3F13707044603F01F031046FFB2082BE6
:10434C00E6B232D0102B3DD06508A40845EAC17501
:10435C0044EA81748A082D1942EB5102290941EA79
:10436C0002716D1842EB1212290A41EA02616D18B2
:10437C0042EB1222290C41EA02416D1842EB124227
:10438C00AD1842F10002EC0844EA4274D10804EB87
:10439C008402A6EB4205EDB2092D0CD90134A5F12E
:1043AC000A0541F10001EDB212E0E40806F0070540
:1043BC0044EA4174C908303554EA010200F8015B43
:1043CC00BDD1F0BD240906F00F0544EA01740909BA
:1043DC00092D84BFED19EDB2EDE70000014800682E
:0843EC00704700003C070020AF
:0843F4008CBEFF7F01000000F8
:1043FC0089140008A44400084908000800000000C3
:10440C001F4100080000000000000000B844000834
:10441C000D170008584500080D17000880450008C6
:10442C000D1700086C4500087F360008CC440008C6
:10443C000D170008444500080D170008304500080A
:10444C000D1700081C4500080D170008084500084A
:10445C000D170008F44400080D170008E04400088C
:10446C00FD15000800000000D91C0008D04500080C
:10447C00D91C0008A8450008D91C00089445000860
:10448C00D91C0008BC450008351F000800000000BE
:08449C005912000800000000A5
:1044A400274F000800000000304A0008660500207D
:1044B40000000000B24F0008D84B0008204A000852
:1044C4007A05002000000000094F000800000000E9
:1044D400000000006405002064070020344F000839
:1044E400E44A0008FC49000868050020E4070020AD
:1044F400424F0008F84A0008FC4900086A050020F9
:10450400F8070020504F00080C4B0008FC49000835
:104514006C0500200C0800205E4F0008204B0008AA
:10452400FC4900086E050020200800206C4F00089C
:10453400344B0008FC4900087005002034080020B2
:104544007A4F0008484B0008FC4900087205002017
:1045540048080020884F00085C4B0008FC4900080C
:10456400740500205C080020964F0008704B00087A
:10457400FC4900087605002070080020A44F0008BC
:10458400844B0008FC4900087805002084080020BA
:10459400C34F0008DC4B00084C4A00087C0500208F
:1045A400D8040020D34F00082C4C00084C4A0008C3
:1045B4007E050020F0040020E34F00087C4C000836
:1045C4004C4A00088005002008050020F34F00082D
:1045D400CC4C00084C4A000882050020200500202D
:1045E40000000000F935000800000000F93500085B
:1045F40000000000F935000800000000F93500084B
:1046040000000000F935000800000000F93500083A
:1046140000000000F935000800000000F93500082A
:1046240000000000F935000800000000F93500081A
:1046340000000000F9350008074F00087D1200084B
:10464400054F00087D120008034F00087D12000882
:10465400014F00087D120008FF4E00087D1200087B
:10466400FD4E00087D120008FB4E00087D12000874
:10467400F94E00087D120008F74E00087D1200086C
:10468400F54E00087D120008F34E00087D12000864
:10469400F14E00087D120008EF4E00087D1200085C
:1046A400ED4E00087D120008EB4E00087D12000854
:1046B400E94E00087D12000800000000F9350008EA
:1046C40000000000F935000800000000F93500087A
:1046D40000000000F935000800000000F93500086A
:1046E40000000000F935000800000000F93500085A
:1046F40000000000F935000800000000F93500084A
:1047040000000000F935000800000000F935000839
:1047140000000000F935000800000000F935000829
:1047240000000000F935000800000000F935000819
:1047340000000000F935000800000000F935000809
:1047440000000000F935000800000000F9350008F9
:1047540000000000F935000800000000F9350008E9
:1047640000000000F935000800000000F9350008D9
:1047740000000000F935000800000000F9350008C9
:1047840000000000F935000800000000F9350008B9
:1047940000000000F935000800000000F9350008A9
:1047A40000000000F935000800000000F935000899
:1047B40000000000F935000800000000F935000889
:1047C400D04500080F3D0008A84500080F3D00082B
:1047D40000000000F9350008BC4500080F3D000842
:1047E40000000000F935000800000000F935000859
:1047F40000000000F935000800000000F935000849
:1048040000000000F935000800000000F935000838
:1048140000000000F935000800000000F935000828
:1048240000000000F935000800000000F935000818
:1048340000000000F935000800000000F935000808
:1048440000000000F935000800000000F9350008F8
:1048540000000000F935000800000000F9350008E8
:1048640000000000F935000800000000F9350008D8
:1048740000000000F935000800000000F9350008C8
:1048840000000000F9350008944500080F3D0008B9
:1048940000000000F935000800000000F9350008A8
:1048A40000000000F935000800000000F935000898
:1048B40000000000F935000800000000F935000888
:1048C40000000000F935000800000000F935000878
:1048D40000000000F935000800000000F935000868
:1048E40000000000F935000800000000F935000858
:1048F40000000000F935000800000000F935000848
:1049040000000000F935000800000000F935000837
:1049140000000000F935000800000000F935000827
:1049240000000000F935000800000000F935000817
:1049340000000000F935000800000000F935000807
:1049440000000000F935000800000000F9350008F7
:1049540000000000F935000800000000F9350008E7
:1049640000000000F935000800000000F9350008D7
:1049740000000000F935000800000000F9350008C7
:1049840000000000F935000800000000F9350008B7
:1049940000000000F935000800000000F9350008A7
:1049A40000000000F935000800000000F935000897
:1049B40000000000F935000800000000F935000887
:1049C40000000000F935000800000000F935000877
:1049D40000000000F935000800000000F935000867
:1049E40000000000F935000800000000F935000857
:0849F40000000000F935000885
:1049FC000F3A00087738000883380008953800080B
:104A0C009F380008A93800085D160008B738000860
:044A1C000000000096
:104A2000AB3B0008CB3B0008E73B0008053C000817
:104A3000D13700080938000800000000F51300080D
:0C4A400000000000000000004B380008DF
:104A4C00193F00087D3E0008453C0008111B00087A
:104A5C00933D0008253E0008D73E00089F3C000807
:104A6C00B53C00087F3D0008CB3C0008E13C000849
:104A7C00733D0008F73C0008C1170008CD1800086A
:0C4A8C00B33E0008033D0008073D000891
:104A98006C4500080E0001006C4500080D00000080
:104AA8006C4500080C000000C00400200000000055
:104AB8000600010002000000C44A000800000008C7
:104AC800DA4E000806000000E0FF1F080000002082
:104AD800E24E000821000000E0FF0320FFFF000075
:104AE80000200242080000008C00000000010000C5
:104AF800FFFF0000001C0242070000008C000000BD
:104B080080000000FFFF00000018024206000000BD
:104B18008C00000040000000FFFF0000001402426B
:104B2800050000008C00000020000000FFFF0000CE
:104B380000100242040000008C0000001000000079
:104B4800FFFF0000000C0242030000008C00000080
:104B580008000000FFFF00000008024202000000F9
:104B68008C00000004000000FFFF00000004024267
:104B7800010000008C00000002000000FFFF0000A0
:104B880000000242000000008C000000010000004C
:104B9800804500086C450008584500084445000851
:104BA800304500081C45000808450008F444000882
:104BB800E0440008000000000000000000000000C1
:104BC80000000000000000000000000000000000DD
:104BD800000C024400640040B8440008990E00002C
:104BE800044C000801000000000000000000000064
:104BF800000000000C4C00085D3D00089C0000000F
:104C080000000002144C0008010000001C4C0008C1
:104C180002000000C704000000020000E7040000D2
:104C280000000000004C0040B8440008930E00004B
:104C3800544C0008010000000000000000000000C3
:104C4800000000005C4C0008473D00089C00000084
:104C580000000800644C0008010000006C4C0008CB
:104C6800020000004805000000020000680500007E
:104C78000000000000240044B844000806100000AA
:104C8800A44C000801000000000000000000000023
:104C980000000000AC4C0008313D0008A8000000EE
:104CA80040000000B44C000801000000BC4C0008A3
:104CB80002000000C802000000020000E802000034
:104CC8000000000000480040B8440008920E0000B0
:104CD800F44C000801000000000000000000000083
:104CE80000000000FC4C00081B3D00089C00000070
:104CF80000000400044D0008010000000C4D0008ED
:104D08000200000047030000000000002707000021
:104D180000000000FC430008FC430008944400081D
:104D28009C440008A4440008A444000801000200B0
:104D38000400060008000A000C00100020004000D3
:104D4800800000014154002B41543A204F4B007C15
:104D58002D3E20257320636F6E6E65637465640A4B
:104D6800007C2D3E202573206E6F74207265737051
:104D78006F6E64696E670A007C2D3E205374617201
:104D880074696E672055415254204465766963659D
:104D980020436F6E6E656374696F6E204368656348
:104DA8006B2E2E2E0A004C6F726100424C45004556
:104DB80053503332000A7C2D3E2053756D6D61725D
:104DC80079206F662044657669636520436865636A
:104DD8006B3A0A007C2D3E20546F74616C20436F3F
:104DE8006E6E656374656420446576696365733ABD
:104DF8002025640A007C2020204E6F206465766997
:104E08006365732061726520636F6E6E6563746598
:104E1800642E0A007C202020506C6561736520692F
:104E28006E736572742070726F746F636F6C207428
:104E38006F207573652E0A007C2D3E2053746172B5
:104E48007420746F207365747570206C6F72610ABA
:104E58000041542B4D4F44453D54455354007C204C
:104E6800202025730A0041542B544553543D525871
:104E78004C52504B54007C2D3E2053746172742068
:104E8800746F205265636965766572E0B8830A00BD
:104E980041542B544553543D52464346472C3931CF
:104EA800352E322C5346392C3132352C382C382CAF
:104EB80032302C4F46462C4F46462C4F4E007C2D08
:104EC8003E20526563656976657220697320257393
:104ED8000A00464C4153485F30005352414D5F3001
:104EE800000F010E010D010C010B010A0109010857
:104EF8000107010601050104010301020101010086
:104F080001696E746572727570742D636F6E747258
:104F18006F6C6C657240343430323230303000722D
:104F28006363403434303230633030006770696F07
:104F3800403432303232303030006770696F40347C
:104F480032303231633030006770696F403432304C
:104F58003231383030006770696F40343230323166
:104F6800343030006770696F40343230323130305D
:104F780030006770696F403432303230633030004F
:104F88006770696F403432303230383030006770C3
:104F9800696F403432303230343030006770696FB6
:104FA8004034323032303030300072657365742DE1
:104FB800636F6E74726F6C6C657200736572696191
:104FC8006C4034303030363430300073657269618B
:104FD8006C4034303030346330300073657269614E
:104FE8006C4034343030323430300073657269616B
:104FF8006C403430303034383030005465726D696C
:105008006E616C00000000000000545452205245AC
:1050180047474553006D61696E002A2A2A20426F6E
:105028006F74696E67205A6570687972204F5320D3
:105038006275696C642076342E302E302D31333809
:10504800392D6733633063646431346438633020E6
:105058002A2A2A0A00286E756C6C29002A666C6F49
:0450680061742A0045
:10507400C5350008D1080008000000007536000896
:10508400000000000000000000000000E804002010
:105094000000000000000000802500000001030063
:1050A40000000000000500200000000000000000D7
:1050B4008025000000010300000000001805002006
:1050C400000000000000000000C201000001030015
:1050D4000000000030050020000000000000000077
:1050E40080250000000103000090D0033C0500204F
:1050F4003C050020FF00FF00FF00FF00FF00FF0051
:10510400FF00FF00FF00FF00FF00FF00FF00FF00A3
:04511400FF00FF0099
:105118000000000000000000000000000000000087
:105128000000000000000000000000000000000077
:0451380015E015E089
:0400000508000BD90B
:00000001FF
