:020000040800F2
:10000000401B0020D1130008B5100008BD130008E4
:10001000BD130008BD130008BD130008BD13000880
:10002000000000000000000000000000C1140008F3
:10003000BD130008000000005914000865270008DF
:1000400019160008191600081916000819160008D4
:1000500019160008191600081916000819160008C4
:1000600019160008191600081916000819160008B4
:1000700019160008191600081916000819160008A4
:1002500081F0004102E000BF83F0004330B54FEA77
:1002600041044FEA430594EA050F08BF90EA020FE4
:100270001FBF54EA000C55EA020C7FEA645C7FEA77
:10028000655C00F0E2804FEA5454D4EB5555B8BF9A
:100290006D420CDD2C4480EA020281EA030382EA0B
:1002A000000083EA010180EA020281EA0303362D9D
:1002B00088BF30BD11F0004F4FEA01314FF4801C70
:1002C0004CEA113102D0404261EB410113F0004F82
:1002D0004FEA03334CEA133302D0524263EB430339
:1002E00094EA050F00F0A780A4F10104D5F1200ED7
:1002F0000DDB02FA0EFC22FA05F2801841F1000132
:1003000003FA0EF2801843FA05F359410EE0A5F105
:1003100020050EF1200E012A03FA0EFC28BF4CF036
:10032000020C43FA05F3C01851EBE37101F00045EC
:1003300007D54FF0000EDCF1000C7EEB00006EEBF9
:100340000101B1F5801F1BD3B1F5001F0CD3490883
:100350005FEA30004FEA3C0C04F101044FEA4452DA
:1003600012F5800F80F09A80BCF1004F08BF5FEA61
:10037000500C50F1000041EB045141EA050130BD41
:100380005FEA4C0C404141EB0101013C28BFB1F553
:10039000801FE9D291F0000F04BF01460020B1FA9E
:1003A00081F308BF2033A3F10B03B3F120020CDA71
:1003B0000C3208DD02F1140CC2F10C0201FA0CF04F
:1003C00021FA02F10CE002F11402D8BFC2F1200CB4
:1003D00001FA02F120FA0CFCDCBF41EA0C0190406A
:1003E000E41AA2BF01EB0451294330BD6FEA0404B3
:1003F0001F3C1CDA0C340EDC04F11404C4F120029E
:1004000020FA04F001FA02F340EA030021FA04F3AF
:1004100045EA030130BDC4F10C04C4F1200220FA06
:1004200002F001FA04F340EA0300294630BD21FA44
:1004300004F0294630BD94F0000F83F4801306BF0A
:1004400081F480110134013D4EE77FEA645C18BFFE
:100450007FEA655C29D094EA050F08BF90EA020F95
:1004600005D054EA000C04BF1946104630BD91EA8D
:10047000030F1EBF0021002030BD5FEA545C05D190
:100480004000494128BF41F0004130BD14F58004CF
:100490003CBF01F5801130BD01F0004545F0FE4143
:1004A00041F470014FF0000030BD7FEA645C1ABF78
:1004B000194610467FEA655C1CBF0B46024650EAAF
:1004C000013406BF52EA033591EA030F41F40021DB
:1004D00030BD00BF90F0000F04BF0021704730B561
:1004E0004FF4806404F132044FF000054FF0000136
:1004F00050E700BF90F0000F04BF0021704730B5F7
:100500004FF4806404F1320410F0004548BF4042CB
:100510004FF000013EE700BF42004FEAE2014FEA20
:1005200031014FEA02701FBF12F07F4393F07F4FFB
:1005300081F06051704732F07F4208BF704793F0FE
:100540007F4F04BF41F40021704730B54FF4607411
:1005500001F0004521F000411CE700BF50EA010214
:1005600008BF704730B54FF000050AE050EA0102BD
:1005700008BF704730B511F0004502D5404261EB2D
:1005800041014FF4806404F132045FEA915C3FF46E
:10059000D8AE4FF003025FEADC0C18BF03325FEA0B
:1005A000DC0C18BF033202EBDC02C2F1200300FABC
:1005B00003FC20FA02F001FA03FE40EA0E0021FAE1
:1005C00002F11444BDE600BF4FF0FF3C06E000BF5F
:1005D0004FF0010C02E000BF4FF0010C4DF804CDCC
:1005E0004FEA410C7FEA6C5C4FEA430C18BF7FEA8C
:1005F0006C5C1BD001B050EA410C0CBF52EA430CBA
:1006000091EA030F02BF90EA020F0020704710F139
:10061000000F91EA030F58BF994208BF90422CBFC8
:10062000D8176FEAE37040F0010070474FEA410CC1
:100630007FEA6C5C02D150EA013C07D14FEA430CDF
:100640007FEA6C5CD6D152EA033CD3D05DF8040B50
:10065000704700BF8446104662468C461946634682
:1006600000E000BF01B5FFF7B7FF002848BF10F159
:10067000000F01BD4DF808EDFFF7F4FF0CBF01209E
:1006800000205DF808FB00BF4DF808EDFFF7EAFF1A
:1006900034BF012000205DF808FB00BF4DF808EDD5
:1006A000FFF7E0FF94BF012000205DF808FB00BFCA
:1006B0004DF808EDFFF7CEFF94BF012000205DF854
:1006C00008FB00BF4DF808EDFFF7C4FF34BF012061
:1006D00000205DF808FB00BF4FEA4102B2F1E043A1
:1006E00024BFB3F5001CDCF1FE5C0DD901F0004C19
:1006F0004FEAC0024CEA5070B2F1004F40EB830069
:1007000008BF20F00100704711F0804F21D113F194
:100710003872BCBF01F00040704741F480114FEACD
:100720005252C2F11802C2F1200C10FA0CF320FA56
:1007300002F018BF40F001004FEAC1234FEAD32373
:1007400003FA0CFC40EA0C0023FA02F34FEA4303DD
:10075000CCE77FEA625307D150EA01331EBF4FF066
:10076000FE4040F44000704701F0004040F0FE4081
:1007700040F40000704700BF53B94AB9002908BFD0
:1007800000281CBF4FF0FF314FF0FF3000F00CB8D5
:10079000ADF1080C6DE904CE00F008F8DDF804E0D6
:1007A000DDE9022304B07047704700BF2DE9F04730
:1007B00086468C460846089E154674461946002B08
:1007C00040F0C1808542B2FA82F245D94AB1C2F105
:1007D000200300FA02FC954094402EFA03F343EA0A
:1007E0000C0C4FEA154EA8B2230CBCFBFEF80EFB16
:1007F00018CC08FB00F943EA0C43994528D9EB18BB
:1008000008F1FF3704D2994502D9A8F102072B4419
:10081000A3EB0903A4B2B3FBFEFC0EFB1C330CFBE1
:1008200000F044EA0344A04214D92C190CF1FF3320
:1008300004D2A04202D9ACF102032C44241A43EAA8
:1008400007401EB1D440002334607360BDE8F087D8
:100850004746DDE76346F1E792BB431B01214FEAC0
:10086000154EAFB2200CB3FBFEFC0EFB1C330CFB91
:1008700007F840EA0343984561D9EB180CF1FF30C3
:1008800004D2984502D9ACF102002B44A3EB080333
:10089000A4B2B3FBFEFC0EFB1C330CFB07F744EACF
:1008A0000344A7424DD92C190CF1FF3304D2A742BF
:1008B00002D9ACF102032C44E41B43EA0040C0E738
:1008C000C2F120039540944020FA03F12EFA03F37D
:1008D0004FEA154E9040AFB20343B1FBFEFC0EFB56
:1008E0001C10190C0CFB07F841EA0041884522D97D
:1008F00069180CF1FF3004D2884502D9ACF102002E
:100900002944A1EB08019BB2B1FBFEFC0EFB1C11BC
:100910000CFB07F743EA01439F420ED9EB180CF199
:10092000FF3104D29F4202D9ACF102012B44DB1B00
:1009300041EA004193E76046E3E76146F7E7604636
:10094000A4E76346B8E7834206D916B900210846F2
:100950007CE7C6E900E0F9E7B3FA83F78FB9834291
:1009600001D3724508D8BEEB020460EB03030120FB
:100970009C461EB9002169E73846FAE7C6E9004CF3
:10098000F8E7C7F1200CBB400EFA07F522FA0CF489
:100990002EFA0CF1BA401C4320FA0CF3B8404FEA8F
:1009A000144901431FFA84FEB3FBF9F809FB183020
:1009B0000B0C08FB0EFA43EA00439A4540D9E318B2
:1009C00008F1FF3004D29A4502D9A8F1020023446D
:1009D000A3EB0A0389B2B3FBF9F809FB183308FB50
:1009E0000EFE41EA03418E452CD9611808F1FF3310
:1009F00004D28E4502D9A8F10203214443EA004003
:100A0000A1EB0E01A0FB02984145CE46434602D31E
:100A100006D14D4504D20138B9EB020E68EB040350
:100A2000002EA7D0B5EB0E0261EB030101FA0CFC1E
:100A300022FA07F3F9404CEA0303C6E9003199E7CB
:100A40004046C5E74346D9E72DE9F04FBA48B5B06F
:100A500004F012FE00F008FA00F014FAB74804F0AF
:100A600055FDB74804F052FDB64804F04FFDB648B6
:100A700004F047FDB54804F044FDB54804F041FDDD
:100A8000B14800F0E7F9B14800F0E4F9B04800F0EF
:100A9000E1F940F6C41004F053FD0023AD4903AA68
:100AA000A948039300F054FAAB4903AA0646A748A5
:100AB00000F04EFAA94903AA0446A54800F048FAF6
:100AC00005464FF47A7004F03BFDA54804F0D4FDD0
:100AD0000399002951DDA34804F0CEFD4FF47A704C
:100AE00004F02EFD002E00F0BB800FF24429D9E95E
:100AF00000899D4804F0C0FD9C49934804F03FFDE7
:100B00004FF4FA7004F01CFD99499A4804F0B4FDC2
:100B10004FF4FA7004F014FD974804F0ADFD0A2478
:100B20000026964F964DDFF85CA2013C2CD1964DE5
:100B30004FF47A7004F004FD2B68002B40F38E8094
:100B4000924804F099FD2B68914E002B00F38280AF
:100B5000904804F091FD0025DFF82C82DFF83092F8
:100B6000D8F80030002B40F087808B4804F084FDDB
:100B700041F2883004F0E4FCF2E7884804F07CFDA0
:100B8000874804F079FDA9E73B463246284604F041
:100B900073FD4FF47A7004F0D3FC52468021CDE906
:100BA000006714A802F022FE14A9674804F0E7FCCD
:100BB0004FF47A7004F0C4FC7A49634804F0DFFC17
:100BC0004FF4FA7004F0BCFC7749694805F009FC61
:100BD00060B94FF47A7004F0B3FC4FF4FA7004F08B
:100BE000AFFC7149624805F0FCFB18B360496F48DF
:100BF00004F042FD644B1A68632A17DC511C19602B
:100C0000634B03EBC203C3E9006758494E4804F045
:100C1000B6FC4FF4FA7004F093FC30463946424675
:100C20004B46FFF71BFB06460F467EE7604804F085
:100C300023FDEAE75F48FAE74046083604F01CFD6A
:100C4000D6E90023384604F017FD2B6801349C4296
:100C5000F2DB7DE7584FDFF86481F1E7584878E729
:100C60002DB1584804F008FD35B0BDE8F08F002CD8
:100C70003FF471AF5448F5E7002409EBC503D3E90D
:100C8000006752483B46324604F0F6FC3D4ACDE947
:100C90000067802114A802F0A9FD14A92A4804F0D5
:100CA0006EFC4FF4FA7004F04BFC00F041F93D4942
:100CB000254804F064FC4FF4FA7004F041FC00F0A5
:100CC00037F92E22214608A8CDE90444CDE906448F
:100CD000A34605F050FB2746DFF8F4A0244E5C46FF
:100CE0009AF800B0BBF1000F00F0A2800A22304653
:100CF000384905F048FB002872D106AB364900930D
:100D000004AA05AB304602F09DFDDDE905230499F8
:100D1000324804F0B1FC00F00BF90A2004F010FC9A
:100D2000002C74D10127A346D9E700BFAFF30080A0
:100D3000333333333333E33F40770008E073000845
:100D4000D8730008D0730008786C0008506C000855
:100D50003C6C00086E77000873770008777700080E
:100D60007D7700089C770008007800081978000853
:100D7000F50C0020287800083078000800C08C406E
:100D80005378000871780008580A00201C79000880
:100D9000880500209E78000876790008BD77000855
:100DA000DC770008A0780008B2780008BA7800085C
:100DB000D2780008097900083979000837790008E5
:100DC000407900085E7900086A7900089F79000878
:100DD000F40C0020CD790008D8790008F7790008D4
:100DE00009223046164905F0CEFAD8B907AA1549A6
:100DF000304602F027FD07A9134802F0E5FC00F099
:100E000097F80A2004F09CFB002F3FF468AF0F48CE
:100E100004F032FCD8F80030013595FBF3F203FB07
:100E200012559DE631460A4804F026FC00F080F891
:100E30000A2004F085FB002F3FF475AF70E700BF78
:100E4000177A0008217A0008337A00085E7A0008D1
:100E5000447A0008836823B19B6C13B100220149D6
:100E600018477047A10E000808B5044804F06DFB50
:100E7000BDE80840024804F068BB00BFF0730008FA
:100E8000E8730008054802698168136823F00203CB
:100E900013600B684FF4202201211847006C0008F2
:100EA000F7B5044683685B6C23BBA3685B6B33BBFD
:100EB0001A4D1B4EA3689B69FBB1012220460DF120
:100EC00007019847012818D19DF807202B680A2AA6
:100ED00001D00D2A18D1002BECDD00274FF48072D1
:100EE0000F491048F75405F060FA01220E4B2F60AD
:100EF0001A70DFE798470028D7D103B0F0BD20462D
:100F000098470028D4D1F8E7FE2B03D8591C296054
:100F1000F254CFE7054804F0AFFBCBE75C0A0020B2
:100F2000F40B0020F50C0020F40C0020967A000849
:100F30004FF4807208B50021034805F01CFA002226
:100F4000024B1A7008BD00BFF50C0020F40C002005
:100F50002DE9F04104460D46164600214FF48072FB
:100F6000134805F008FA2046124904F008FB1A2439
:100F7000114FDFF83C80013C05D11048294604F0B0
:100F80007BFB204612E000214FF47A7002F00EFA4B
:100F90003946404605F025FA0028ECD00848294695
:100FA00004F06AFB0120336801333360BDE8F0814F
:100FB000F50C0020C67A0008C97A0008E37A000818
:100FC000D17A0008014B1B68184700BFC0040020FD
:100FD000014B1860704700BFC004002030B585B0D9
:100FE00004460D4610220021684605F0C4F902238C
:100FF0008DF80230044B2A4621466846019302F0E0
:10100000DBFC05B030BD00BFC50F000880B505464C
:101010000E461746984602F0E7F9034605F038FDFC
:101020000446DFF81890424649F800303946304609
:10103000A84754F8090000F0E1F900BF08000000DB
:1010400000200A4B82B0D3F8882042F00102C3F896
:101050008820D3F88830064A03F001030193019BEE
:10106000536843F00203536002B07047000C02441F
:1010700000400244084B1A6822F004021A601A6801
:1010800042F001021A60054B054A1A60054AD36A0C
:1010900043F00103D3627047000403403805002089
:1010A0000048E80100080244014B0360002070473B
:1010B000F873000808B5034B1B689847BDE8084063
:1010C00000F026B8C404002030BFFFF7FDBF00BF0A
:1010D0002DE9F04105460B4EDFF82C80324606EB39
:1010E0000807CC1B2046094905F038F9A0194246EB
:1010F0000021083C05F03FF92C6707F10800BDE826
:10110000F08100BF000000000400000040710008F2
:10111000074A936893F90E10002907DB526993423E
:101120001FBF044A536843F080535360704700BFA9
:10113000C40B002000ED00E0154B9A6A12F0007F0E
:101140009A6A14BF1E201D2012F0807F9A6A18BF71
:101150001F2012F4801F9A6A18BF022012F4002F79
:101160009A6A18BF212012F4802F9A6A18BF222091
:1011700012F4003F9A6A18BF232012F4803F9A6A43
:1011800018BF24206FEA02426FEA12429A62704747
:1011900000ED00E010B5194B0246986A9C6A10F405
:1011A000805F14BF1720162014F4006F9C6A18BFCC
:1011B0001820A40509D5986B986A000404D51AB1C3
:1011C0009A6A22F400429A6219200C4B9A6A12F42D
:1011D000806F9A6A18BF1A20D2050CD49B6A13F448
:1011E000005F18BF1C20054A936A43F47F43936253
:1011F00000230B7010BD1B20F5E700BF00ED00E0E1
:1012000010B51C4B0246986A9C6A10F0100F14BF70
:101210001120102014F0080F9C6A18BF1220A40798
:1012200009D5586B986A000604D51AB19A6A22F05B
:1012300080029A6213200F4B9A6A12F0010F9A6A89
:1012400018BF142012F0200F9A6A18BF1520D40678
:1012500058BF9B6A074B9A6A920642BF5A6A22F4A9
:1012600000525A629A6A42F0FF029A6200230B709F
:1012700010BD00BF00ED00E0F0B5474B04465B68D1
:1012800000258BB0C3F3080385F31188BFF36F8F7C
:1012900002F07F40B0F17F4F11D102F00C0008281E
:1012A0000DD010074CBF0C4601250022033B8DF8E2
:1012B0000720032B05D8DFE803F02462665F2C4685
:1012C000F3E700239DF80720CAB902AE04F1200716
:1012D000324620686168083403C2BC421646F7D122
:1012E000099A002D53D0C2F3080121B96FEA5222A6
:1012F0006FEA42220992184602A904F0CBF90BB01A
:10130000F0BD254BDA6A9107DBD4DA6A002AD8DB14
:10131000DA6A5200D5D55A69A16942F480725A61DD
:10132000BFF34F8FBFF36F8F5A6931F8021C22F45D
:1013300080725A61BFF34F8FBFF36F8F4DF6027209
:10134000914209D09A6AD2B242B101200DF107014F
:10135000FFF756FF0346B5E72368B3E79A6A12F42E
:101360007F4F05D001200DF10701FFF713FFF1E7D3
:101370009B6AB3F5803FA4D3FFF7DEFEEAE70020C7
:101380000DF10701E4E700200DF10701EDE722F47C
:10139000FF7222F00102ADE700ED00E0064B5A6952
:1013A00042F010025A615A6942F480625A615A69E5
:1013B00022F008025A61704700ED00E0EFF3088068
:1013C000EFF3098101B57246FFF756FF01BD00BF7B
:1013D000102080F3118808484FF40061401880F312
:1013E0000988EFF314800221084380F31488BFF3C7
:1013F0006F8F00F09BF80000000E0020084B9B68E8
:1014000083420BD1EFF3058343B1064B5A6842F098
:1014100080525A605A6A22F400425A6204F063BF52
:10142000C40B002000ED00E06FF00A01084A936849
:101430009967084958674B6843F080534B60002315
:1014400083F31188BFF36F8F9368986F704700BF65
:10145000C40B002000ED00E016498A684FF0300010
:101460001044EFF3098C80E8F01F102080F31288FD
:10147000BFF36F8F104F4FF000664A698A603E607D
:101480004FF07004141920680C4C2060506F00233A
:10149000536780F3118802F1300090E8F01F8CF35D
:1014A000098802F1000004B504F002F9BDE8044027
:1014B00070470000C40B002004ED00E0600A00202B
:1014C0001EF0040F0CBFEFF30880EFF30980816971
:1014D00011F8021C0229FFD001B5724604F0E0F8B1
:1014E00001BD00BF00B2002807DB01234109034A08
:1014F00000F01F00834042F82130704700E100E017
:1015000000B2002801F10101ACBF00F16040064BC0
:101510004FEA0111C9B2ABBF00F5614000F00F0006
:1015200080F800131954704714ED00E00F4A08B515
:101530000F4B22F07F029A60BFF34F8FBFF36F8F84
:10154000D3F8882022F47002C3F88820EFF31483C4
:1015500023F0040383F31488BFF36F8F01F096FB2D
:1015600001F0D0FF00F04CF801F0D0FB00000008C3
:1015700000ED00E042F8203C009B0B4942F81C3C87
:10158000019B21F0010142F8183C029B42F8081C23
:1015900042F8143C4FF0807342F8043C0023203A98
:1015A00002654367704700BF0D10000800B50D4B82
:1015B00015469860026F0C4B0E461A60036E83F35B
:1015C0000B882C4686F309884FF00000074B98479C
:1015D00020464FF000014FF000024FF00003044C92
:1015E000204700BFC40B0020600A0020B956000845
:1015F0000D1000081022014B1A61704700ED00E049
:10160000002310210348C2180133832B82F80013F2
:10161000F9D1704700E100E008B5EFF30583064A11
:10162000103B02EBC30152F8330049688847BDE81C
:101630000840FFF76DBD00BF8C6C00081FB5094C5A
:10164000094A23460121094800F0FAF800230393D0
:10165000074B0121E41A01A80193029400F0FAF863
:1016600004B010BD0000042000000020F873000842
:101670008805002010B50C7A0B6804F01F0223F0D7
:101680001F031A43CB68640923F01F03054943EA8B
:10169000440343F00103C1F89800C1F89C20C1F84D
:1016A000A03010BD00ED00E010B5074BD3F890302E
:1016B000C3F30723013B984202D8FFF7DBFF10BDBD
:1016C0006FF01500FBE700BF00ED00E02DE9F04FE3
:1016D0000F46144606464FF000084D4D85B0B845FC
:1016E00080F29280D6F80490B9F1000F36D0B9F1AB
:1016F0001F0F40F2878019F01F0F40F08380D6F84B
:1017000000A01AF01F0F7DD1504603F0E9FF834679
:1017100009EB0A00013803F0E3FF834572D11BF1A6
:10172000160F6FD05C456DDDC5F898B0D5F89C10EC
:10173000C5F898B0D5F8A03021F01F0143F01F0A7A
:10174000D6E900321A44994202F1FF391ED1CA4546
:1017500008D131465FFA8BF003F0CBFF08F10108A6
:101760000C36BCE73146C5F898B0D5F89C3022F06D
:101770001F0203F01F031343C5F89C30E0B203F0CF
:10178000B8FF10F1160F3DD0441CE7E7C5F898B03C
:10179000D5F8A020013B23F01F0302F01F021343E2
:1017A000CA453146E0B2C5F8A030E8D003F0A1FF49
:1017B00010F1160F26D0C5F898B0D5F89C209DF8EA
:1017C00008300AF1FF3A62F304038DF80830D5F8C7
:1017D000A0309DF808205B0863F347128DF80820BD
:1017E000D6E900321344009323F01F035344A3EBC4
:1017F0000903013023F01F036946C0B20393FFF7CA
:1018000053FFBEE76FF01504204605B0BDE8F08F2A
:1018100000ED00E00522044BC3F89420BFF34F8F86
:10182000BFF36F8F704700BF00ED00E0BFF35F8F25
:101830000022024BC3F89420704700BF00ED00E087
:1018400010B5034C2278FFF741FF207010BD00BF98
:10185000F50D00202DE9F74F294D8A4606464FF039
:101860000008AB46274FD0451BDAD6F80490B9F1F3
:10187000000F3FD031680846019103F031FF019914
:10188000044609EB0100013803F02AFF84424FF0BF
:1018900014021D4B08D002FB08F36FF015024BF841
:1018A000032003B0BDE8F08F14F1160F2C60F8D0C0
:1018B0001978A142F5DD02FB08B0C7F89840C7F8D7
:1018C0009840D7F89C4000F10801007B64F30400C5
:1018D0000871D7F8A0000C79400860F347140C7128
:1018E000D7F89C1021F01F016960D7F8A01021F0F3
:1018F0001F01296108F1010814350C36B3E700BF58
:10190000640A002000ED00E0F50D0020F0B541492B
:10191000414CD1F890302568C3F307239D4287B02E
:1019200075D80020FFF782FF3C4BC1F8C0308542DC
:1019300016D13B4C01A82570FFF7B6FB00250646E3
:10194000384FAE4213D1002023783249D1F890208D
:10195000C2F30722934254DBFFF75CFF00202FE025
:10196000616801EB0011FFF785FE0130DFE70199A7
:10197000280101EB0513DA683A40B2F5001F21D0C7
:10198000B2F5800F2BD0B2F5801F38D15A689B6812
:101990000958013B22F01F0003440120844623F034
:1019A0001F0340EA4C10CDE902218DF8100002A976
:1019B00020780593FFF778FE00281DDA6FF01500F8
:1019C00007B0F0BD5A689B680958013B22F01F0020
:1019D00003444FF0020C012023F01F03E1E75A6893
:1019E0009B680958013B22F01F0003444FF0000C94
:1019F000062023F01F03D4E7237801332370013539
:101A00009FE7C1F89830C1F8A00001339EE74FF07E
:101A1000FF30D5E700ED00E004740008AAFF4400A1
:101A2000F50D00200000F0FF08B5024B1B68984739
:101A3000002008BD780A0020034B044A1860937800
:101A400043F0020393707047780A0020C804002016
:101A500008B50649064821F00701C1F1005202F518
:101A6000802203F0CAFD002008BD00BF471B0020F4
:101A70007C0A0020F8B505460024104E104F0123C3
:101A80002A7852FA84F2D1B203FA01F0F36830EA0C
:101A9000030303D0336930EA030308D1F0603061F7
:101AA00057F832301BB107EBC202516898476A7889
:101AB0000134E3B29A42E2D2F8BD00BF00200244F2
:101AC000880A0020014B23F81010704744050020BD
:101AD000034678B1B0FA80F2C2F11F02D2B20649D1
:101AE00031F91200054AD2F880100B43C2F8803059
:101AF000FFF7F8BCFF22F2E7440500200020024473
:101B0000034AD2F8803023EA0003C2F880307047DD
:101B100000200244032921D8DFE801F0020C10194B
:101B20000F4B1A6822EA00021A605A6822EA000281
:101B30005A6070470A4B1A680243F5E7084B5A6827
:101B400002435A601A6822EA00021A607047044B86
:101B50001A6802431A605A6810435860704700BF01
:101B60000020024430B5B0B1B0FA80F3C3F11F03D6
:101B7000DBB20B4850F833408C4204D100EBC30574
:101B80006D68954205D044B940F8331000EBC300AE
:101B90004260002030BDFF23EBE76FF00F00F9E754
:101BA000880A002060B1B0FA80F3C3F11F03DBB2F2
:101BB0000021044A42F8331002EBC302516070471F
:101BC000FF23F5E7880A0020C300074AC0F381001D
:101BD000183052F8202003F018000F2383401340E0
:101BE00023FA00F0704700BF002002440B680E2B60
:101BF0002AD813B96FF085007047013B0D2BF9D837
:101C000001A151F823F000BF411C0008631C00082B
:101C1000671C00086D1C0008F51B0008F51B000878
:101C2000F51B00085D1C00085D1C00085D1C000819
:101C30005D1C0008411C0008411C0008411C0008F4
:101C40000B4B002013607047882B07D08C3B1C2B5C
:101C5000D0D8084921FA03F3DB07CBD5064B1B6824
:101C6000EFE70023EDE74FF4FA43EAE7034BE8E739
:101C700080B2E60E010111113805002040787D0187
:101C800010B5584CE369236A574B1A6942F0300289
:101C90001A615A691107FCD5544800F02FFE2368D9
:101CA00023F480232360236843F4803323604D4B67
:101CB0001A689203FCD5D3F8F02042F08062C3F892
:101CC000F020D3F8F0201401FBD5DA6902F01802F5
:101CD000182A17D11A68900707D41A6842F001022F
:101CE0001A60404A13689907FCD53E4BDA6922F026
:101CF0000302DA61DA6912F0180FFBD11A6A22F0D6
:101D00000F021A62374B1A6822F080721A609A6AC0
:101D100042F003029A629A6A22F47C5242F4007200
:101D20009A629A6A42F00C029A629A6A22F020023F
:101D30009A625A6B22F4FF7222F0010242F02702EB
:101D40005A639A6A22F010029A625A6B22F47E4217
:101D500042F400725A639A6A42F480329A625A6B71
:101D600022F4FE0242F480325A639A6A42F400324C
:101D70009A625A6B22F0FE4242F080725A639A6A6B
:101D800042F480229A621A6842F080721A601A68DD
:101D90009201FCD5DA6A22F00302DA621A6B22F0B1
:101DA00003021A631A6A22F00F021A621A6A22F0F8
:101DB00070021A621A6A22F4E0621A621A6A22F443
:101DC000E0421A62DA6942F00302DA61054AD36935
:101DD00003F01803182BFAD1054B044A00201A60AF
:101DE00010BD00BF000C02440008024480B2E60EA1
:101DF0003805002010B5044C2046FFF7E9F82046CE
:101E0000FFF71AFE002010BD0D1E000873B5044632
:101E100003250F4E8DF80700012200200DF1070168
:101E200000F06CFE20B101233370204602B070BD7B
:101E30003378002BF9D0013D08D004F00CFA0028CB
:101E4000EAD10021142001F0B1FAE5E73570ECE7A2
:101E5000F60D00202DE9F843D0F804801746D0F89D
:101E60001090D8F808000D461E4603F0F3FCB7F5B5
:101E7000001F044616D12846D8F80840FFF7A4FEF4
:101E800084420CD1294603F0E5FC0446FFF738FEF6
:101E90002046FFF787FE00212046FFF73BFE00208B
:101EA000BDE8F883B7F5800F20D0B6F1806F19D068
:101EB000B6F1C06F18D0B6F1007F1AD102264A469B
:101EC00020460F49FFF74EFEB0B92846D8F8081053
:101ED00003F0C3FC20463146FFF71CFE2046FFF707
:101EE000F7FDDCE70126EAE70326E8E76FF0850067
:101EF000D6E76FF01500D3E76FF00F00D0E700BF13
:101F0000DF5B000838B5036904465860084D284671
:101F100004F063F940B16168AB6828461B680C3176
:101F2000984700EAE07038BD6FF01200FBE700BF91
:101F30004C6B00082DE9F047044600251D4F00EBCF
:101F4000C106B44201D1002014E02068C30600F0AD
:101F50001F0911D4656845F02005C0F3481AC0F385
:101F600044200F2823D857F82080B8F1000F0DD156
:101F70006FF01200BDE8F087B9F1100F04D0B9F18D
:101F8000110FEAD16568E8E73025E6E7404604F03E
:101F900024F90028ECD04B462A4640460AF00F01AF
:101FA00003F033FE002804F10804CADAE2E76FF018
:101FB0001500DFE7E474000843681B6803F10802BA
:101FC00052E8002F42F0010203F1080040E800212E
:101FD0000029F3D1304A934250D002F1805293420B
:101FE0004CD02E4A934249D002F18052934245D0C0
:101FF0002B4A934242D002F1805293423ED0294A6A
:1020000093423BD002F18052934237D0264A93420A
:1020100034D0B3F1502F31D002F5A05293422DD0DD
:1020200002F18052934229D0204A934226D002F1F5
:102030008052934222D01E4A93421FD002F1805216
:1020400093421BD01B4A934218D002F18052934214
:1020500014D0194A934211D002F1805293420DD00C
:10206000164A93420AD002F18052934206D0144A93
:10207000934203D002F18052934203D15A6842F056
:1020800040025A6053E8002F42F4807243E8002176
:102090000029F7D1704700BF0038014000440040DC
:1020A00000480040004C00400050004000780040D4
:1020B000007C00400080004000680040006C004050
:1020C0000084004043681B6803F1080252E8002FB7
:1020D00022F0010203F1080040E800210029F3D1B9
:1020E000304A934250D002F1805293424CD02E4A53
:1020F000934249D002F18052934245D02B4A9342F9
:1021000042D002F1805293423ED0294A93423BD0C2
:1021100002F18052934237D0264A934234D0B3F131
:10212000502F31D002F5A05293422DD002F18052AF
:10213000934229D0204A934226D002F18052934202
:1021400022D01E4A93421FD002F1805293421BD0EC
:102150001B4A934218D002F18052934214D0194A7C
:10216000934211D002F1805293420DD0164A93420D
:102170000AD002F18052934206D0144A934203D00F
:1021800002F18052934203D15A6822F040025A6011
:1021900053E8002F22F4807243E800210029F7D190
:1021A000704700BF00380140004400400048004034
:1021B000004C00400050004000780040007C00408F
:1021C0000080004000680040006C00400084004037
:1021D0000129034608461AD002290BD0C9B91B6849
:1021E0000D4A934217D002F180529B1A18BF012367
:1021F000180370471868084B98420AD003F18053BF
:10220000984214BF4FF440504FF4005070470020E4
:1022100070474FF4005070470024004470B500260A
:102220001D46094B6C0833F812203346FEF7A4FA1A
:10223000090241EA1061000220182A46334641F1A2
:102240000001FEF799FA70BD287700082DE9F341E7
:102250000269436810680C461D68D9688368DB68AA
:10226000DBB101AA9847002817DB244B9D4203D01D
:1022700003F180539D4233D10026019FDFF8808017
:10228000234638460021B2B2FFF7C8FFA0F54070E0
:10229000404505D901360C2EF2D102B0BDE8F081DF
:1022A000EB6A23F00F033343EB62002CF5D0154BA0
:1022B000384633F8162000231946FEF75DFA090266
:1022C00041EA106163080002C01822464FF0000383
:1022D00041F10001FEF750FAC0F31300E860DCE7BB
:1022E0002B6823F400432B60019B002CD5D003EB1B
:1022F0005403B3FBF4F39BB2EB60CEE7002400443D
:10230000FFFC0F00287700082DE9F84307460D79F8
:1023100040683B69012D0E460468D3F8048000F044
:10232000A380AB1ED3F1000949EB03094FEA8929C9
:102330007179FFF74DFFB2790346022A00F09780CA
:10234000042A00F09880002D00F0A080033D012DAC
:1023500040F294804FF48050B3F5805F00F0988095
:10236000B3F5405F00F09680002B0CBF01230323E0
:10237000994240F08380494603F0A7FC82427DD118
:10238000F379002B5DD0012B40F08680444B9C42BA
:1023900057D003F180539C4253D0424B9C4250D0C3
:1023A00003F180539C424CD03F4B9C4249D003F1F7
:1023B00080539C4245D03D4B9C4242D003F1805318
:1023C0009C423ED03A4B9C423BD0B4F1502F38D087
:1023D00003F5A0539C4234D003F180539C4230D08B
:1023E000344B9C422DD003F180539C4229D0324B78
:1023F0009C4226D003F180539C4222D02F4B9C421A
:102400001FD003F180539C421BD02D4B9C4218D00F
:1024100003F180539C4214D02A4B9C4211D003F10B
:1024200080539C420DD0284B9C420AD003F180532C
:102430009C4206D0254B9C4203D003F180539C4222
:102440001CD12368314623F001033846236003F092
:10245000CBFD236843F00103236096E8030088E87E
:1024600003000020BDE8F8834FF4C06960E745B978
:102470004FF0805070E7002D3FF46CAF6FF0850097
:10248000F0E7033D012DF9D9002065E7284663E711
:1024900000236DE702236BE7032B3FF477AFEDE7F3
:1024A000003801400044004000480040004C00401B
:1024B0000050004000780040007C00400080004058
:1024C00000680040006C004000840040002400448C
:1024D0002DE9F3410646476804697448206003F01B
:1024E0007CFE20B96FF0120002B0BDE8F0812068D8
:1024F000F96883681B6898470028F5DB0021386A73
:1025000001AA03F097FB0028EEDB019B002219795A
:102510001868FFF70FFD0028E6DB756833692C6843
:10252000D3F80480236823F001032360686803F074
:1025300054FE0028D6D0D5E901018368DB6803B1D9
:10254000984754E8003F43F00C0344E80032002A67
:10255000F7D14146304603F047FD2B7D1BB1A36800
:1025600043F00803A3606B7D1BB1636843F4004331
:102570006360AB7D1BB1636843F480336360EB7DC4
:102580001BB1636843F4003363602B7E002B74D06F
:10259000474B9C4257D003F180539C4253D0454B4C
:1025A0009C4250D003F180539C424CD0424B9C4201
:1025B00049D003F180539C4245D0404B9C4242D0CD
:1025C00003F180539C423ED03D4B9C423BD0B4F142
:1025D000502F38D003F5A0539C4234D003F18053E0
:1025E0009C4230D0374B9C422DD003F180539C420B
:1025F00029D0354B9C4226D003F180539C4222D0F7
:10260000324B9C421FD003F180539C421BD0304B75
:102610009C4218D003F180539C4214D02D4B9C4215
:1026200011D003F180539C420DD02B4B9C420AD019
:1026300003F180539C4206D0284B9C4203D003F107
:1026400080539C422ED173681A68936843F4804388
:10265000936023686A7E23F0787343EA42532360D1
:102660002368AA7E23F4F81343EA02432360EB7E37
:102670001BB1A36843F40043A3602B7F1BB1236805
:1026800043F000532360236843F001032360E369B0
:102690009A02FCD5E3695B02FCD530467B6A984719
:1026A000002021E76FF015001EE700BF4C6B00080B
:1026B000003801400044004000480040004C004009
:1026C0000050004000780040007C00400080004046
:1026D00000680040006C004000840040002400447A
:1026E0004FF0E02310B50F499C691A6908689B698F
:1026F0000D4902F4803234B993B903464AB90A68E5
:102700001044C01A10BD002B08BF03460AB9A342EB
:10271000F5D90A6802440A604FF0E0221269EEE738
:102720000446F3E7C00B0020BC0B002010220A4B2C
:10273000002083F8232046F2A812084B1A60084BA9
:1027400046F2A71218604FF0E0235A6198611A69A7
:1027500042F007021A61704700ED00E0C00B002054
:10276000BC0B0020684620F007018D4619B5FFF725
:10277000B7FF1149114B0868D3E90042001942F133
:102780000002C3E9000200230B6046F2A8130C4AC2
:10279000D2E90041001BB0FBF3F043431B1941F1A8
:1027A0000001C2E9003100F089FFFEF7B1FCBDE88D
:1027B00019408546704700BFBC0B0020B0080020C0
:1027C000A80800202DE9F041DFF8E08099B1421C13
:1027D0000BD14FF0E022136923F0010313614FF096
:1027E0007F43C8F80030BDE8F081D8F800600128C8
:1027F00007DC00270BE0431CD8F80060F7D140F25B
:102800009E2040F29F239842A8BF1846471EEFF330
:102810001185102383F31288BFF36F8FFFF760FFDA
:102820004FF0E023224C9969D4E9002380184FF03F
:10283000000243F10003C4E900031E4B1A601E4B63
:102840001A68831A2ED446F2A81C0CFB073303F532
:10285000C3432733B3FBFCF7131A40F21A620CFB95
:102860000733934238BF1346144A934228BF134696
:102870004FF0E022C8F80030013B9069536100231B
:1028800081429361A1EB000338BF9B19D4E9001288
:102890005B1842F10002C4E9003285F31188BFF3EE
:1028A0006F8FA0E740F21A63E2E700BFC00B002081
:1028B000B0080020BC0B0020A8080020B095FF0045
:1028C00038B5EFF31185102383F31288BFF36F8FB0
:1028D000084B1C68084B1B68E41AFFF701FF85F3DF
:1028E0001188BFF36F8F46F2A8132044B0FBF3F0BA
:1028F00038BD00BFB0080020A8080020B8B1384B90
:102900001A6902F03002302A13D1364B98425ED950
:10291000354B98425DD9354B98425CD9344B98423F
:102920005BD9344B98422ED9334B98423BD9012086
:1029300070471A6902F03002202A10D12F4B9842BA
:1029400045D92F4B984244D92E4B984243D92E4B10
:10295000984242D92D4B984215D92D4BE5E71B697A
:1029600003F03003102B10D12A4B98422FD92A4B59
:1029700098422ED9294B98422DD9294B98422CD9CF
:10298000284B9842D3D804200EE0274B98421ED9FA
:10299000264B98421DD9204B98421CD9244B984273
:1029A0001BD9244BEDE70520234A136823F00F03BE
:1029B00003431360136803F00F0398420EBF0346EE
:1029C000136803F00F03C01A18BF012070470020DE
:1029D000EAE70120E8E70220E6E70320E4E700BF9A
:1029E0000008024480DE800200BD0105809B820752
:1029F000007A030A8058840C80B2E60E80CC06026E
:102A000000990D048065140600321B0880FE210A1F
:102A100000C2EB0B80C3C90100879303804A5D05A8
:102A2000000E270780D1F008002D3101005A620204
:102A300000B4C40400E1F5050020024008B5144BC1
:102A4000A8220021184603F096FC032211490261D6
:102A50004261114A8161C2614FF4806202620022C8
:102A600082624262C26201660C49034641661021DD
:102A700081660267C2664267BFF35F8F084911F83B
:102A8000010D98540132102AF9D1BFF35F8F08BDB0
:102A900010040020237C000810000020000000200B
:102AA0003C7C0008F8B5182700FB0775124B0E4652
:102AB0001D4407FB0033DB6A1446012B0AD0022BAE
:102AC00014D023B9284603F030FB844208D90024EF
:102AD0002046F8BD284603F028FB844228BF044660
:102AE00022463146284603F029FBF1E72846BDE897
:102AF000F84003F040BB00BF10040020F8B50B4BBA
:102B000004461B780D46532B164601D0FFF796FF5F
:102B1000EFF311874FF0200181F3118832462946E7
:102B20002046FFF7BFFF87F31188F8BD100400208F
:102B300010B4BFF35F8F00230A4A0B49C85C12F838
:102B4000014D844209D10133102BF7D10023BFF38B
:102B50005F8F23B110BCFFF771BF0123F7E710BCF3
:102B6000704700BF3C7C00081004002038B5EFF32C
:102B70001185102383F31288BFF36F8F064B9C6877
:102B800003F03EFB85F31188BFF36F8F2046BDE84D
:102B90003840FEF733BC00BFC40B002038B5094BEA
:102BA00053F82040013053F82050A54200D838BDDA
:102BB000636823B1204603F026FB0834F5E7236859
:102BC0009847FAE768760008012270B52A4B03207F
:102BD00086B01A70FFF7E2FF00F0F0FD03F02FFB64
:102BE0000420FFF7DBFF254C254D2646AE4204F1BD
:102BF000300410D300F002FB204C224EAC4226D30E
:102C000000F010FBFDF720FF1F4A137B23F00103A8
:102C1000137306B070BD54F80C3C059354F8103C87
:102C2000049354F8143C039354F8183C029354F85A
:102C30001C3C019354F8203C009354E90A2354E9C6
:102C40000C0100F0D1F854F8303C5E65CDE7D4E9D2
:102C50000A23B3F1FF3F08BFB2F1FF3F05D052EAAC
:102C60000301206803D100F097FA3034C6E73146FB
:102C7000183000F0A9FCF8E7F70D0020A470000858
:102C8000A4700008DF6200083809002008B5034876
:102C9000034A0021121A03F0CEFA08BD880500206D
:102CA000FC0D00200023012270B586B0CDE904237D
:102CB0000F220193CDE9023214234FF4A0720E4D7E
:102CC0000E4E03FB00550E4906EBC016044602FBF0
:102CD00000110C4B3046009500F086F8737B2C7485
:102CE00023F010037373084B013403EBC423EE602D
:102CF0006B6006B070BD00BFC40B0020B808002098
:102D00000016002041620008000E0020BFB5002020
:102D1000FFF744FF2C4B03F5006282F3088883F32E
:102D20000A880024F023294D294E85F82230EC77BB
:102D30002C766C76AC7685F820406B6A254F43F490
:102D4000E0236B62FEF72AFBFEF754FC4FF0FF33E3
:102D5000AB62EB62FEF7DAFDFEF770FC40F20112A7
:102D60001D4B1E4D9A81B360C3E91844DC6603F025
:102D700033FAFEF77FF90120FFF710FF0220FFF77B
:102D80000DFF00F085FA164B756105930123154977
:102D90004FF48062CDE9034328463B46CDE9014428
:102DA000009400F021F806466A7B284622F01002C3
:102DB0006A7303F068FA2046FFF774FF3A4631461B
:102DC0002846FEF7F3FB00BF000E002000ED00E0F8
:102DD000C40B0020C92B0008B809002038090020C6
:102DE0003D7C0008401700202DE9F043984685B04F
:102DF00000F15803C0E91633109B0026037310231B
:102E0000073222F0070543730F9B01EB05090F46BC
:102E100083734946C0E906668660C6730446FEF7BA
:102E200057F90E9B073020F00700A066C4E918751B
:102E300002930D9BA9EB000901930C9B4A4600935A
:102E4000394643462046FEF795FB054B66659B6871
:102E500003B1DB6E4846E36605B0BDE8F08300BF12
:102E6000C40B002038B590F90D200146002A437BA1
:102E700004DA03F07F03437303F0F3F90D4D2A46A0
:102E800052F8184FAB68944200D004B9EC689942EC
:102E900008D05A7B12F01B0F04D1DA897F2A01D99E
:102EA000A2692AB19C4202D0204600F0D3FA234600
:102EB0006B6138BDC40B002070B590F90D30427BBA
:102EC000002B38DB12F01B0F35D18369002B32D178
:102ED0001C4C62F07F024273224652F8181F914246
:102EE00018BF0B46E16923B9C0E900210860E06121
:102EF0000CE090F90E5093F90E60B5421CD0AE4232
:102F00001ADD5968C0E9003108605860A56995422A
:102F100000D005B9E568A3685A7B12F01B0F04D1F5
:102F2000DA897F2A01D9AA6952B1AB4202D0284678
:102F300000F090FA656170BD9942D5D01B68D2E768
:102F40006361F8E7C40B0020002A2DE9F8430CBFA9
:102F50004FF010094FF00809427B044619EA020FAE
:102F60000F4621D149EA0203D2092AD14373B9F1AC
:102F7000080F2CD04FF00008344E334653F8185F3A
:102F80009D4200D005B9F568B368AB4202D028462F
:102F900000F060FAB9F1100F756144D1BFF35F8F93
:102FA000637B23F060036373284B9B689C4247D18B
:102FB000EFF30583002B43D13846BDE8F843FEF715
:102FC00033BA03F07F03437303F04BF9CFE7A368F1
:102FD00013B1204603F04DF904F1180003F0A5F9F0
:102FE000A56D04F15806AE4211D04FF0000875B13E
:102FF000284603F03EF905F1180003F096F928463B
:10300000C5F87880FFF758FFA56DAE42EFD10F4BA2
:103010009B689C42AED1EFF30588B8F1000818BF59
:103020004FF00108A8E7B8F1000FB7D040F2011245
:10303000074B9A810022B360C3E91822DA66ADE734
:1030400087F31188BFF36F8FBDE8F883C40B0020AE
:10305000B809002070B590F90D200146002A437B85
:1030600004DA03F07F03437303F0FBF81D4C4B7B42
:10307000224663F07F034B7352F8183FE069934296
:1030800008BF002323B9C1E900200160E1610CE021
:1030900091F90E5093F90E60B5421FD0AE421DDD7E
:1030A0005868C1E9003001605960A569A36895427C
:1030B00000D005B9E568994208D05A7B12F01B0F81
:1030C00004D1DA897F2A01D9AA692AB19D4202D0A6
:1030D000284600F0BFF92B46636170BD9842D2D0FC
:1030E0001B68CFE7C40B002070B5214D0446AA68C9
:1030F000824224D1EFF305830BBBEFF3118610233B
:1031000083F31288BFF36F8F537B03F07F0343F089
:103110001003537303F0A5F82B4653F8184F9C4245
:1031200000D004B9EC68AB689C4202D0204600F0A5
:1031300091F96C613046BDE87040FEF775B904F155
:10314000180003F0F2F8EFF31181102383F31288D3
:10315000BFF36F8F627B1A4004D081F31188BFF3F5
:103160006F8F70BD2046BDE87040FFF7EDBE00BF19
:10317000C40B002049B9EFF3058030B9054B5A69FB
:103180009B689A4201D0FEF74FB981F31188BFF3D3
:103190006F8F7047C40B002010B5EFF3118410221D
:1031A00082F31288BFF36F8F427BD10604D484F37D
:1031B0001188BFF36F8F10BD22F010024273FFF72A
:1031C0007BFE2146BDE810400148FFF7D3BF00BF9A
:1031D000F80D0020034648B9EFF3058232B9064ADC
:1031E00051699268914201D0FEF71EB983F31188AC
:1031F000BFF36F8F704700BFC40B0020EFF3118146
:10320000102383F31288BFF36F8F054B9A68D37B2B
:10321000013BD37381F31188BFF36F8F704700BFF9
:10322000C40B002070B5EFF31186102383F31288CE
:10323000BFF36F8F154DAB68DA7B0132DA732A4624
:1032400052F8184F944200D004B9EC685A7B12F03F
:103250001B0F04D1DA897F2A01D9A2692AB19C42C5
:1032600002D0204600F0F6F823466B6186F3118801
:10327000BFF36F8FEFF31180102383F31288BFF336
:103280006F8FBDE87040FFF7A5BF00BFC40B0020E3
:10329000024B03F11802C3E906227047C40B002059
:1032A000F8B5EFF31186102383F31288BFF36F8F05
:1032B0001D4C2146A068437B03F07F03437302F05B
:1032C000D0FFA3685A7B62F07F025A7351F8182F1F
:1032D000E0698A4208BF002222B9C3E900100360F6
:1032E000E3610CE093F90E5092F90E70BD4217D0D5
:1032F000AF4215DD5068C3E9002003605360A56943
:103300008D4200D005B9E568A3689D4202D02846E9
:1033100000F0A0F865613046BDE8F840FEF784B8DB
:103320008242DAD01268D7E7C40B002050EA0103CA
:103330002DE9F04105460E4604D1FFF7B1FF00200C
:10334000BDE8F081831C71F1FF3324DB03F002F848
:103350004419EFF31188102383F31288BFF36F8FA2
:103360000F4F104BB8681860FFF77CFDB8680E4926
:103370002A463346183000F027F9BA684046537B96
:1033800043F010035373FEF74FF802F0E3FF201AE7
:1033900020EAE070D4E76FF00104241AD9E700BFF7
:1033A000C40B0020E40B0020DF620008B1F1FF3FF6
:1033B00008BFB0F1FF3F08B506D10A4B9868FFF788
:1033C00093FE4FF0FF3008BDFFF7B0FFC117093083
:1033D0004FF00A024FF0000341F10001FDF7CCF974
:1033E000F1E700BFC40B0020014B9868704700BF95
:1033F000C40B00200122044BC01A044BC0105843D8
:10340000034B1A54704700BF380A0020ABAAAAAA7F
:10341000F80D0020C3897F2B13D80B4B1B686BB1B1
:103420000A4B90F90E201B689A420ADB437B13F08B
:103430001B0F06D1064BC31A18BF012303F001006E
:1034400070470023FAE700BFEC0B0020E80B0020D8
:10345000B808002070B50E4B0E4C1E7C054606EBDE
:10346000460304EBC304204602F05FFF00220A4B30
:1034700028469A55FFF7CEFF48B1084B2046BDE8D5
:1034800070401A680649013AD31700F09DB870BD24
:10349000C40B0020380A0020F80D0020EC0B00209F
:1034A000F533000838B5EFF31185102383F3128844
:1034B000BFF36F8F104B114A9C681068A04206D171
:1034C000FFF7C8FF85F31188BFF36F8F38BD002168
:1034D0001B7C11600A4AD35C002BF3D02046FFF717
:1034E00099FF0028EED0637B13F01B0F02D120461A
:1034F000FFF7B0FD2046E3E7C40B0020E40B0020FB
:10350000F80D0020074808B5074A0849121A02F0CA
:1035100094FEBDE808400648064A0749121A02F020
:103520008CBE00BFC004002084050020B47C0008CD
:10353000B8040020C0040020AC7C0008034B1B68CA
:103540000BB9FFF7BDB90020704700BFF00B00209A
:1035500030B570B10B4B5B6898420AD0036843B139
:10356000D3E90421D0E90445121941EB0501C3E96F
:103570000421D0E9003213605A600023C0E900330F
:1035800030BD00BF3C05002010B50E4B1C689C42AE
:1035900004D1FFF7D3FF6FF0004010BDFFF7CEFF5F
:1035A000002CF8D0D4E904321B1A62EBE072B3F1BC
:1035B000004F72F10001EEDA002AACBF184600207D
:1035C000EBE700BF3C050020B3F1FF3F08BFB2F1BD
:1035D000FF3FF8B504461D4616465ED08160EFF306
:1035E0001187102383F31288BFF36F8F013275F1B7
:1035F000FF3324DA6FF001032D49D1E900209B1A33
:103600004FF0FF3262EB00009E1B60EB0500012EC5
:1036100070F1000301DA01260020C4E90460254EA0
:10362000D6F800C07568B44508BF4FF0000CBCF177
:10363000000F0DD1C4E900652C6074601CE0FFF739
:103640007DFF013645F10005361845EBE070E4E7F3
:10365000DCE90420D4E90431934271EB000E1DDA59
:10366000D21ADCF8043060EB0100CCE90420C4E994
:1036700000C31C60CCF804403368B34209D09C42BC
:1036800007D10D4B1C6824B9FFF77EFF2146FFF7D9
:1036900099F887F31188BFF36F8FF8BD9B1A61EB20
:1036A0000001AC45C4E90431C4D0DCF800C0BEE779
:1036B000500A00203C050020F00B00202DE9F84FB7
:1036C000EFF3118C102383F31288BFF36F8FDFF8B1
:1036D000B0A0DFF8B0900024C9F80000DAF80000CC
:1036E0000025504508BF0020274FE046D7E90021BC
:1036F000D9F8003078B3D0E9046C4FEAE37EB342E6
:103700007EEB0C0B05DAF61A6CEB0E04C0E90464D0
:1037100021E0B21841EBE671C0E90445C7E9002198
:10372000FFF716FF88F31188BFF36F8F8368984700
:10373000EFF31188102383F31288BFF36F8FD9F84A
:103740000030DAF800009B1B5045C446C9F8003031
:10375000CBD1D7E9002100249A1841EBE373C7E9E4
:103760000023C9F80040FFF70FFF2146FFF72AF8B2
:1037700088F31188BFF36F8FBDE8F84FFFF792BE53
:103780003C050020F00B0020500A002010B5EFF39C
:103790001184102383F31288BFF36F8FFFF7CEFEDF
:1037A0000346054AD2E90001181841EBE37184F39E
:1037B0001188BFF36F8F10BD500A0020014801F03F
:1037C0005BBF00BF427C00080FB407B504AA064BDC
:1037D00052F8041B1868019200F0EEF803B05DF88F
:1037E00004EB04B0704700BF2C7400080CB430B573
:1037F00089B005460C461C22002101A802F0BBFD41
:10380000022305958DF806300D4B029323462CB10B
:10381000B4F1004F28BF4FF00043013B1D440DAAF7
:103820000C9901A80695009200F0C6F814B1059B0A
:1038300000221A7009B0BDE8304002B0704700BFE6
:103840004F6A00080EB470B589B005461C220021ED
:103850000DAC01A854F8046B02F08DFD012301A802
:10386000224631468DF80630054B059503930094AA
:1038700000F076FD09B0BDE8704003B0704700BFAE
:103880003B6A00082DE9F04101260746B24201DCFF
:10389000BDE8F0813B461F4613F8014B002CF7D0E2
:1038A000252CF8D11C780237252CF3D00023DFF823
:1038B00004819C461D461F2D18D8A4F1200EBEF190
:1038C000100F09D9A4F1300EBEF1090F1ED80A2439
:1038D000202504FB03E304E028FA0EFE1EF0010F8E
:1038E00006D017F8014B002CE5D128E07F2D1CD81D
:1038F000A4F1300EBEF1090FE9D9242C10D1BCF18E
:10390000000F46D0B34246D00023EAE724F0040E6D
:10391000BEF12A0FF8D06C2C09D145F08005E0E704
:1039200024F0040EBEF12A0FEED06C2C22D06C2CA9
:103930001BD8682C23D06A2C28D04C2C26D0BCF164
:10394000000FA5D0B445A1D144F020070B68A7F122
:10395000650CBCF1020F01D9612F1ED1073323F092
:103960000703083301360B608FE7742CB9D07A2C2B
:10397000B7D0E4E72C0648BF45F40075CDE7EC0569
:1039800048BF45F4007545F48075AAE745F42075F5
:10399000A7E79C46B8E76324D6E7692C02D007D88E
:1039A000632C03D02F0601D5AC05D7D40433D9E757
:1039B000732CF6E7892801002DE9F04F436895B094
:1039C0008046039383789807CDE9081216D50B46F5
:1039D00000250D921F789FB1252F15D00133079335
:1039E00041463846039B01359847002880F22C84D5
:1039F00098F8023043F0040388F802304FF0FF35A6
:103A0000284615B0BDE8F08F5F789A1C252F0792E5
:103A1000E6D000242646A246A346BBF11F0F32D8AB
:103A2000A7F12003102B0AD8DFE803F02409092AA4
:103A30000909091B09090922092709091900A7F120
:103A40003003092B2DD92A2F39D154B90D9B1BF0E6
:103A5000400F53F8042B0D9329D0164601E04BF08C
:103A6000010B079B13F8017B0793002FD5D15BE077
:103A70004BF0020B4BF0040BF3E74BF0080BF0E7B5
:103A80004BF0100BEDE7BBF17F0F3FD8A7F13003F0
:103A9000092BD8D81BF0400F03D00A2202FB0636B0
:103AA000DFE70A2202FB0A3A4BF0200BD9E7B2F11A
:103AB000000AF9DACAF1000A4BF0280BD1E72E2FE1
:103AC00005D11BF0400F9BD14BF0400BC9E7242FD1
:103AD0001CD1002C00F03F81099B1BF0400F0D937F
:103AE0000AD152460DA90898FFF7CCFE0D9B1A1D6E
:103AF000D3F800A00D92B4E732460DA90898FFF75D
:103B0000C1FE0D9B1A1D1E680D92AAE76C2F00F0D6
:103B10000F8100F20681682F00F012816A2F00F0F9
:103B200017814C2F00F0148134B1099B22460DA956
:103B300008980D93FFF7A6FE002E47F02009B8BFA6
:103B40002BF0400BA9F16503BCBF00261FFA8BFBCD
:103B5000022B40F20581B9F1610F40F05B82FF4317
:103B60001BF0400F4BF4C05407F0200308BF4FF088
:103B7000FF3606930D9B073323F0070303F108027A
:103B8000D3E90001069B0D920EAA0093334602F082
:103B90009BFE0130C3B2B342049301DB049B5E1E63
:103BA00001230E9FA3464FF07009059307F1090307
:103BB000122B0DD907F16303C62B40F20C8107F2DB
:103BC000E73340F2CE72934294BF0323042305935C
:103BD0009DF83C2002F00C0312F0010240F0168127
:103BE0001BF0020F40F00F811BF0040400F0F58081
:103BF000002B40F00E8120231BF4405F20D1049A5B
:103C0000002E02F1500208BF01266A44133A0499BB
:103C100021B112F8011D302900F030811BF0100F86
:103C2000049A18BF3246391DC0F22D81B74280F286
:103C30002A81BA424BF4005B40F327817E1C961B1D
:103C40001BF400520A9200F0228127EAE774013443
:103C500003B10134002E00F02281721C1444A245ED
:103C6000CCBFAAEB040400241BF0090F04D12C44A0
:103C7000A54240F0198100243BB118464146039B00
:103C8000013598470028FFF6B3AE1BF4006F12D041
:103C900041463020039B98470028FFF6A9AE069BBB
:103CA00041460235C3F17800039B00F0F8009847C5
:103CB0000028FFF69DAE1BF0080F05D12C44AC4246
:103CC00040F0FE80254600240A9B002B00F017815F
:103CD00027EAE77A7642A7EB0A07049B0AF1FF3A44
:103CE00005F101094146BB4289BF0EAB3020FB18EC
:103CF00058795645039B00F3EC809847002807F15C
:103D00000107FFF675AEBAF1FF3F08D141462E20FC
:103D1000039B98470028FFF66BAE05F102094D465C
:103D2000DBE7742F3FF49DAE7A2F3FF49AAEFBE6AB
:103D30001BF0800F18BF4BF4007B4BF0800B90E61C
:103D40001BF4807F18BF4BF4007B4BF4807B88E62C
:103D50004BF4207B85E626465446B346B24680E6C1
:103D6000FF431BF0400F07F0200308BF0626B9F100
:103D7000650F06930D9B03F1070323F0070303F17F
:103D80000802D3E900010D9213D1731C00224BF4F9
:103D9000805BDBB21446112BCDE9002428BF112330
:103DA0000EAA01F031F80E9FC3B2049302230593CB
:103DB000FCE6B9F1660F05D14BF4005B34460122F5
:103DC0001123E8E7F3B200224FF06509012B1446F6
:103DD00038BF0123DFE70223F9E6002B3FF40CAFE5
:103DE000BAF1030F39DC9DF83C30A14E13F0080FF7
:103DF000A04B08BF1E463746B94617F8010BA0BBBB
:103E0000AE1BB14478E023BB2B23F5E61BBB2D236F
:103E1000F2E62022BAF1040F12DD1BF0080FAAF11E
:103E200004040ED12C4441462020039B013504920A
:103E300098470028FFF6DCADA542049AF3D192B171
:103E4000002441461046039B013598470028CADAF2
:103E5000CEE52B22DEE72D22DCE71BF0080FAAF1CE
:103E60000304C0D1DEE71446BDE7069B4146C01AF5
:103E7000039BC0B298470028BEDAB9E5049901391E
:103E8000C9B20491C3E6561EDAE60026D8E61BF452
:103E9000006F059A0CBF032405241444D8E61BF0D8
:103EA000100F18BF0134DAE60B934146039B202024
:103EB0009847002805F101050B9BBFF6D9AE97E5A1
:103EC00041463020039B013598470028BFF6F7AEE6
:103ED0008EE598470028FFF68BAD1BF0100F0BD036
:103EE000BAF1FF3F08D105F1020941462E20039B9C
:103EF00098470028FFF67CAD4D464C442BE24146E6
:103F00009DF83D00039B98470028FFF671AD002EF9
:103F100065DD41462E20039B98470028FFF668ADDB
:103F20004FF0010A049B4146D3469A45B7BF0EABFA
:103F3000302053445879039B98470028FFF658AD2A
:103F40000AF1010A5645EDDA02355D44069B414609
:103F5000A9EB0300039BC0B298470028FFF648ADC9
:103F6000002F4146039BB6BF2D202B207F42984750
:103F70000028FFF63DAD059B042B3DD14FF47A7927
:103F80004146039B0335B7FBF9F606F13000C0B29A
:103F900098470028FFF62CAD09FB16774FF064090F
:103FA0004146039B0135B7FBF9F606F13000C0B27C
:103FB00098470028FFF61CAD09FB16774FF00A0959
:103FC0004146039B0135B7FBF9F606F13000C0B25C
:103FD00098470028FFF60CAD09FB167713E01BF09D
:103FE000100F01D10135B1E741462E20039B023568
:103FF00098470028AADAFBE4059B0235032BCDD0B5
:10400000059B012BDAD107F1300005F1010941468A
:10401000C0B26CE7A7F16303122B00F2FE80DFE869
:1040200013F013005600FC00FC00FC00FC005600DE
:10403000FC00FC00FC00FC00FC001601F700FC008A
:10404000FC002B00FC00B8000D9B01240EAF1A1DD4
:104050001B680D928DF838301BF0080F2DD03E19DB
:10406000B946B1452BD1EF1BB944AAEB040443E791
:10407000817C00087D7C00080D9B1A1D0D921F6835
:10408000AB4B002F08BF1F461BF0400F384614BF34
:1040900031464FF0FF3102F098F90446DCE7414623
:1040A0002020039B98470028FFF6A2AC013EB442B3
:1040B000F5D35544B246AD1BD1E75646F7E7414626
:1040C00019F8010B039B98470028CADA90E41BF00B
:1040D000800F0D9B35D01BF4007F2DD0073323F0CC
:1040E000070303F10802D3E900010D922BF0100938
:1040F00000291FFA89F936DA404249F4806961EBF8
:1041000041010DF1380B0A235A4602F080F919F0EB
:10411000400FA0EB0B0B65D029F001025E4592B277
:1041200040F3B280002F00F0A98019F0100334464C
:10413000914626D002345CE01A1D18680D92C11712
:10414000D4E71A1D1BF4807F19680D9201D108462F
:10415000F5E71BF4007F19BF48B241F3C01108B264
:1041600041F3C031C2E750EA0103CAD11BF0400F4E
:10417000C7D0002EC5D12BF0110B34461FFA8BF996
:10418000B34640F2064319EA03031CBF013400237F
:104190002FE02BF0100B0A231FFA8BFB1BF080047F
:1041A0000D9A57D01BF4007115BF0732101D22F075
:1041B00007020D900FBF106802F108010D91D2E9BE
:1041C000000150EA010252D12BF016091BF0400FFA
:1041D0001FFA89F94FD0002E4DD12BF0170B1FFA83
:1041E0008BF9B34619F0100352D0002F4ED10BF1CA
:1041F000010419F0080F5ED119F0010F06D0A24595
:104200006EDDAAEB040404EB0B06544622464DE097
:104210004BF0100B10237827C0E7B9F1780F04D1C9
:10422000C7F1780343F01003B8E741462520039B0C
:1042300098470028FFF6DCAB41463846039B984779
:104240000028FFF6D5AB0235079BFFF7C3BB082359
:104250000027A3E7111D10680D911BF48071B0D0E9
:104260001BF400711ABFC0B2214680B2A9E72BF03F
:10427000060B1FFA8BF90DF1380B45E729F01109F0
:1042800034461FFA89F97CE79146ABE75C4651E773
:104290005C4676E7CDE9042341462020039B9847FE
:1042A0000028FFF6A5AB049A059B01329245F1DC8C
:1042B0002C1BA5181446F3B141463020039B9847A8
:1042C0000028FFF695AB6FB90135A9462E44A6EB41
:1042D00009035B4521DC5D460EAE5DBBD944C4E6F7
:1042E0005E4693E7023541463846039B98470028CF
:1042F000EBDAFFF77DBB40F2064319EA030FE4D087
:1043000019F0020F05F10105414614BF2B202020B2
:1043100019F4806F18BF2D20E7E741463020039B3A
:1043200009F1010998470028D1DAFFF761BB00BF06
:10433000857C0008013D4146039B705D984700283D
:10434000CBDAFFF755BB41462020039B0135984748
:104350000028FFF64DAB631B002BF4DC74E700BFB5
:104360002DE9F04F002391B0029007920E920F9327
:1043700006930D4615F8016BAEB1202E17D0A6F1AD
:104380000903042B13D9252E17D00FA9029802F088
:1043900065F8031EC0F2F380DBB2B3420BD00FAA64
:1043A000029902F065F8069811B0BDE8F08F0FA9E8
:1043B000029802F065F82946DBE74E788D1C252E21
:1043C000E3D02A2E03BFCD1C8E78012400240027C1
:1043D000A6F13003DBB2092B19D9A20723D5242E6D
:1043E00023D1079B24F0020400220E93A4B20123E0
:1043F0009F4215DC42B17B1E002F0E9A4FEA8303C9
:10440000D8BF00231A440E9215F8016BDFE744F081
:1044100002040A2215F8016BA4B202FB0737D7E7A2
:1044200001330122E4E74FF0FF376C2E35D007D877
:10443000682E24D06A2E3FD04C2E37D026B9B2E752
:10444000742E36D07A2E34D03146894802F02FFAB5
:104450000028A8D014F001030C9311BF4FF0000AFC
:104460000E9B1A1D0E9208BFD3F800A06E2E26D107
:104470000F9A00235046009402F017F89BE72E781D
:10448000682E04D044F02004A4B20135D6E744F0ED
:1044900030046E78A4B20235D0E72E786C2E02D0AC
:1044A00044F00404F0E744F00C04F2E744F00C0498
:1044B000A4B215F8016BC1E744F00804F8E7632ED5
:1044C0001FD114F0020F04F0040408BF01270FA944
:1044D000029801F0C3FF002851DBBAF1000F02D0AF
:1044E00064B14AF8040B013FF1D10C9B002B7FF41F
:1044F00062AF069B0133DBB206935CE70AF8010B5F
:10450000F1E75B2E5DD12B7800265E2B06BF0135CF
:104510004FF001094FF000090FA9029801F09EFF2A
:104520000022A84605F1010E9446114618F8013BF9
:10453000FBB1F04508D05D2B12D02D2B04D132B940
:104540000B4601221946F1E7002A08BF19468842A6
:104550004FF00002F6DB9842D8BF4FF0010CF1E7B4
:10456000002805DBE14511D10FAA029901F080FF77
:10457000CEB9029B9B7813F00C0F3FF414AF069B4F
:10458000002B14BF18464FF0FF300DE7BAF1000FB3
:1045900005D063074CBF4AF8040B0AF8010B013F32
:1045A0004FF00106B8D1BAF1000F01D145469CE7A2
:1045B00014F0040416BF00238AF80040CAF8003043
:1045C000F4E70FA9029801F05BFF0028D7DB582E13
:1045D0007BD0643EF3B2142B00F2BD80142E00F2A7
:1045E000BA80DFE806F00BB8B8B8B841B8B8B8B8C8
:1045F000B86F72B8B852B80BB8B872004FF00A086A
:104600000FA9029801F02AFF2B2804D02D280AD1E7
:1046100044F04004A4B2013FABD00FA9029801F0CE
:104620001DFF0028A5DB302877D1B7F1010918D08C
:104630000FA9029801F012FF002812DB40F02003BE
:1046400044F08004782BA4B242D138F0100344D156
:10465000B7F1020905D00FA9029801F0FFFE00286A
:1046600062DA002637464CE04FF00008C8E700BF8A
:104670008C7C0008BAF1000F05D066074CBF4AF8E1
:10468000040B0AF8010B013F0FD00FA9029801F0AB
:10469000E5FE002809DB202803D0A0F10903042B44
:1046A000E8D80FAA029901F0E3FEBAF1000F3FF437
:1046B0001CAF14F0040416BF00238AF80040CAF8A7
:1046C000003012E74FF008089AE74FF0100897E71C
:1046D000B8F1000F08BF4FF0080800263746392808
:1046E000034682BF00F1FF3343F02003263B303BFB
:1046F00098451CD80FAA029901F0BAFE20067FF552
:1047000038AF610602D5764267EB470732463B4633
:104710005046009401F0C9FEE7E6B946B8F1000F33
:10472000DBD14FF00A08D8E74FF01008D5E7A8FB17
:10473000066244F080049E1908FB0722A4B242F1ED
:104740000007B9F10109DCD00FA9029801F086FE3B
:104750000028C4DAD5E70FA9029801F07FFE039084
:104760009DF80C302B2B04D02D2B0DD144F04004A0
:10477000A4B2013F3FF4FDAE0FA9029801F06EFE16
:10478000031E0393FFF6F5AE039B43F02003692B52
:1047900069D06E2B00F099804FF000080A2346463E
:1047A000C146CDE90488220540F1BE80039A42F05B
:1047B0002002D2B2A2F16101052900F2B580573A78
:1047C000D2B2934240F3008144F0800BE1051FFA1E
:1047D0008BFB40F1CC801BF4807F0BF4007100F068
:1047E000D7800598002A18BF40F00100059009B94C
:1047F00008F10108013F0D9300F0FB800FA902981A
:1048000001F02CFE031E5C4603930D9BCBDA2106C0
:104810007FF5AFAE2205039A4CBF7023652342F0AB
:10482000200248BF4FEA88089A4240F02A81B7F137
:10483000010B00F028810FA9029801F00FFE03463A
:10484000C2B22B2A05D02D2A40F0F18044F48064B6
:10485000A4B2B7F1020B40F0CE800FAA029918461D
:1048600001F006FE0FE1734E4FF00008DFF8C8912B
:1048700016F801BBBBF1000F13D0013F0DD00FA9FB
:10488000029801F0EBFD031E07DB43F020035B45BC
:10489000EED00FAA029901F0EBFD684B9E427FF427
:1048A00068AE42464B4640464946FBF7E3FE38BBFE
:1048B000013F25D00FA9029801F0D0FD282816D07D
:1048C0000FAA029901F0D4FD1AE05D4E4FF00008E6
:1048D000DFF87091CCE720F02003413B192B06D97B
:1048E000A0F13003092B02D95F287FF442AE013FCB
:1048F0003FF43FAE0FA9029801F0B0FD2928EAD19C
:10490000630606D509F10043CDF828800B93DDE955
:104910000A89BAF1000F3FF4E8AD14F00C0F00F073
:104920006D81CAE90089E0E5039A303AD2B29A4231
:1049300040DA44F0800BE1051FFA8BFB3FF54BAFEB
:104940000A2B14D114F00C0F1FD1049908297FF7FA
:1049500042AF44F4C07B042A1FFA8BFB7FF63BAFC7
:10496000052A4FF0020108BF0022059133E714F039
:104970000C0F049907D107297FF72DAF44F4C07BB2
:104980001FFA8BFB27E70F29F6E704991029DEE7CA
:1049900009B108F1FF38A3FB0661961903FB091161
:1049A00041F1000956EA09023FF424AF049A0132AA
:1049B00004921FE7FE2A07D1A2053FF528AF44F471
:1049C000007B1FFA8BFB15E7039A04F0800342F08B
:1049D0002002782A7FF41BAF002B3FF418AF56EA71
:1049E00009037FF414AF44F4006B10231FFA8BFB10
:1049F00000E75C460BE70FA902980D9301F02EFD2E
:104A00000D9B1F460346A3F13002092A1CD9184604
:104A10000FAA029901F02CFD7B1C04D00FAA029969
:104A2000384601F025FD0FAADDE9021018E74FF026
:104A3000FF37E8E7A37C00080000F07FA67C0008B1
:104A4000A07C00080000F87F00270A2240F2D34132
:104A50008F42DCBFA3F1300102FB0717BBF1010B52
:104A600009D00FA9029801F0F9FCA0F1300103462A
:104A70000A220929EAD96005039348BF7F42B84456
:104A80005F46002FCFD156EA090300F0B28021051E
:104A900004F00C0240F18A80002A4FF001005F49C7
:104AA00012BF352318236FF07D015F1CA3F11F0295
:104AB000C7F1200C00FA02F2B84420FA0CFCB8400E
:104AC00042EA0C02864279EB020751D30127A3F197
:104AD0001E02C3F11E0C981C07FA02F227FA0CFC06
:104AE00007FA00F042EA0C02864279EB020745D24F
:104AF000884543DB059A324316464A4606F00300D2
:104B0000032803D006F0060006280BD1043649F12D
:104B10000002B2F5000F21BF760808F1010846EA4D
:104B2000C2765208B608C3F13500C3F11507153B2C
:104B300046EA8276920806FA07F726FA03F38240DD
:104B400006FA00F03A431A43344B994225D1B8F59E
:104B5000806F5DDAB2F5801F25D308F2FF3822F4AA
:104B6000801242EA085308900993DDE90889C7E6F4
:104B7000B61908F1FF3849EB0909A3E7770806F0F1
:104B8000010608F1010847EAC9774FEA59093E438F
:104B9000AAE7001808F1FF385241B2F5801F34D25D
:104BA00018F57F7FF5DA4FF00008DAE7059B06F08D
:104BB00001001843049B013043448008301849F138
:104BC00000015AB113F5A27F13DDB3F59B7F1FDA05
:104BD000424600F027F88046894691E613F12D0FF2
:104BE00007DB272B14DC414601F0A5FCFBF794FC06
:104BF000F1E74FF000084FF0000981E640464946D2
:104C0000FBF76AFDCAF800006FE4B8F5806FA4DB1B
:104C10004FF00008DFF8089072E600BF02FCFFFFCB
:104C20000000F07F2DE9FF47804616460F46002919
:104C300000F09E80B1FA81F4341B002E04F10A04C6
:104C4000C0F29E80304600F03FFB0444304600F046
:104C500041FBA4EB060905466946304600F062FBBD
:104C6000A9EB05036A4640467D33394601F033FC23
:104C7000A64282460D467FDCB9F13F0F7EDC4FF045
:104C8000FF33A9F12000C9F1200103FA00F003FA73
:104C900009F223FA01F103FA09F3024328EA0303B4
:104CA0000A4327EA020213430CBF01200020002D13
:104CB00000F08880B5FA85F3E31A40F2FE7203F241
:104CC0003E43934200F38780002B23EAE376D4BF70
:104CD00001223246121BA2F23341A2F23447A2F261
:104CE0005344C1F1200C2AFA01F325FA04F4C7F168
:104CF000200E05FA0CFC25FA01F105FA0EFE43EA36
:104D00000C03A2F2544CA2F2544223432AFA07F4B1
:104D100025FA0CFC44EA0E0444EA0C04C7F1200C0A
:104D200014F0010F52D0A8B14FF0FF3000FA02F298
:104D300000FA07F4144320FA0CF2B840144303F0CD
:104D400001022AEA000A25EA04054AEA020A5AEAA6
:104D5000050A3BD0013341F10002C2F3130253EACA
:104D6000020136D0184642EA065104B0BDE8F08789
:104D7000B0FA80F420345FE7012098E7002096E73E
:104D8000C6F10009484600F0A5FA241A484600F08A
:104D9000A1FAA61B0546694648462E4400F034FB9E
:104DA0006A46404606F17C03394601F094FB824690
:104DB0000D464046394600F09DFA81458CBF0020E3
:104DC000012074E7BAFA8AF3203375E7C1F31302BE
:104DD000C8E70136C6E700200049C6E70000F07FBB
:104DE0001FB502AB074A00934FF0CC3301F025FD0D
:104DF000DDE90201C00840EA4170C90805B05DF86C
:104E000004FB00BFCDCCCCCC2DE9F04F9BB00446C9
:104E100005920A460A93C2F30A559DF89030D20FC4
:104E20000B93C1F313030992090D7DB950EA0302F4
:104E30001CD1059A302301265371099B156043F05C
:104E40000203137130461BB0BDE8F08F40F2FF72D1
:104E500095424BD10343099B059A4FF0000614BFBE
:104E600043F0080343F004031371EBE700F0010281
:104E70004FEA830887009A460892012248EA907810
:104E8000AA4D1646C5F1000B0692584600F016FAD8
:104E9000B5F1FF3FACBF8146A0F10109ABEB090BB7
:104EA00009EB05035846049300F01CFA16A9A0F17B
:104EB0007D05584600F036FA12AB069AA9EB0505B7
:104EC000019310AB20460292009316AA2B4651463E
:104ED00001F0BFFBB9F1010F04460D4600F2D2808C
:104EE000089B002B40F0C58001276BE043F4801A3B
:104EF00000F001020343A5F235454FEA8A08089203
:104F00004FEA800748EA907849D140F2FE7319428F
:104F10000CBF01260026002D3246B3DB284600F0E8
:104F2000C7F9032DC8BF0138049000F0DBF9049BDA
:104F30007C3016A95D1B0544184600F065FA12ABDB
:104F4000204616AA019310AB5146029600932B46B9
:104F500001F07FFB049B04460D46152B00F2868072
:104F600014AB734A3846414600934FF0CC3301F0FE
:104F700064FC149B159A9B0843EA827303EB83033A
:104F8000BB42DDE9109A0CD13846414600F0B2F937
:104F9000049B83428CBF00270127002612E00126D4
:104FA000B9E7089B002B51D1013F48F1FF31B81BF5
:104FB00061F1000100F09EF9049B089F83428CBFC1
:104FC000002601260B9B002B40F09180DDF828B0D5
:104FD0004FF000084FF00A0ACDE90688DDE910011C
:104FE000FFF7FEFE129BCDE90C01184613990E93B4
:104FF000FFF7F6FE0C9B81460D9A98420B460F91E7
:10500000934180F08E8020462946FFF7E9FE0AFB97
:1050100009F30E9AB8F1000F14BF002707F001073B
:105020000AFB10480D46934214BF002606F0010605
:105030000C9B5FFA88F8044610930D9BCDE911395B
:105040000F9B1393079B01330793C7E7B81C48F1E5
:10505000000100F04FF9049B83428CBF0020012027
:10506000B9EB00006AF10002CDE9100200273E46CC
:10507000A8E7109B0127119A013B42F1FF32CDE9CD
:1050800010328AE7B9F13E0FF0D84FF0FF33A9F1A3
:105090002000C9F1200103FA09F203FA00F023FA13
:1050A00001F103FA09F3024327EA03070A4328EA56
:1050B000020857EA08070CBF012700276DE700FB2D
:1050C00002FC0133A1FB001262448C4275EB020C1E
:1050D000F5D2049ADDF828B01344259A1344D20F70
:1050E0009342B8BF13469B45A8BF9B4670E70A2171
:1050F000002201230846E8E70AFB03F00131A2FB86
:105100000A230344944275EB0300F5D2594511DD9F
:10511000BBF1000F02D154EA05030BD00123069323
:1051200071E70A2200230121ECE700BFCCFBFFFF5F
:10513000CDCCCCCC002E2FD04FF00A0A129B139965
:1051400018460D93FFF74CFE0D9B0AFB00F28146BB
:105150000C919A4220D1B8F1000F14BF002707F03C
:105160000107DDE91001FFF73BFE0E900D9120468F
:105170002946FFF735FE0D9B0AFB10480E9A0446A0
:105180000D465FFA88F81092CDE911390C9B139304
:10519000079B01330793D1E7DDF81090079B9944F3
:1051A000002F5DD0B8F1050F5AD114F001034DD195
:1051B000069A32B9DDE912239D4208BF944262D0BB
:1051C000069B18194FF00A044FF000024FF0010639
:1051D00045F100012546A04271EB020756D2F3B11A
:1051E000B3451CDA0B9B6BB106EB0903259ADDF87E
:1051F00028B01344012BB8BF01239B45A8BF9B4691
:105200005E450CDD053009F1010906F1FF364FF06E
:105210000A024FF0000341F10001FBF7ADFA5E45D1
:105220000FFA89F9059BA8BF5E4636B2B14406F174
:10523000050809F1FF3798444FF00009B1452CDB10
:10524000059B1A461F60099B1371FBE5069B2BB952
:10525000DDE912239D4208BF944209D00123B0E743
:10526000069B53B9DDE912239D4208BF944204D145
:10527000089B002BF2D1002EF0D0B8F1040F94BFA0
:10528000002301239DE74FF00408F1E705FB02F737
:105290000136A4FB05423A449DE70A220023FBF7AE
:1052A0006BFA303209F1010908F8012DC6E700BF99
:1052B000014B5843800C704741340100014B584367
:1052C000000D7047FB2E0B00014B5843C00C70477C
:1052D0004F931200024B5843C00C0130704700BF7F
:1052E0004F931200024B5843C00C0130704700BF6F
:1052F0004F93120070B50346094A00204FF0CC3698
:105300004FF0333506FB03F402FB0144A3FB0231EB
:1053100021449D4275EB010401D30130F2E770BDD9
:10532000CDCCCCCC1A232DE9F04FB0FBF3FA334EA1
:1053300003FB1A0389B004460D4606EB0A1653B95F
:10534000D6E90023C1E90023D6E90201C5E902013B
:1053500009B0BDE8F08F2A4A02EBC303D3E9008904
:1053600004AB404649460093D6E9022301F065FAB2
:1053700006AB83460F46404649460093D6E90023D4
:1053800001F05BFA00238146DDE9066216EB0B06AD
:1053900052EB070828BF012333B1049B059A013360
:1053A00042F10002CDE9043220460391FFF79AFF53
:1053B00007461A2000FB0AF0FFF794FF3F1A324617
:1053C000434648460399009701F052FA0D4A4FEAC6
:1053D000141C640004F01E0352F82C40DC4004F05E
:1053E00003042418304641F10001DDE90423C5E936
:1053F00000414146009701F03BFAA7E71072000810
:1054000040710008807600082DE9F04F1A2700F15E
:105410001905DFF8E0A089B004460E46B5FBF7F5A4
:105420006F434FEA051B0AEB05153A1A0AD1D5E975
:105430000023C1E90023D5E90201C6E9020109B050
:10544000BDE8F08F2C4B03EBC203D3E9008904AB1A
:10545000404649460093D5E9022301F0EEF95AF897
:105460000B206B68013ACDE9020106A963F1000344
:1054700040460091494601F0E0F98A46029900232E
:105480008146DDE906526D18039952EB010828BFE9
:10549000012333B1049B059A013342F10002CDE9A7
:1054A00004323846FFF71EFF07462046FFF71AFF73
:1054B0003F1A2A46434648465146009701F0D8F91C
:1054C0000E4A4FEA141C640004F01E0352F82C40EC
:1054D000DC4004F0030401342418284641F10001A3
:1054E000DDE90423C6E900414146009701F0C0F917
:1054F000A3E700BFE072000840710008D4760008FE
:10550000704783689B6A03B1184770470346F0B43D
:1055100019790068DB8801250669DA07346854BF09
:1055200043F4D01383F4B0138D4023F48012DB07CF
:1055300087684CBF2C43AC4334603B68F0BC1847D1
:105540000A2180FB0101FDF731BF0346F0B4197950
:105550000068DB8801250669DA07346854BF43F424
:10556000D01383F4B0138D4023F48012DB078768D7
:105570004CBF2C43AC4334603B68F0BC184770B55B
:1055800004464D1E15F8011F31B9A3682046BDE839
:1055900070400D215B681847A36820465B689847F8
:1055A000F0E700EBC100408840087047F8B50346BB
:1055B000FFF7F7FFB0FA80F0C0F11F0003EB800C9B
:1055C000DCF81060CA00171D0C4606328DB256B9C1
:1055D000012101FA00F0D9680143D960CCF81040EC
:1055E000DD539D52F8BDF1000431585AD85303EBF6
:1055F000C0009E52C5805D52F4E7043A2DE9F041A7
:10560000CC1D114424F0070421F007010E1BF708FC
:10561000B7FA87F24FF00008C2F12405AD00073554
:10562000C2F12002ED0804604146A760C4F80C8076
:10563000920004F1100000F09EFE6B0043F00103A5
:1056400063807B1B04EBC5025900A4F800805180E5
:10565000A21924F83550A2F80280A35304EBC70323
:105660005A88294642F001025A802046BDE8F0419E
:10567000FFF79CBF002070470FB407B504A951F88D
:10568000040B0191FBF7AAFC03B05DF804EB04B036
:1056900070477047012801D1EFF30583FDF766BA23
:1056A00001460068FFF7F6BF00210120FFF7F2BFB7
:1056B000036E83F30B88704761B662B680F311887E
:1056C000BFF36F8F704772B6002383F31188BFF367
:1056D0006F8FBFF34F8F30BF62B6BFF36F8F7047CE
:1056E00040E800F313F4803FD8B208BF6FF0150014
:1056F000704730B50C684B6885B00A894D890094B5
:10570000013B24F01F04234402F01F0242EA451229
:1057100023F01F0369468DF808200393FBF7C4FFAD
:1057200005B030BD08B5FCF77FF9002008BD0020AA
:1057300008B50B21FCF7C6F9024601460B20FBF722
:10574000DFFE00220C210120FCF7BCF911460C20E1
:10575000FBF7D6FE00220D210220FCF7B3F911461B
:105760000D20FBF7CDFE00220E210320FCF7AAF945
:1057700011460E20FBF7C4FE00220F210420FCF787
:10578000A1F911460F20FBF7BBFE002210210520D6
:10579000FCF798F911461020FBF7B2FE0022112108
:1057A0000620FCF78FF911461120FBF7A9FE002215
:1057B00012210720FCF786F911461220FBF7A0FE04
:1057C000002213210820FCF77DF911461320FBF776
:1057D00097FE002214210920FCF774F911461420C9
:1057E000FBF78EFE002215210A20FCF76BF911460B
:1057F0001520FBF785FE002216210B20FCF762F92D
:1058000011461620FBF77CFE002217210C20FCF726
:1058100059F911461720FBF773FE002218210D20BD
:10582000FCF750F911461820FBF76AFE00221921F7
:105830000E20FCF747F911461920FBF761FE002204
:105840001A210F20FCF73EF911461A20FBF758FEEB
:10585000002008BD01208840704710B50F24C20009
:1058600000F00C0000F1884000F50830036E02F0F3
:105870001802944023EA040391400B43036610BDD1
:105880000B6882B0A3F18802202A12D803F1884362
:1058900003F503331A684868024300201A600B6856
:1058A00003F1884303F503331B680193019B02B0A6
:1058B00070476FF08500FAE70B68A3F18802202A91
:1058C0009FBF03F1884303F503331A6849689BBF00
:1058D00000208A436FF085001A6070470E2809D8AF
:1058E00047F61A73C34013F0010F14BF00206FF086
:1058F000850070476FF08500704708B50868FFF7AE
:10590000EDFF00280EDB4968CBB203F1884303F5B5
:1059100003331868C1F30242C1F304218A400243F1
:1059200000201A6008BD436800205B681B690B609B
:10593000704743685B68586942400A4042405A6178
:1059400000207047436800205B6899617047436896
:1059500000205B6899627047436800205A68536969
:105960004B405361704710B503699868F8B188429D
:1059700019D1DC680868A142986000D1D860002085
:1059800008602AB19A680A60DA68996002B9D96039
:10599000002010E0814206D108682060D86881426A
:1059A000EDD1DC60EBE7044600680028F2D1002A64
:1059B000E8D16FF0150010BDF0B5446801206768AC
:1059C00088401E46C2F3801327EA00078B403B4302
:1059D00090FAA0F7B7FA87F74FF0030E6360D4F898
:1059E00008C07F000EFA07F72CEA070C90FAA0F720
:1059F000B7FA87F7C2F3C1137F00BB4043EA0C0339
:105A0000A36090FAA0F3B3FA83F3E7685B000EFAA1
:105A100003F327EA030790FAA0F3B3FA83F302F043
:105A200030055B00C2F341229A403A43202DE260E8
:105A300016D107292BD890FAA0F3226A2BB3B3FA18
:105A400083F30F219B0001FA03F322EA030290FA89
:105A5000A0F3B3FA83F39B0006FA03F31343236224
:105A600090FAA0F3B3FA83F390FAA0F00321B0FA0E
:105A700080F022685B002D0901FA03F3400022EA5E
:105A8000030385401D432560F0BD2B46D9E7030A7B
:105A9000616A93FAA3F282B1B2FA82F293FAA3F3A3
:105AA0000F27B3FA83F3920007FA02F29B0021EA70
:105AB00002029E4016436662D2E72A46EEE7F8B538
:105AC00012F4003C0C461346066927D091071ED5F8
:105AD0005A0740F181805022DF0603F4403518D583
:105AE00042F4007225B1316921FA04F7FF0746D567
:105AF0001F03416869D501234968A3408B610023D6
:105B000021464068FFF758FF002D4CD114E01022C9
:105B1000E2E79906E6D542F48062E3E7D70302F4B0
:105B2000403520D5DA0612D5002D46D12B464FF44C
:105B300000724068FFF740FF336923FA04F2D2078E
:105B400031D50122A24023EA020333612BE013F096
:105B5000200704D04DBB2B464FF48062E9E7B5B96E
:105B60002B462A46E5E715B92B463022E1E7316995
:105B700021FA04F212F0010F4FF030020ED101278A
:105B8000A74039433161BCF1000FB1D106E0316962
:105B900021FA04F212F00102F1D03A460023214624
:105BA0004068FFF709FF0020F8BD316921FA04F2CF
:105BB00012F0010F4FF48062E0E7316921FA04F23C
:105BC00012F0010F4FF40072D8E75F0341BF0123C9
:105BD0004968A3408B6292E76FF08500E4E770B5F7
:105BE0000B468968054611B15E680C6801B970BD45
:105BF0008A682A4002D030464B6898471CB1236817
:105C000021461C46F2E72346FAE7F8B51F4604464C
:105C100040680E461546FFF7CFFE112F08D101232D
:105C200003FA06F663682A055B684CBF9E619E62B4
:105C30000020F8BD30B5036813600579046804EBF3
:105C4000C504A34202D36FF0010030BD5C798C42E1
:105C500001D00833F0E70020F7E74368C1F34B10A9
:105C60001B6801F01F01C05801238B40034214BF81
:105C70000123002300201370704710B54368C1F35F
:105C80004B101A680123845801F01F018B402343F5
:105C90008350002010BD012210B54368C1F34B149E
:105CA000186801F01F0123588A4023EA0203235099
